{
  "_format": "hh-sol-artifact-1",
  "contractName": "BorrowToken",
  "sourceName": "contracts/BorrowToken.sol",
  "abi": [
    {
      "anonymous": false,
      "inputs": [
        {
          "indexed": false,
          "internalType": "uint8",
          "name": "version",
          "type": "uint8"
        }
      ],
      "name": "Initialized",
      "type": "event"
    },
    {
      "anonymous": false,
      "inputs": [
        {
          "indexed": false,
          "internalType": "string",
          "name": "strName",
          "type": "string"
        },
        {
          "indexed": false,
          "internalType": "uint256",
          "name": "amount",
          "type": "uint256"
        },
        {
          "indexed": false,
          "internalType": "uint256",
          "name": "borrowAmount",
          "type": "uint256"
        },
        {
          "indexed": false,
          "internalType": "uint256",
          "name": "borrowFee",
          "type": "uint256"
        },
        {
          "indexed": false,
          "internalType": "uint256",
          "name": "repayTime",
          "type": "uint256"
        },
        {
          "indexed": false,
          "internalType": "bool",
          "name": "bLogOnly",
          "type": "bool"
        }
      ],
      "name": "OnBorrowToken",
      "type": "event"
    },
    {
      "anonymous": false,
      "inputs": [
        {
          "indexed": false,
          "internalType": "string",
          "name": "strName",
          "type": "string"
        },
        {
          "indexed": false,
          "internalType": "uint256",
          "name": "cDirection",
          "type": "uint256"
        },
        {
          "indexed": false,
          "internalType": "uint256",
          "name": "changeValue",
          "type": "uint256"
        },
        {
          "indexed": false,
          "internalType": "uint256",
          "name": "resultValue",
          "type": "uint256"
        }
      ],
      "name": "OnChangeBorrowBalance",
      "type": "event"
    },
    {
      "anonymous": false,
      "inputs": [
        {
          "indexed": false,
          "internalType": "string",
          "name": "strName",
          "type": "string"
        },
        {
          "indexed": false,
          "internalType": "uint256",
          "name": "exchangeRate",
          "type": "uint256"
        }
      ],
      "name": "OnChangeBorrowSourceRate",
      "type": "event"
    },
    {
      "anonymous": false,
      "inputs": [
        {
          "indexed": false,
          "internalType": "string",
          "name": "strName",
          "type": "string"
        },
        {
          "indexed": false,
          "internalType": "uint256",
          "name": "orderId",
          "type": "uint256"
        },
        {
          "indexed": false,
          "internalType": "uint256",
          "name": "borrowAmount",
          "type": "uint256"
        },
        {
          "indexed": false,
          "internalType": "uint256",
          "name": "amount",
          "type": "uint256"
        },
        {
          "indexed": false,
          "internalType": "bool",
          "name": "bLogOnly",
          "type": "bool"
        }
      ],
      "name": "OnPaybackToken",
      "type": "event"
    },
    {
      "anonymous": false,
      "inputs": [
        {
          "indexed": false,
          "internalType": "string",
          "name": "strName",
          "type": "string"
        },
        {
          "indexed": false,
          "internalType": "uint256",
          "name": "totalBalance",
          "type": "uint256"
        },
        {
          "indexed": false,
          "internalType": "contract IERC20Upgradeable",
          "name": "sourceToken",
          "type": "address"
        },
        {
          "indexed": false,
          "internalType": "contract IERC20Upgradeable",
          "name": "targetToken",
          "type": "address"
        },
        {
          "indexed": false,
          "internalType": "address",
          "name": "targetAddress",
          "type": "address"
        },
        {
          "indexed": false,
          "internalType": "address",
          "name": "saveTo",
          "type": "address"
        },
        {
          "indexed": false,
          "internalType": "uint256",
          "name": "ltvRatios",
          "type": "uint256"
        },
        {
          "indexed": false,
          "internalType": "uint256",
          "name": "annualFee",
          "type": "uint256"
        },
        {
          "indexed": false,
          "internalType": "uint256",
          "name": "exchangeRate",
          "type": "uint256"
        }
      ],
      "name": "OnSetBorrowConfig",
      "type": "event"
    },
    {
      "anonymous": false,
      "inputs": [
        {
          "indexed": false,
          "internalType": "string",
          "name": "strName",
          "type": "string"
        },
        {
          "indexed": false,
          "internalType": "uint256",
          "name": "ltvRatios",
          "type": "uint256"
        },
        {
          "indexed": false,
          "internalType": "uint256",
          "name": "annualFee",
          "type": "uint256"
        }
      ],
      "name": "OnUpdateBorrowConfig",
      "type": "event"
    },
    {
      "anonymous": false,
      "inputs": [
        {
          "indexed": true,
          "internalType": "address",
          "name": "previousOwner",
          "type": "address"
        },
        {
          "indexed": true,
          "internalType": "address",
          "name": "newOwner",
          "type": "address"
        }
      ],
      "name": "OwnershipTransferred",
      "type": "event"
    },
    {
      "inputs": [
        {
          "internalType": "string",
          "name": "strName",
          "type": "string"
        },
        {
          "internalType": "uint256",
          "name": "amount",
          "type": "uint256"
        },
        {
          "internalType": "uint256",
          "name": "repayTime",
          "type": "uint256"
        },
        {
          "internalType": "bool",
          "name": "bLogOnly",
          "type": "bool"
        }
      ],
      "name": "borrowToken",
      "outputs": [
        {
          "internalType": "uint256",
          "name": "",
          "type": "uint256"
        }
      ],
      "stateMutability": "nonpayable",
      "type": "function"
    },
    {
      "inputs": [
        {
          "internalType": "string",
          "name": "strName",
          "type": "string"
        },
        {
          "internalType": "int256",
          "name": "changeValue",
          "type": "int256"
        }
      ],
      "name": "changeBorrowBalance",
      "outputs": [
        {
          "internalType": "bool",
          "name": "",
          "type": "bool"
        }
      ],
      "stateMutability": "nonpayable",
      "type": "function"
    },
    {
      "inputs": [
        {
          "internalType": "string",
          "name": "strName",
          "type": "string"
        },
        {
          "internalType": "uint256",
          "name": "exchangeRate",
          "type": "uint256"
        }
      ],
      "name": "changeBorrowSourceRate",
      "outputs": [
        {
          "internalType": "bool",
          "name": "",
          "type": "bool"
        }
      ],
      "stateMutability": "nonpayable",
      "type": "function"
    },
    {
      "inputs": [],
      "name": "dumpSecurityCode",
      "outputs": [
        {
          "internalType": "uint256",
          "name": "",
          "type": "uint256"
        }
      ],
      "stateMutability": "view",
      "type": "function"
    },
    {
      "inputs": [
        {
          "internalType": "string",
          "name": "strName",
          "type": "string"
        }
      ],
      "name": "getBorrowConfig",
      "outputs": [
        {
          "components": [
            {
              "internalType": "uint256",
              "name": "totalBalance",
              "type": "uint256"
            },
            {
              "internalType": "contract IERC20Upgradeable",
              "name": "sourceToken",
              "type": "address"
            },
            {
              "internalType": "contract IERC20Upgradeable",
              "name": "targetToken",
              "type": "address"
            },
            {
              "internalType": "address",
              "name": "targetAddress",
              "type": "address"
            },
            {
              "internalType": "address",
              "name": "saveTo",
              "type": "address"
            },
            {
              "internalType": "uint256",
              "name": "ltvRatios",
              "type": "uint256"
            },
            {
              "internalType": "uint256",
              "name": "annualFee",
              "type": "uint256"
            },
            {
              "internalType": "uint256",
              "name": "exchangeRate",
              "type": "uint256"
            }
          ],
          "internalType": "struct BorrowToken.tagBorrowConfig",
          "name": "",
          "type": "tuple"
        }
      ],
      "stateMutability": "view",
      "type": "function"
    },
    {
      "inputs": [
        {
          "internalType": "string",
          "name": "strCode",
          "type": "string"
        }
      ],
      "name": "getSecurityCode",
      "outputs": [
        {
          "internalType": "uint256",
          "name": "",
          "type": "uint256"
        }
      ],
      "stateMutability": "view",
      "type": "function"
    },
    {
      "inputs": [],
      "name": "getVersion",
      "outputs": [
        {
          "internalType": "uint256",
          "name": "",
          "type": "uint256"
        }
      ],
      "stateMutability": "view",
      "type": "function"
    },
    {
      "inputs": [],
      "name": "initialize",
      "outputs": [],
      "stateMutability": "nonpayable",
      "type": "function"
    },
    {
      "inputs": [],
      "name": "owner",
      "outputs": [
        {
          "internalType": "address",
          "name": "",
          "type": "address"
        }
      ],
      "stateMutability": "view",
      "type": "function"
    },
    {
      "inputs": [
        {
          "internalType": "string",
          "name": "strName",
          "type": "string"
        },
        {
          "internalType": "uint256",
          "name": "orderId",
          "type": "uint256"
        },
        {
          "internalType": "uint256",
          "name": "borrowAmount",
          "type": "uint256"
        },
        {
          "internalType": "bool",
          "name": "bLogOnly",
          "type": "bool"
        }
      ],
      "name": "paybackToken",
      "outputs": [
        {
          "internalType": "bool",
          "name": "",
          "type": "bool"
        }
      ],
      "stateMutability": "nonpayable",
      "type": "function"
    },
    {
      "inputs": [
        {
          "internalType": "string",
          "name": "strName",
          "type": "string"
        }
      ],
      "name": "removeBorrowConfig",
      "outputs": [
        {
          "internalType": "bool",
          "name": "",
          "type": "bool"
        }
      ],
      "stateMutability": "nonpayable",
      "type": "function"
    },
    {
      "inputs": [],
      "name": "renounceOwnership",
      "outputs": [],
      "stateMutability": "nonpayable",
      "type": "function"
    },
    {
      "inputs": [
        {
          "internalType": "address",
          "name": "newOwner",
          "type": "address"
        },
        {
          "internalType": "string",
          "name": "strCode",
          "type": "string"
        }
      ],
      "name": "securityTransferOwnership",
      "outputs": [
        {
          "internalType": "bool",
          "name": "",
          "type": "bool"
        }
      ],
      "stateMutability": "nonpayable",
      "type": "function"
    },
    {
      "inputs": [
        {
          "internalType": "string",
          "name": "strName",
          "type": "string"
        },
        {
          "internalType": "uint256",
          "name": "totalBalance",
          "type": "uint256"
        },
        {
          "internalType": "contract IERC20Upgradeable",
          "name": "sourceToken",
          "type": "address"
        },
        {
          "internalType": "contract IERC20Upgradeable",
          "name": "targetToken",
          "type": "address"
        },
        {
          "internalType": "address",
          "name": "targetAddress",
          "type": "address"
        },
        {
          "internalType": "address",
          "name": "saveTo",
          "type": "address"
        },
        {
          "internalType": "uint256",
          "name": "ltvRatios",
          "type": "uint256"
        },
        {
          "internalType": "uint256",
          "name": "annualFee",
          "type": "uint256"
        },
        {
          "internalType": "uint256",
          "name": "exchangeRate",
          "type": "uint256"
        }
      ],
      "name": "setBorrowConfig",
      "outputs": [
        {
          "internalType": "bool",
          "name": "",
          "type": "bool"
        }
      ],
      "stateMutability": "nonpayable",
      "type": "function"
    },
    {
      "inputs": [
        {
          "internalType": "string",
          "name": "strOldCode",
          "type": "string"
        },
        {
          "internalType": "string",
          "name": "strNewCode",
          "type": "string"
        }
      ],
      "name": "setSecurityCode",
      "outputs": [
        {
          "internalType": "bool",
          "name": "",
          "type": "bool"
        }
      ],
      "stateMutability": "nonpayable",
      "type": "function"
    },
    {
      "inputs": [
        {
          "internalType": "contract IERC721Upgradeable",
          "name": "sourceToken",
          "type": "address"
        },
        {
          "internalType": "address payable",
          "name": "receiver",
          "type": "address"
        },
        {
          "internalType": "uint256",
          "name": "tokenId",
          "type": "uint256"
        }
      ],
      "name": "transferNFTOut",
      "outputs": [
        {
          "internalType": "bool",
          "name": "",
          "type": "bool"
        }
      ],
      "stateMutability": "nonpayable",
      "type": "function"
    },
    {
      "inputs": [
        {
          "internalType": "contract IERC20Upgradeable",
          "name": "sourceToken",
          "type": "address"
        },
        {
          "internalType": "address payable",
          "name": "receiver",
          "type": "address"
        },
        {
          "internalType": "uint256",
          "name": "amount",
          "type": "uint256"
        }
      ],
      "name": "transferOut",
      "outputs": [
        {
          "internalType": "bool",
          "name": "",
          "type": "bool"
        }
      ],
      "stateMutability": "nonpayable",
      "type": "function"
    },
    {
      "inputs": [
        {
          "internalType": "address",
          "name": "newOwner",
          "type": "address"
        }
      ],
      "name": "transferOwnership",
      "outputs": [],
      "stateMutability": "nonpayable",
      "type": "function"
    },
    {
      "inputs": [
        {
          "internalType": "string",
          "name": "strName",
          "type": "string"
        },
        {
          "internalType": "uint256",
          "name": "ltvRatios",
          "type": "uint256"
        },
        {
          "internalType": "uint256",
          "name": "annualFee",
          "type": "uint256"
        }
      ],
      "name": "updateBorrowConfig",
      "outputs": [
        {
          "internalType": "bool",
          "name": "",
          "type": "bool"
        }
      ],
      "stateMutability": "nonpayable",
      "type": "function"
    },
    {
      "inputs": [
        {
          "internalType": "uint256",
          "name": "iVersion",
          "type": "uint256"
        }
      ],
      "name": "updateVersion",
      "outputs": [
        {
          "internalType": "bool",
          "name": "",
          "type": "bool"
        }
      ],
      "stateMutability": "nonpayable",
      "type": "function"
    }
  ],
  "bytecode": "0x608060405234801561001057600080fd5b50614ef6806100206000396000f3fe608060405234801561001057600080fd5b506004361061012c5760003560e01c80638129fc1c116100ad578063c16441b111610071578063c16441b11461037f578063ce4ec6d5146103af578063d065dc30146103df578063ecd7dd651461040f578063f2fde38b1461043f5761012c565b80638129fc1c146102d95780638da5cb5b146102e35780638f55937e146103015780639ca6c7851461031f578063a87f884e1461034f5761012c565b80634900f8fb116100f45780634900f8fb1461020f5780634edf4d0e1461023f57806358e99e001461026f578063715018a61461029f57806371e56a58146102a95761012c565b8063078d3b79146101315780630b54d2ca146101615780630d8e6e2c1461019157806316073f73146101af578063466697d7146101df575b600080fd5b61014b600480360381019061014691906132df565b61045b565b604051610158919061334d565b60405180910390f35b61017b600480360381019061017691906134ae565b610720565b604051610188919061334d565b60405180910390f35b6101996109e4565b6040516101a6919061352c565b60405180910390f35b6101c960048036038101906101c49190613573565b6109ee565b6040516101d6919061334d565b60405180910390f35b6101f960048036038101906101f49190613605565b610b55565b604051610206919061334d565b60405180910390f35b61022960048036038101906102249190613661565b610ed7565b604051610236919061334d565b60405180910390f35b610259600480360381019061025491906136d9565b610f6c565b604051610266919061352c565b60405180910390f35b61028960048036038101906102849190613722565b610fde565b604051610296919061334d565b60405180910390f35b6102a76112cb565b005b6102c360048036038101906102be91906137bc565b6112df565b6040516102d0919061334d565b60405180910390f35b6102e1611490565b005b6102eb6115ce565b6040516102f8919061381e565b60405180910390f35b6103096115f8565b604051610316919061352c565b60405180910390f35b61033960048036038101906103349190613839565b61160a565b604051610346919061334d565b60405180910390f35b6103696004803603810190610364919061391f565b611bb9565b604051610376919061334d565b60405180910390f35b61039960048036038101906103949190613978565b611bd3565b6040516103a6919061352c565b60405180910390f35b6103c960048036038101906103c491906136d9565b6123e6565b6040516103d6919061334d565b60405180910390f35b6103f960048036038101906103f49190613978565b6126c5565b604051610406919061334d565b60405180910390f35b610429600480360381019061042491906136d9565b612c60565b6040516104369190613b1a565b60405180910390f35b61045960048036038101906104549190613b36565b612e16565b005b6000610465612e75565b60003090508073ffffffffffffffffffffffffffffffffffffffff168473ffffffffffffffffffffffffffffffffffffffff1614156104d9576040517f08c379a00000000000000000000000000000000000000000000000000000000081526004016104d090613bc0565b60405180910390fd5b600073ffffffffffffffffffffffffffffffffffffffff168573ffffffffffffffffffffffffffffffffffffffff1614156105b457828173ffffffffffffffffffffffffffffffffffffffff16311015610568576040517f08c379a000000000000000000000000000000000000000000000000000000000815260040161055f90613c2c565b60405180910390fd5b8373ffffffffffffffffffffffffffffffffffffffff166108fc849081150290604051600060405180830381858888f193505050501580156105ae573d6000803e3d6000fd5b50610714565b60008573ffffffffffffffffffffffffffffffffffffffff166370a08231836040518263ffffffff1660e01b81526004016105ef919061381e565b60206040518083038186803b15801561060757600080fd5b505afa15801561061b573d6000803e3d6000fd5b505050506040513d601f19601f8201168201806040525081019061063f9190613c61565b905083811015610684576040517f08c379a000000000000000000000000000000000000000000000000000000000815260040161067b90613c2c565b60405180910390fd5b8573ffffffffffffffffffffffffffffffffffffffff1663a9059cbb86866040518363ffffffff1660e01b81526004016106bf929190613caf565b602060405180830381600087803b1580156106d957600080fd5b505af11580156106ed573d6000803e3d6000fd5b505050506040513d601f19601f820116820180604052508101906107119190613ced565b50505b60019150509392505050565b600061072a612e75565b600083141561076e576040517f08c379a000000000000000000000000000000000000000000000000000000000815260040161076590613d66565b60405180910390fd5b600061077985612ef3565b905060006067600083815260200190815260200160002060405180610100016040529081600082015481526020016001820160009054906101000a900473ffffffffffffffffffffffffffffffffffffffff1673ffffffffffffffffffffffffffffffffffffffff1673ffffffffffffffffffffffffffffffffffffffff1681526020016002820160009054906101000a900473ffffffffffffffffffffffffffffffffffffffff1673ffffffffffffffffffffffffffffffffffffffff1673ffffffffffffffffffffffffffffffffffffffff1681526020016003820160009054906101000a900473ffffffffffffffffffffffffffffffffffffffff1673ffffffffffffffffffffffffffffffffffffffff1673ffffffffffffffffffffffffffffffffffffffff1681526020016004820160009054906101000a900473ffffffffffffffffffffffffffffffffffffffff1673ffffffffffffffffffffffffffffffffffffffff1673ffffffffffffffffffffffffffffffffffffffff1681526020016005820154815260200160068201548152602001600782015481525050905060008160a001511415610966576040517f08c379a000000000000000000000000000000000000000000000000000000000815260040161095d90613dd2565b60405180910390fd5b8460676000848152602001908152602001600020600501819055508360676000848152602001908152602001600020600601819055507f6c201e11b12ed90a6041f07db5cc242bffb5ed65b4d57c89aa122789289c8e088686866040516109cf93929190613e69565b60405180910390a16001925050509392505050565b6000606554905090565b60006109f8612e75565b6000610a0383610f6c565b905060006066541480610a17575080606654145b15610b1457600073ffffffffffffffffffffffffffffffffffffffff168473ffffffffffffffffffffffffffffffffffffffff161415610a8c576040517f08c379a0000000000000000000000000000000000000000000000000000000008152600401610a8390613f19565b60405180910390fd5b8373ffffffffffffffffffffffffffffffffffffffff16610aab6115ce565b73ffffffffffffffffffffffffffffffffffffffff1614610ad957610acf84612f07565b6001915050610b4f565b6040517f08c379a0000000000000000000000000000000000000000000000000000000008152600401610b0b90613fab565b60405180910390fd5b6040517f08c379a0000000000000000000000000000000000000000000000000000000008152600401610b4690614017565b60405180910390fd5b92915050565b6000610b5f612e75565b6000610b6a84612ef3565b905060006067600083815260200190815260200160002060405180610100016040529081600082015481526020016001820160009054906101000a900473ffffffffffffffffffffffffffffffffffffffff1673ffffffffffffffffffffffffffffffffffffffff1673ffffffffffffffffffffffffffffffffffffffff1681526020016002820160009054906101000a900473ffffffffffffffffffffffffffffffffffffffff1673ffffffffffffffffffffffffffffffffffffffff1673ffffffffffffffffffffffffffffffffffffffff1681526020016003820160009054906101000a900473ffffffffffffffffffffffffffffffffffffffff1673ffffffffffffffffffffffffffffffffffffffff1673ffffffffffffffffffffffffffffffffffffffff1681526020016004820160009054906101000a900473ffffffffffffffffffffffffffffffffffffffff1673ffffffffffffffffffffffffffffffffffffffff1673ffffffffffffffffffffffffffffffffffffffff1681526020016005820154815260200160068201548152602001600782015481525050905060008160a001511415610d57576040517f08c379a0000000000000000000000000000000000000000000000000000000008152600401610d4e90613dd2565b60405180910390fd5b6000841415610d9b576040517f08c379a0000000000000000000000000000000000000000000000000000000008152600401610d9290614083565b60405180910390fd5b600080851315610dd75784606760008581526020019081526020016000206000016000828254610dcb91906140d2565b92505081905550610e77565b600190507fffffffffffffffffffffffffffffffffffffffffffffffffffffffffffffffff85610e079190614128565b94508460676000858152602001908152602001600020600001541115610e595784606760008581526020019081526020016000206000016000828254610e4d919061423f565b92505081905550610e76565b600060676000858152602001908152602001600020600001819055505b5b7f9c3d1a3f3a9af155a659c3b6c42b232644a88384deadb0a2c9f1380a6064520d8682876067600088815260200190815260200160002060000154604051610ec29493929190614273565b60405180910390a16001935050505092915050565b6000610ee1612e75565b6000610eec84610f6c565b905060006066541480610f00575080606654145b15610f2b57610f0e83610f6c565b90508060665414610f2a57806066819055506001915050610f66565b5b6040517f08c379a0000000000000000000000000000000000000000000000000000000008152600401610f5d9061430b565b60405180910390fd5b92915050565b6000610f76612e75565b816040518060400160405280600981526020017f40424754546f6b656e0000000000000000000000000000000000000000000000815250604051602001610fbe929190614372565b6040516020818303038152906040528051906020012060001c9050919050565b6000610fe8612e75565b6000610ff384612ef3565b905060006067600083815260200190815260200160002060405180610100016040529081600082015481526020016001820160009054906101000a900473ffffffffffffffffffffffffffffffffffffffff1673ffffffffffffffffffffffffffffffffffffffff1673ffffffffffffffffffffffffffffffffffffffff1681526020016002820160009054906101000a900473ffffffffffffffffffffffffffffffffffffffff1673ffffffffffffffffffffffffffffffffffffffff1673ffffffffffffffffffffffffffffffffffffffff1681526020016003820160009054906101000a900473ffffffffffffffffffffffffffffffffffffffff1673ffffffffffffffffffffffffffffffffffffffff1673ffffffffffffffffffffffffffffffffffffffff1681526020016004820160009054906101000a900473ffffffffffffffffffffffffffffffffffffffff1673ffffffffffffffffffffffffffffffffffffffff1673ffffffffffffffffffffffffffffffffffffffff1681526020016005820154815260200160068201548152602001600782015481525050905060008160a0015114156111e0576040517f08c379a00000000000000000000000000000000000000000000000000000000081526004016111d790613dd2565b60405180910390fd5b6000841415611224576040517f08c379a000000000000000000000000000000000000000000000000000000000815260040161121b906143e2565b60405180910390fd5b8060e0015184141561126b576040517f08c379a00000000000000000000000000000000000000000000000000000000081526004016112629061444e565b60405180910390fd5b8360676000848152602001908152602001600020600701819055507f46b8e9e6354564fd2cde809cedd829683f11889b4778418a23fd0522516d37e585856040516112b792919061446e565b60405180910390a160019250505092915050565b6112d3612e75565b6112dd6000612f07565b565b60006112e9612e75565b60003090508073ffffffffffffffffffffffffffffffffffffffff168473ffffffffffffffffffffffffffffffffffffffff16141561135d576040517f08c379a000000000000000000000000000000000000000000000000000000000815260040161135490613bc0565b60405180910390fd5b61136685612fcd565b6113a5576040517f08c379a000000000000000000000000000000000000000000000000000000000815260040161139c906144ea565b60405180910390fd5b600073ffffffffffffffffffffffffffffffffffffffff168573ffffffffffffffffffffffffffffffffffffffff161415611415576040517f08c379a000000000000000000000000000000000000000000000000000000000815260040161140c90614556565b60405180910390fd5b8473ffffffffffffffffffffffffffffffffffffffff166323b872dd8286866040518463ffffffff1660e01b815260040161145293929190614576565b600060405180830381600087803b15801561146c57600080fd5b505af1158015611480573d6000803e3d6000fd5b5050505060019150509392505050565b60008060019054906101000a900460ff161590508080156114c15750600160008054906101000a900460ff1660ff16105b806114ee57506114d030612fcd565b1580156114ed5750600160008054906101000a900460ff1660ff16145b5b61152d576040517f08c379a00000000000000000000000000000000000000000000000000000000081526004016115249061461f565b60405180910390fd5b60016000806101000a81548160ff021916908360ff160217905550801561156a576001600060016101000a81548160ff0219169083151502179055505b611572612ff0565b80156115cb5760008060016101000a81548160ff0219169083151502179055507f7f26b83ff96e1f2b6a682f133852f6798a09c465da95921460cefb384740249860016040516115c29190614687565b60405180910390a15b50565b6000603360009054906101000a900473ffffffffffffffffffffffffffffffffffffffff16905090565b6000611602612e75565b606654905090565b6000611614612e75565b600073ffffffffffffffffffffffffffffffffffffffff168673ffffffffffffffffffffffffffffffffffffffff16141561164d573095505b600073ffffffffffffffffffffffffffffffffffffffff168573ffffffffffffffffffffffffffffffffffffffff161415611686573094505b61168f88612fcd565b6116ce576040517f08c379a00000000000000000000000000000000000000000000000000000000081526004016116c5906146ee565b60405180910390fd5b6116d787612fcd565b611716576040517f08c379a000000000000000000000000000000000000000000000000000000000815260040161170d9061475a565b60405180910390fd5b600084141561175a576040517f08c379a000000000000000000000000000000000000000000000000000000000815260040161175190613d66565b60405180910390fd5b600082141561179e576040517f08c379a0000000000000000000000000000000000000000000000000000000008152600401611795906143e2565b60405180910390fd5b60006117a98b612ef3565b905060006040518061010001604052808c81526020018b73ffffffffffffffffffffffffffffffffffffffff1681526020018a73ffffffffffffffffffffffffffffffffffffffff1681526020018973ffffffffffffffffffffffffffffffffffffffff1681526020018873ffffffffffffffffffffffffffffffffffffffff16815260200187815260200186815260200185815250905060006067600084815260200190815260200160002060405180610100016040529081600082015481526020016001820160009054906101000a900473ffffffffffffffffffffffffffffffffffffffff1673ffffffffffffffffffffffffffffffffffffffff1673ffffffffffffffffffffffffffffffffffffffff1681526020016002820160009054906101000a900473ffffffffffffffffffffffffffffffffffffffff1673ffffffffffffffffffffffffffffffffffffffff1673ffffffffffffffffffffffffffffffffffffffff1681526020016003820160009054906101000a900473ffffffffffffffffffffffffffffffffffffffff1673ffffffffffffffffffffffffffffffffffffffff1673ffffffffffffffffffffffffffffffffffffffff1681526020016004820160009054906101000a900473ffffffffffffffffffffffffffffffffffffffff1673ffffffffffffffffffffffffffffffffffffffff1673ffffffffffffffffffffffffffffffffffffffff1681526020016005820154815260200160068201548152602001600782015481525050905060008160a00151146119ff5780600001518260000181815250505b81606760008581526020019081526020016000206000820151816000015560208201518160010160006101000a81548173ffffffffffffffffffffffffffffffffffffffff021916908373ffffffffffffffffffffffffffffffffffffffff16021790555060408201518160020160006101000a81548173ffffffffffffffffffffffffffffffffffffffff021916908373ffffffffffffffffffffffffffffffffffffffff16021790555060608201518160030160006101000a81548173ffffffffffffffffffffffffffffffffffffffff021916908373ffffffffffffffffffffffffffffffffffffffff16021790555060808201518160040160006101000a81548173ffffffffffffffffffffffffffffffffffffffff021916908373ffffffffffffffffffffffffffffffffffffffff16021790555060a0820151816005015560c0820151816006015560e082015181600701559050507fa13a3e194259e89a7d29d85bbdf1383e9d25deb98724f03e8ebd75b5b32f77568d83600001518d8d8d8d8d8d8d604051611b9d99989796959493929190614789565b60405180910390a1600193505050509998505050505050505050565b6000611bc3612e75565b8160658190555060019050919050565b600080611bdf86612ef3565b905060006067600083815260200190815260200160002060405180610100016040529081600082015481526020016001820160009054906101000a900473ffffffffffffffffffffffffffffffffffffffff1673ffffffffffffffffffffffffffffffffffffffff1673ffffffffffffffffffffffffffffffffffffffff1681526020016002820160009054906101000a900473ffffffffffffffffffffffffffffffffffffffff1673ffffffffffffffffffffffffffffffffffffffff1673ffffffffffffffffffffffffffffffffffffffff1681526020016003820160009054906101000a900473ffffffffffffffffffffffffffffffffffffffff1673ffffffffffffffffffffffffffffffffffffffff1673ffffffffffffffffffffffffffffffffffffffff1681526020016004820160009054906101000a900473ffffffffffffffffffffffffffffffffffffffff1673ffffffffffffffffffffffffffffffffffffffff1673ffffffffffffffffffffffffffffffffffffffff1681526020016005820154815260200160068201548152602001600782015481525050905060008160a001511415611dcc576040517f08c379a0000000000000000000000000000000000000000000000000000000008152600401611dc390613dd2565b60405180910390fd5b8581600001511015611e13576040517f08c379a0000000000000000000000000000000000000000000000000000000008152600401611e0a90614869565b60405180910390fd5b6000670de0b6b3a76400008260e0015188611e2e9190614889565b611e389190614912565b90508160a0015161271082611e4d9190614889565b611e579190614912565b90506000808360c001511115611ea1576301e13380612710611e799190614889565b878460c0015184611e8a9190614889565b611e949190614889565b611e9e9190614912565b90505b6000821415611ee5576040517f08c379a0000000000000000000000000000000000000000000000000000000008152600401611edc9061498f565b60405180910390fd5b808211611f27576040517f08c379a0000000000000000000000000000000000000000000000000000000008152600401611f1e906149fb565b60405180910390fd5b856122e1576000611f36613004565b90506000846020015173ffffffffffffffffffffffffffffffffffffffff166370a08231836040518263ffffffff1660e01b8152600401611f77919061381e565b60206040518083038186803b158015611f8f57600080fd5b505afa158015611fa3573d6000803e3d6000fd5b505050506040513d601f19601f82011682018060405250810190611fc79190613c61565b90508981101561200c576040517f08c379a000000000000000000000000000000000000000000000000000000000815260040161200390614a67565b60405180910390fd5b6000856040015173ffffffffffffffffffffffffffffffffffffffff166370a0823187606001516040518263ffffffff1660e01b815260040161204f919061381e565b60206040518083038186803b15801561206757600080fd5b505afa15801561207b573d6000803e3d6000fd5b505050506040513d601f19601f8201168201806040525081019061209f9190613c61565b905083856120ad919061423f565b8110156120ef576040517f08c379a00000000000000000000000000000000000000000000000000000000081526004016120e690614ad3565b60405180910390fd5b856080015173ffffffffffffffffffffffffffffffffffffffff168373ffffffffffffffffffffffffffffffffffffffff161415801561215f57508273ffffffffffffffffffffffffffffffffffffffff16866060015173ffffffffffffffffffffffffffffffffffffffff1614155b61219e576040517f08c379a000000000000000000000000000000000000000000000000000000000815260040161219590614b3f565b60405180910390fd5b856020015173ffffffffffffffffffffffffffffffffffffffff166323b872dd8488608001518e6040518463ffffffff1660e01b81526004016121e393929190614b5f565b602060405180830381600087803b1580156121fd57600080fd5b505af1158015612211573d6000803e3d6000fd5b505050506040513d601f19601f820116820180604052508101906122359190613ced565b50856040015173ffffffffffffffffffffffffffffffffffffffff166323b872dd8760600151858789612268919061423f565b6040518463ffffffff1660e01b815260040161228693929190614b5f565b602060405180830381600087803b1580156122a057600080fd5b505af11580156122b4573d6000803e3d6000fd5b505050506040513d601f19601f820116820180604052508101906122d89190613ced565b5050505061235e565b6122e9613004565b73ffffffffffffffffffffffffffffffffffffffff166123076115ce565b73ffffffffffffffffffffffffffffffffffffffff161461235d576040517f08c379a000000000000000000000000000000000000000000000000000000000815260040161235490614be2565b60405180910390fd5b5b87606760008681526020019081526020016000206000016000828254612384919061423f565b925050819055507f862b48f88590cae36a47fa57ff805e2e83376cb4b5d51e9fe3e153184e6b6a33898984848b8b6040516123c496959493929190614c02565b60405180910390a180826123d8919061423f565b945050505050949350505050565b60006123f0612e75565b60006123fb83612ef3565b905060006067600083815260200190815260200160002060405180610100016040529081600082015481526020016001820160009054906101000a900473ffffffffffffffffffffffffffffffffffffffff1673ffffffffffffffffffffffffffffffffffffffff1673ffffffffffffffffffffffffffffffffffffffff1681526020016002820160009054906101000a900473ffffffffffffffffffffffffffffffffffffffff1673ffffffffffffffffffffffffffffffffffffffff1673ffffffffffffffffffffffffffffffffffffffff1681526020016003820160009054906101000a900473ffffffffffffffffffffffffffffffffffffffff1673ffffffffffffffffffffffffffffffffffffffff1673ffffffffffffffffffffffffffffffffffffffff1681526020016004820160009054906101000a900473ffffffffffffffffffffffffffffffffffffffff1673ffffffffffffffffffffffffffffffffffffffff1673ffffffffffffffffffffffffffffffffffffffff1681526020016005820154815260200160068201548152602001600782015481525050905060008160a0015114156125e8576040517f08c379a00000000000000000000000000000000000000000000000000000000081526004016125df90613dd2565b60405180910390fd5b606760008381526020019081526020016000206000808201600090556001820160006101000a81549073ffffffffffffffffffffffffffffffffffffffff02191690556002820160006101000a81549073ffffffffffffffffffffffffffffffffffffffff02191690556003820160006101000a81549073ffffffffffffffffffffffffffffffffffffffff02191690556004820160006101000a81549073ffffffffffffffffffffffffffffffffffffffff02191690556005820160009055600682016000905560078201600090555050600192505050919050565b6000806126d186612ef3565b905060006067600083815260200190815260200160002060405180610100016040529081600082015481526020016001820160009054906101000a900473ffffffffffffffffffffffffffffffffffffffff1673ffffffffffffffffffffffffffffffffffffffff1673ffffffffffffffffffffffffffffffffffffffff1681526020016002820160009054906101000a900473ffffffffffffffffffffffffffffffffffffffff1673ffffffffffffffffffffffffffffffffffffffff1673ffffffffffffffffffffffffffffffffffffffff1681526020016003820160009054906101000a900473ffffffffffffffffffffffffffffffffffffffff1673ffffffffffffffffffffffffffffffffffffffff1673ffffffffffffffffffffffffffffffffffffffff1681526020016004820160009054906101000a900473ffffffffffffffffffffffffffffffffffffffff1673ffffffffffffffffffffffffffffffffffffffff1673ffffffffffffffffffffffffffffffffffffffff1681526020016005820154815260200160068201548152602001600782015481525050905060008160a0015114156128be576040517f08c379a00000000000000000000000000000000000000000000000000000000081526004016128b590613dd2565b60405180910390fd5b60008160e001511415612906576040517f08c379a00000000000000000000000000000000000000000000000000000000081526004016128fd90614cb6565b60405180910390fd5b60008160e00151670de0b6b3a7640000876129219190614889565b61292b9190614912565b90506000811415612971576040517f08c379a00000000000000000000000000000000000000000000000000000000081526004016129689061498f565b60405180910390fd5b84612b68576000612980613004565b90506000836040015173ffffffffffffffffffffffffffffffffffffffff166370a08231836040518263ffffffff1660e01b81526004016129c1919061381e565b60206040518083038186803b1580156129d957600080fd5b505afa1580156129ed573d6000803e3d6000fd5b505050506040513d601f19601f82011682018060405250810190612a119190613c61565b905087811015612a56576040517f08c379a0000000000000000000000000000000000000000000000000000000008152600401612a4d90614a67565b60405180910390fd5b836060015173ffffffffffffffffffffffffffffffffffffffff168273ffffffffffffffffffffffffffffffffffffffff161415612ac9576040517f08c379a0000000000000000000000000000000000000000000000000000000008152600401612ac090614d22565b60405180910390fd5b836040015173ffffffffffffffffffffffffffffffffffffffff166323b872dd8386606001518b6040518463ffffffff1660e01b8152600401612b0e93929190614b5f565b602060405180830381600087803b158015612b2857600080fd5b505af1158015612b3c573d6000803e3d6000fd5b505050506040513d601f19601f82011682018060405250810190612b609190613ced565b505050612be5565b612b70613004565b73ffffffffffffffffffffffffffffffffffffffff16612b8e6115ce565b73ffffffffffffffffffffffffffffffffffffffff1614612be4576040517f08c379a0000000000000000000000000000000000000000000000000000000008152600401612bdb90614be2565b60405180910390fd5b5b80606760008581526020019081526020016000206000016000828254612c0b91906140d2565b925050819055507ff5228ce5b49a0a8688109c6bc0d45da4e28ff61fcd09ef75a8d92283d5b9e3ef8888888489604051612c49959493929190614d42565b60405180910390a160019350505050949350505050565b612c6861314a565b60676000612c7584612ef3565b815260200190815260200160002060405180610100016040529081600082015481526020016001820160009054906101000a900473ffffffffffffffffffffffffffffffffffffffff1673ffffffffffffffffffffffffffffffffffffffff1673ffffffffffffffffffffffffffffffffffffffff1681526020016002820160009054906101000a900473ffffffffffffffffffffffffffffffffffffffff1673ffffffffffffffffffffffffffffffffffffffff1673ffffffffffffffffffffffffffffffffffffffff1681526020016003820160009054906101000a900473ffffffffffffffffffffffffffffffffffffffff1673ffffffffffffffffffffffffffffffffffffffff1673ffffffffffffffffffffffffffffffffffffffff1681526020016004820160009054906101000a900473ffffffffffffffffffffffffffffffffffffffff1673ffffffffffffffffffffffffffffffffffffffff1673ffffffffffffffffffffffffffffffffffffffff16815260200160058201548152602001600682015481526020016007820154815250509050919050565b612e1e612e75565b60006066541415612e3757612e328161300c565b612e72565b6040517f08c379a0000000000000000000000000000000000000000000000000000000008152600401612e6990614e0e565b60405180910390fd5b50565b612e7d613004565b73ffffffffffffffffffffffffffffffffffffffff16612e9b6115ce565b73ffffffffffffffffffffffffffffffffffffffff1614612ef1576040517f08c379a0000000000000000000000000000000000000000000000000000000008152600401612ee890614be2565b60405180910390fd5b565b6000818051906020012060001c9050919050565b6000603360009054906101000a900473ffffffffffffffffffffffffffffffffffffffff16905081603360006101000a81548173ffffffffffffffffffffffffffffffffffffffff021916908373ffffffffffffffffffffffffffffffffffffffff1602179055508173ffffffffffffffffffffffffffffffffffffffff168173ffffffffffffffffffffffffffffffffffffffff167f8be0079c531659141344cd1fd0a4f28419497f9722a3daafe3b4186f6b6457e060405160405180910390a35050565b6000808273ffffffffffffffffffffffffffffffffffffffff163b119050919050565b612ff8613090565b620186a0606581905550565b600033905090565b613014612e75565b600073ffffffffffffffffffffffffffffffffffffffff168173ffffffffffffffffffffffffffffffffffffffff161415613084576040517f08c379a000000000000000000000000000000000000000000000000000000000815260040161307b90613f19565b60405180910390fd5b61308d81612f07565b50565b600060019054906101000a900460ff166130df576040517f08c379a00000000000000000000000000000000000000000000000000000000081526004016130d690614ea0565b60405180910390fd5b6130e76130e9565b565b600060019054906101000a900460ff16613138576040517f08c379a000000000000000000000000000000000000000000000000000000000815260040161312f90614ea0565b60405180910390fd5b613148613143613004565b612f07565b565b60405180610100016040528060008152602001600073ffffffffffffffffffffffffffffffffffffffff168152602001600073ffffffffffffffffffffffffffffffffffffffff168152602001600073ffffffffffffffffffffffffffffffffffffffff168152602001600073ffffffffffffffffffffffffffffffffffffffff1681526020016000815260200160008152602001600081525090565b6000604051905090565b600080fd5b600080fd5b600073ffffffffffffffffffffffffffffffffffffffff82169050919050565b6000613226826131fb565b9050919050565b60006132388261321b565b9050919050565b6132488161322d565b811461325357600080fd5b50565b6000813590506132658161323f565b92915050565b6000613276826131fb565b9050919050565b6132868161326b565b811461329157600080fd5b50565b6000813590506132a38161327d565b92915050565b6000819050919050565b6132bc816132a9565b81146132c757600080fd5b50565b6000813590506132d9816132b3565b92915050565b6000806000606084860312156132f8576132f76131f1565b5b600061330686828701613256565b935050602061331786828701613294565b9250506040613328868287016132ca565b9150509250925092565b60008115159050919050565b61334781613332565b82525050565b6000602082019050613362600083018461333e565b92915050565b600080fd5b600080fd5b6000601f19601f8301169050919050565b7f4e487b7100000000000000000000000000000000000000000000000000000000600052604160045260246000fd5b6133bb82613372565b810181811067ffffffffffffffff821117156133da576133d9613383565b5b80604052505050565b60006133ed6131e7565b90506133f982826133b2565b919050565b600067ffffffffffffffff82111561341957613418613383565b5b61342282613372565b9050602081019050919050565b82818337600083830152505050565b600061345161344c846133fe565b6133e3565b90508281526020810184848401111561346d5761346c61336d565b5b61347884828561342f565b509392505050565b600082601f83011261349557613494613368565b5b81356134a584826020860161343e565b91505092915050565b6000806000606084860312156134c7576134c66131f1565b5b600084013567ffffffffffffffff8111156134e5576134e46131f6565b5b6134f186828701613480565b9350506020613502868287016132ca565b9250506040613513868287016132ca565b9150509250925092565b613526816132a9565b82525050565b6000602082019050613541600083018461351d565b92915050565b6135508161321b565b811461355b57600080fd5b50565b60008135905061356d81613547565b92915050565b6000806040838503121561358a576135896131f1565b5b60006135988582860161355e565b925050602083013567ffffffffffffffff8111156135b9576135b86131f6565b5b6135c585828601613480565b9150509250929050565b6000819050919050565b6135e2816135cf565b81146135ed57600080fd5b50565b6000813590506135ff816135d9565b92915050565b6000806040838503121561361c5761361b6131f1565b5b600083013567ffffffffffffffff81111561363a576136396131f6565b5b61364685828601613480565b9250506020613657858286016135f0565b9150509250929050565b60008060408385031215613678576136776131f1565b5b600083013567ffffffffffffffff811115613696576136956131f6565b5b6136a285828601613480565b925050602083013567ffffffffffffffff8111156136c3576136c26131f6565b5b6136cf85828601613480565b9150509250929050565b6000602082840312156136ef576136ee6131f1565b5b600082013567ffffffffffffffff81111561370d5761370c6131f6565b5b61371984828501613480565b91505092915050565b60008060408385031215613739576137386131f1565b5b600083013567ffffffffffffffff811115613757576137566131f6565b5b61376385828601613480565b9250506020613774858286016132ca565b9150509250929050565b60006137898261321b565b9050919050565b6137998161377e565b81146137a457600080fd5b50565b6000813590506137b681613790565b92915050565b6000806000606084860312156137d5576137d46131f1565b5b60006137e3868287016137a7565b93505060206137f486828701613294565b9250506040613805868287016132ca565b9150509250925092565b6138188161321b565b82525050565b6000602082019050613833600083018461380f565b92915050565b60008060008060008060008060006101208a8c03121561385c5761385b6131f1565b5b60008a013567ffffffffffffffff81111561387a576138796131f6565b5b6138868c828d01613480565b99505060206138978c828d016132ca565b98505060406138a88c828d01613256565b97505060606138b98c828d01613256565b96505060806138ca8c828d0161355e565b95505060a06138db8c828d0161355e565b94505060c06138ec8c828d016132ca565b93505060e06138fd8c828d016132ca565b92505061010061390f8c828d016132ca565b9150509295985092959850929598565b600060208284031215613935576139346131f1565b5b6000613943848285016132ca565b91505092915050565b61395581613332565b811461396057600080fd5b50565b6000813590506139728161394c565b92915050565b60008060008060808587031215613992576139916131f1565b5b600085013567ffffffffffffffff8111156139b0576139af6131f6565b5b6139bc87828801613480565b94505060206139cd878288016132ca565b93505060406139de878288016132ca565b92505060606139ef87828801613963565b91505092959194509250565b613a04816132a9565b82525050565b6000819050919050565b6000613a2f613a2a613a25846131fb565b613a0a565b6131fb565b9050919050565b6000613a4182613a14565b9050919050565b6000613a5382613a36565b9050919050565b613a6381613a48565b82525050565b613a728161321b565b82525050565b61010082016000820151613a8f60008501826139fb565b506020820151613aa26020850182613a5a565b506040820151613ab56040850182613a5a565b506060820151613ac86060850182613a69565b506080820151613adb6080850182613a69565b5060a0820151613aee60a08501826139fb565b5060c0820151613b0160c08501826139fb565b5060e0820151613b1460e08501826139fb565b50505050565b600061010082019050613b306000830184613a78565b92915050565b600060208284031215613b4c57613b4b6131f1565b5b6000613b5a8482850161355e565b91505092915050565b600082825260208201905092915050565b7f63616e206e6f74207472616e7366657220746f2073656c660000000000000000600082015250565b6000613baa601883613b63565b9150613bb582613b74565b602082019050919050565b60006020820190508181036000830152613bd981613b9d565b9050919050565b7f6e6f7420656e6f75676820746f6b656e2062616c616e63650000000000000000600082015250565b6000613c16601883613b63565b9150613c2182613be0565b602082019050919050565b60006020820190508181036000830152613c4581613c09565b9050919050565b600081519050613c5b816132b3565b92915050565b600060208284031215613c7757613c766131f1565b5b6000613c8584828501613c4c565b91505092915050565b6000613c9982613a36565b9050919050565b613ca981613c8e565b82525050565b6000604082019050613cc46000830185613ca0565b613cd1602083018461351d565b9392505050565b600081519050613ce78161394c565b92915050565b600060208284031215613d0357613d026131f1565b5b6000613d1184828501613cd8565b91505092915050565b7f6c747620526174696f732043616e206e6f74204265205a65726f000000000000600082015250565b6000613d50601a83613b63565b9150613d5b82613d1a565b602082019050919050565b60006020820190508181036000830152613d7f81613d43565b9050919050565b7f436f6e666967206e6f7420657869737400000000000000000000000000000000600082015250565b6000613dbc601083613b63565b9150613dc782613d86565b602082019050919050565b60006020820190508181036000830152613deb81613daf565b9050919050565b600081519050919050565b60005b83811015613e1b578082015181840152602081019050613e00565b83811115613e2a576000848401525b50505050565b6000613e3b82613df2565b613e458185613b63565b9350613e55818560208601613dfd565b613e5e81613372565b840191505092915050565b60006060820190508181036000830152613e838186613e30565b9050613e92602083018561351d565b613e9f604083018461351d565b949350505050565b7f4f776e61626c653a206e6577206f776e657220697320746865207a65726f206160008201527f6464726573730000000000000000000000000000000000000000000000000000602082015250565b6000613f03602683613b63565b9150613f0e82613ea7565b604082019050919050565b60006020820190508181036000830152613f3281613ef6565b9050919050565b7f73656375726974795472616e736665724f776e657273686970206661696c656460008201527f2e20000000000000000000000000000000000000000000000000000000000000602082015250565b6000613f95602283613b63565b9150613fa082613f39565b604082019050919050565b60006020820190508181036000830152613fc481613f88565b9050919050565b7f536563757269747920636865636b20636f6465206661696c65642e2000000000600082015250565b6000614001601c83613b63565b915061400c82613fcb565b602082019050919050565b6000602082019050818103600083015261403081613ff4565b9050919050565b7f76616c7565206e6f74206368616e676500000000000000000000000000000000600082015250565b600061406d601083613b63565b915061407882614037565b602082019050919050565b6000602082019050818103600083015261409c81614060565b9050919050565b7f4e487b7100000000000000000000000000000000000000000000000000000000600052601160045260246000fd5b60006140dd826132a9565b91506140e8836132a9565b9250827fffffffffffffffffffffffffffffffffffffffffffffffffffffffffffffffff0382111561411d5761411c6140a3565b5b828201905092915050565b6000614133826135cf565b915061413e836135cf565b9250827f7fffffffffffffffffffffffffffffffffffffffffffffffffffffffffffffff048211600084136000841316161561417d5761417c6140a3565b5b817f800000000000000000000000000000000000000000000000000000000000000005831260008412600084131616156141ba576141b96140a3565b5b827f800000000000000000000000000000000000000000000000000000000000000005821260008413600084121616156141f7576141f66140a3565b5b827f7fffffffffffffffffffffffffffffffffffffffffffffffffffffffffffffff0582126000841260008412161615614234576142336140a3565b5b828202905092915050565b600061424a826132a9565b9150614255836132a9565b925082821015614268576142676140a3565b5b828203905092915050565b6000608082019050818103600083015261428d8187613e30565b905061429c602083018661351d565b6142a9604083018561351d565b6142b6606083018461351d565b95945050505050565b7f7365745365637572697479436f6465206661696c65642e200000000000000000600082015250565b60006142f5601883613b63565b9150614300826142bf565b602082019050919050565b60006020820190508181036000830152614324816142e8565b9050919050565b600081519050919050565b600081905092915050565b600061434c8261432b565b6143568185614336565b9350614366818560208601613dfd565b80840191505092915050565b600061437e8285614341565b915061438a8284614341565b91508190509392505050565b7f45786368616e676520526174652043616e206e6f74204265205a65726f000000600082015250565b60006143cc601d83613b63565b91506143d782614396565b602082019050919050565b600060208201905081810360008301526143fb816143bf565b9050919050565b7f45786368616e676520526174652069732053616d650000000000000000000000600082015250565b6000614438601583613b63565b915061444382614402565b602082019050919050565b600060208201905081810360008301526144678161442b565b9050919050565b600060408201905081810360008301526144888185613e30565b9050614497602083018461351d565b9392505050565b7f736f7572636520546f6b656e206d75737420436f6e7472616374000000000000600082015250565b60006144d4601a83613b63565b91506144df8261449e565b602082019050919050565b60006020820190508181036000830152614503816144c7565b9050919050565b7f736f75726365546f6b656e20697320696e76616c696400000000000000000000600082015250565b6000614540601683613b63565b915061454b8261450a565b602082019050919050565b6000602082019050818103600083015261456f81614533565b9050919050565b600060608201905061458b600083018661380f565b6145986020830185613ca0565b6145a5604083018461351d565b949350505050565b7f496e697469616c697a61626c653a20636f6e747261637420697320616c72656160008201527f647920696e697469616c697a6564000000000000000000000000000000000000602082015250565b6000614609602e83613b63565b9150614614826145ad565b604082019050919050565b60006020820190508181036000830152614638816145fc565b9050919050565b6000819050919050565b600060ff82169050919050565b600061467161466c6146678461463f565b613a0a565b614649565b9050919050565b61468181614656565b82525050565b600060208201905061469c6000830184614678565b92915050565b7f736f7572636520546f6b656e20436f6e7472616374206e6f7420736574000000600082015250565b60006146d8601d83613b63565b91506146e3826146a2565b602082019050919050565b60006020820190508181036000830152614707816146cb565b9050919050565b7f74617267657420546f6b656e20436f6e7472616374206e6f7420736574000000600082015250565b6000614744601d83613b63565b915061474f8261470e565b602082019050919050565b6000602082019050818103600083015261477381614737565b9050919050565b61478381613a48565b82525050565b60006101208201905081810360008301526147a4818c613e30565b90506147b3602083018b61351d565b6147c0604083018a61477a565b6147cd606083018961477a565b6147da608083018861380f565b6147e760a083018761380f565b6147f460c083018661351d565b61480160e083018561351d565b61480f61010083018461351d565b9a9950505050505050505050565b7f616d6f756e74206973206f7574206f66206d6178000000000000000000000000600082015250565b6000614853601483613b63565b915061485e8261481d565b602082019050919050565b6000602082019050818103600083015261488281614846565b9050919050565b6000614894826132a9565b915061489f836132a9565b9250817fffffffffffffffffffffffffffffffffffffffffffffffffffffffffffffffff04831182151516156148d8576148d76140a3565b5b828202905092915050565b7f4e487b7100000000000000000000000000000000000000000000000000000000600052601260045260246000fd5b600061491d826132a9565b9150614928836132a9565b925082614938576149376148e3565b5b828204905092915050565b7f616d6f756e7420697320696e76616c6964000000000000000000000000000000600082015250565b6000614979601183613b63565b915061498482614943565b602082019050919050565b600060208201905081810360008301526149a88161496c565b9050919050565b7f6e6f7420656e6f75676820626f72726f77206665650000000000000000000000600082015250565b60006149e5601583613b63565b91506149f0826149af565b602082019050919050565b60006020820190508181036000830152614a14816149d8565b9050919050565b7f6e6f7420656e6f75676820736f7572636520746f6b656e2062616c616e636500600082015250565b6000614a51601f83613b63565b9150614a5c82614a1b565b602082019050919050565b60006020820190508181036000830152614a8081614a44565b9050919050565b7f6e6f7420656e6f7567682074617267657420746f6b656e2062616c616e636500600082015250565b6000614abd601f83613b63565b9150614ac882614a87565b602082019050919050565b60006020820190508181036000830152614aec81614ab0565b9050919050565b7f63616e206e6f7420626f72726f772066726f6d2073656c660000000000000000600082015250565b6000614b29601883613b63565b9150614b3482614af3565b602082019050919050565b60006020820190508181036000830152614b5881614b1c565b9050919050565b6000606082019050614b74600083018661380f565b614b81602083018561380f565b614b8e604083018461351d565b949350505050565b7f4f776e61626c653a2063616c6c6572206973206e6f7420746865206f776e6572600082015250565b6000614bcc602083613b63565b9150614bd782614b96565b602082019050919050565b60006020820190508181036000830152614bfb81614bbf565b9050919050565b600060c0820190508181036000830152614c1c8189613e30565b9050614c2b602083018861351d565b614c38604083018761351d565b614c45606083018661351d565b614c52608083018561351d565b614c5f60a083018461333e565b979650505050505050565b7f65786368616e6765526174652063616e206e6f74206265203000000000000000600082015250565b6000614ca0601983613b63565b9150614cab82614c6a565b602082019050919050565b60006020820190508181036000830152614ccf81614c93565b9050919050565b7f63616e206e6f74207061796261636b2066726f6d2073656c6600000000000000600082015250565b6000614d0c601983613b63565b9150614d1782614cd6565b602082019050919050565b60006020820190508181036000830152614d3b81614cff565b9050919050565b600060a0820190508181036000830152614d5c8188613e30565b9050614d6b602083018761351d565b614d78604083018661351d565b614d85606083018561351d565b614d92608083018461333e565b9695505050505050565b7f536563757269747920636865636b206661696c65642e204e656564205365637560008201527f7269747920436f64650000000000000000000000000000000000000000000000602082015250565b6000614df8602983613b63565b9150614e0382614d9c565b604082019050919050565b60006020820190508181036000830152614e2781614deb565b9050919050565b7f496e697469616c697a61626c653a20636f6e7472616374206973206e6f74206960008201527f6e697469616c697a696e67000000000000000000000000000000000000000000602082015250565b6000614e8a602b83613b63565b9150614e9582614e2e565b604082019050919050565b60006020820190508181036000830152614eb981614e7d565b905091905056fea264697066735822122067289297b92a0e71a4011d938d85dfd62788dc8990e652c493c64cf9d31e237b64736f6c63430008090033",
  "linkReferences": {},
  "deployedLinkReferences": {}
}