{
  "_format": "hh-sol-artifact-1",
  "contractName": "GameBanker",
  "sourceName": "contracts/GameBanker.sol",
  "abi": [
    {
      "anonymous": false,
      "inputs": [
        {
          "indexed": false,
          "internalType": "uint8",
          "name": "version",
          "type": "uint8"
        }
      ],
      "name": "Initialized",
      "type": "event"
    },
    {
      "anonymous": false,
      "inputs": [
        {
          "indexed": true,
          "internalType": "address",
          "name": "spender",
          "type": "address"
        },
        {
          "indexed": false,
          "internalType": "uint256",
          "name": "gameType",
          "type": "uint256"
        },
        {
          "indexed": false,
          "internalType": "uint256",
          "name": "betRate",
          "type": "uint256"
        },
        {
          "indexed": false,
          "internalType": "uint256",
          "name": "value",
          "type": "uint256"
        }
      ],
      "name": "OnUserBetAmount",
      "type": "event"
    },
    {
      "anonymous": false,
      "inputs": [
        {
          "indexed": true,
          "internalType": "address",
          "name": "previousOwner",
          "type": "address"
        },
        {
          "indexed": true,
          "internalType": "address",
          "name": "newOwner",
          "type": "address"
        }
      ],
      "name": "OwnershipTransferred",
      "type": "event"
    },
    {
      "inputs": [
        {
          "internalType": "address",
          "name": "account",
          "type": "address"
        }
      ],
      "name": "balanceOf",
      "outputs": [
        {
          "internalType": "uint256",
          "name": "",
          "type": "uint256"
        }
      ],
      "stateMutability": "view",
      "type": "function"
    },
    {
      "inputs": [
        {
          "internalType": "uint256",
          "name": "gameType",
          "type": "uint256"
        },
        {
          "internalType": "uint256",
          "name": "amount",
          "type": "uint256"
        }
      ],
      "name": "betToGame",
      "outputs": [
        {
          "internalType": "bool",
          "name": "",
          "type": "bool"
        }
      ],
      "stateMutability": "nonpayable",
      "type": "function"
    },
    {
      "inputs": [],
      "name": "getBetToken",
      "outputs": [
        {
          "internalType": "address",
          "name": "",
          "type": "address"
        }
      ],
      "stateMutability": "view",
      "type": "function"
    },
    {
      "inputs": [],
      "name": "getFreezeBalance",
      "outputs": [
        {
          "internalType": "uint256",
          "name": "",
          "type": "uint256"
        }
      ],
      "stateMutability": "view",
      "type": "function"
    },
    {
      "inputs": [
        {
          "internalType": "uint256",
          "name": "gameType",
          "type": "uint256"
        }
      ],
      "name": "getGameBetRate",
      "outputs": [
        {
          "internalType": "uint256",
          "name": "",
          "type": "uint256"
        }
      ],
      "stateMutability": "view",
      "type": "function"
    },
    {
      "inputs": [],
      "name": "getJackpotPool",
      "outputs": [
        {
          "internalType": "address",
          "name": "",
          "type": "address"
        }
      ],
      "stateMutability": "view",
      "type": "function"
    },
    {
      "inputs": [
        {
          "internalType": "contract IERC20Upgradeable",
          "name": "_betToken",
          "type": "address"
        }
      ],
      "name": "initialize",
      "outputs": [],
      "stateMutability": "nonpayable",
      "type": "function"
    },
    {
      "inputs": [],
      "name": "owner",
      "outputs": [
        {
          "internalType": "address",
          "name": "",
          "type": "address"
        }
      ],
      "stateMutability": "view",
      "type": "function"
    },
    {
      "inputs": [],
      "name": "renounceOwnership",
      "outputs": [],
      "stateMutability": "nonpayable",
      "type": "function"
    },
    {
      "inputs": [
        {
          "internalType": "contract IERC20Upgradeable",
          "name": "_betToken",
          "type": "address"
        }
      ],
      "name": "setBetToken",
      "outputs": [
        {
          "internalType": "bool",
          "name": "",
          "type": "bool"
        }
      ],
      "stateMutability": "nonpayable",
      "type": "function"
    },
    {
      "inputs": [
        {
          "internalType": "uint256",
          "name": "freezeValue",
          "type": "uint256"
        }
      ],
      "name": "setFreezeBalance",
      "outputs": [
        {
          "internalType": "bool",
          "name": "",
          "type": "bool"
        }
      ],
      "stateMutability": "nonpayable",
      "type": "function"
    },
    {
      "inputs": [
        {
          "internalType": "uint256",
          "name": "gameType",
          "type": "uint256"
        },
        {
          "internalType": "uint256",
          "name": "newRate",
          "type": "uint256"
        }
      ],
      "name": "setGameBetRate",
      "outputs": [
        {
          "internalType": "bool",
          "name": "",
          "type": "bool"
        }
      ],
      "stateMutability": "nonpayable",
      "type": "function"
    },
    {
      "inputs": [
        {
          "internalType": "address",
          "name": "poolAddr",
          "type": "address"
        }
      ],
      "name": "setJackpotPool",
      "outputs": [
        {
          "internalType": "bool",
          "name": "",
          "type": "bool"
        }
      ],
      "stateMutability": "nonpayable",
      "type": "function"
    },
    {
      "inputs": [
        {
          "internalType": "address",
          "name": "receiver",
          "type": "address"
        },
        {
          "internalType": "uint256",
          "name": "amount",
          "type": "uint256"
        }
      ],
      "name": "takeoutJackpotProfit",
      "outputs": [
        {
          "internalType": "bool",
          "name": "",
          "type": "bool"
        }
      ],
      "stateMutability": "nonpayable",
      "type": "function"
    },
    {
      "inputs": [
        {
          "internalType": "address",
          "name": "newOwner",
          "type": "address"
        }
      ],
      "name": "transferOwnership",
      "outputs": [],
      "stateMutability": "nonpayable",
      "type": "function"
    },
    {
      "inputs": [
        {
          "internalType": "uint256",
          "name": "amount",
          "type": "uint256"
        }
      ],
      "name": "transferToJackpot",
      "outputs": [
        {
          "internalType": "bool",
          "name": "",
          "type": "bool"
        }
      ],
      "stateMutability": "nonpayable",
      "type": "function"
    }
  ],
  "bytecode": "0x608060405234801561001057600080fd5b50611fe8806100206000396000f3fe608060405234801561001057600080fd5b50600436106101005760003560e01c8063bb64578611610097578063f13e94bb11610066578063f13e94bb146102d5578063f2fde38b146102f3578063fddda1e91461030f578063ffa5a1001461033f57610100565b8063bb6457861461023b578063c4d66de814610259578063cd1b6c8614610275578063f0df82d1146102a557610100565b8063715018a6116100d3578063715018a6146101b3578063843ddc0b146101bd5780638da5cb5b146101ed5780638eedacf51461020b57610100565b80630a51c4cc1461010557806327181eed14610135578063332fe13e1461016557806370a0823114610183575b600080fd5b61011f600480360381019061011a9190611499565b61036f565b60405161012c91906114d5565b60405180910390f35b61014f600480360381019061014a9190611499565b61038c565b60405161015c919061150b565b60405180910390f35b61016d610553565b60405161017a91906114d5565b60405180910390f35b61019d60048036038101906101989190611584565b61055d565b6040516101aa91906114d5565b60405180910390f35b6101bb610611565b005b6101d760048036038101906101d291906115ef565b610625565b6040516101e4919061150b565b60405180910390f35b6101f5610679565b604051610202919061162b565b60405180910390f35b61022560048036038101906102209190611646565b6106a3565b604051610232919061150b565b60405180910390f35b6102436109be565b604051610250919061162b565b60405180910390f35b610273600480360381019061026e91906115ef565b6109e8565b005b61028f600480360381019061028a9190611686565b610c5d565b60405161029c919061150b565b60405180910390f35b6102bf60048036038101906102ba9190611584565b611027565b6040516102cc919061150b565b60405180910390f35b6102dd6110eb565b6040516102ea919061162b565b60405180910390f35b61030d60048036038101906103089190611584565b611115565b005b61032960048036038101906103249190611686565b611199565b604051610336919061150b565b60405180910390f35b61035960048036038101906103549190611499565b61121b565b604051610366919061150b565b60405180910390f35b600060686000838152602001908152602001600020549050919050565b600080610397611235565b90506000606760009054906101000a900473ffffffffffffffffffffffffffffffffffffffff1690508073ffffffffffffffffffffffffffffffffffffffff168273ffffffffffffffffffffffffffffffffffffffff16141561042f576040517f08c379a000000000000000000000000000000000000000000000000000000000815260040161042690611723565b60405180910390fd5b61045a606660009054906101000a900473ffffffffffffffffffffffffffffffffffffffff1661123d565b610499576040517f08c379a00000000000000000000000000000000000000000000000000000000081526004016104909061178f565b60405180910390fd5b606660009054906101000a900473ffffffffffffffffffffffffffffffffffffffff1673ffffffffffffffffffffffffffffffffffffffff166323b872dd8383876040518463ffffffff1660e01b81526004016104f8939291906117af565b602060405180830381600087803b15801561051257600080fd5b505af1158015610526573d6000803e3d6000fd5b505050506040513d601f19601f8201168201806040525081019061054a9190611812565b92505050919050565b6000606554905090565b6000606660009054906101000a900473ffffffffffffffffffffffffffffffffffffffff1673ffffffffffffffffffffffffffffffffffffffff166370a08231836040518263ffffffff1660e01b81526004016105ba919061162b565b60206040518083038186803b1580156105d257600080fd5b505afa1580156105e6573d6000803e3d6000fd5b505050506040513d601f19601f8201168201806040525081019061060a9190611854565b9050919050565b610619611260565b61062360006112de565b565b600061062f611260565b81606660006101000a81548173ffffffffffffffffffffffffffffffffffffffff021916908373ffffffffffffffffffffffffffffffffffffffff16021790555060019050919050565b6000603360009054906101000a900473ffffffffffffffffffffffffffffffffffffffff16905090565b60006106ad611260565b6000606760009054906101000a900473ffffffffffffffffffffffffffffffffffffffff1690506000606660009054906101000a900473ffffffffffffffffffffffffffffffffffffffff1673ffffffffffffffffffffffffffffffffffffffff166370a08231836040518263ffffffff1660e01b8152600401610731919061162b565b60206040518083038186803b15801561074957600080fd5b505afa15801561075d573d6000803e3d6000fd5b505050506040513d601f19601f820116820180604052508101906107819190611854565b9050838110156107c6576040517f08c379a00000000000000000000000000000000000000000000000000000000081526004016107bd906118cd565b60405180910390fd5b606554846107d4919061191c565b811015610816576040517f08c379a000000000000000000000000000000000000000000000000000000000815260040161080d906119e4565b60405180910390fd5b3073ffffffffffffffffffffffffffffffffffffffff168273ffffffffffffffffffffffffffffffffffffffff16141561090257606660009054906101000a900473ffffffffffffffffffffffffffffffffffffffff1673ffffffffffffffffffffffffffffffffffffffff1663a9059cbb86866040518363ffffffff1660e01b81526004016108a7929190611a04565b602060405180830381600087803b1580156108c157600080fd5b505af11580156108d5573d6000803e3d6000fd5b505050506040513d601f19601f820116820180604052508101906108f99190611812565b925050506109b8565b606660009054906101000a900473ffffffffffffffffffffffffffffffffffffffff1673ffffffffffffffffffffffffffffffffffffffff166323b872dd8387876040518463ffffffff1660e01b8152600401610961939291906117af565b602060405180830381600087803b15801561097b57600080fd5b505af115801561098f573d6000803e3d6000fd5b505050506040513d601f19601f820116820180604052508101906109b39190611812565b925050505b92915050565b6000606660009054906101000a900473ffffffffffffffffffffffffffffffffffffffff16905090565b60008060019054906101000a900460ff16159050808015610a195750600160008054906101000a900460ff1660ff16105b80610a465750610a283061123d565b158015610a455750600160008054906101000a900460ff1660ff16145b5b610a85576040517f08c379a0000000000000000000000000000000000000000000000000000000008152600401610a7c90611a9f565b60405180910390fd5b60016000806101000a81548160ff021916908360ff1602179055508015610ac2576001600060016101000a81548160ff0219169083151502179055505b81606660006101000a81548173ffffffffffffffffffffffffffffffffffffffff021916908373ffffffffffffffffffffffffffffffffffffffff160217905550610b0b6113a4565b614c2c6068600060016004811115610b2657610b25611abf565b5b815260200190815260200160002081905550614c2c6068600060026004811115610b5357610b52611abf565b5b815260200190815260200160002081905550620186a06068600060036004811115610b8157610b80611abf565b5b815260200190815260200160002081905550614c2c60686000600480811115610bad57610bac611abf565b5b81526020019081526020016000208190555030606760006101000a81548173ffffffffffffffffffffffffffffffffffffffff021916908373ffffffffffffffffffffffffffffffffffffffff1602179055508015610c595760008060016101000a81548160ff0219169083151502179055507f7f26b83ff96e1f2b6a682f133852f6798a09c465da95921460cefb38474024986001604051610c509190611b40565b60405180910390a15b5050565b600080610c68611235565b90506000606660009054906101000a900473ffffffffffffffffffffffffffffffffffffffff1673ffffffffffffffffffffffffffffffffffffffff166370a08231836040518263ffffffff1660e01b8152600401610cc7919061162b565b60206040518083038186803b158015610cdf57600080fd5b505afa158015610cf3573d6000803e3d6000fd5b505050506040513d601f19601f82011682018060405250810190610d179190611854565b905083811015610d5c576040517f08c379a0000000000000000000000000000000000000000000000000000000008152600401610d53906118cd565b60405180910390fd5b6000606760009054906101000a900473ffffffffffffffffffffffffffffffffffffffff1690506000606660009054906101000a900473ffffffffffffffffffffffffffffffffffffffff1673ffffffffffffffffffffffffffffffffffffffff166370a08231836040518263ffffffff1660e01b8152600401610de0919061162b565b60206040518083038186803b158015610df857600080fd5b505afa158015610e0c573d6000803e3d6000fd5b505050506040513d601f19601f82011682018060405250810190610e309190611854565b905060006068600089815260200190815260200160002054905060008111610e8d576040517f08c379a0000000000000000000000000000000000000000000000000000000008152600401610e8490611ba7565b60405180910390fd5b60006127108289610e9e9190611bc7565b610ea89190611c50565b905060655481610eb8919061191c565b831015610efa576040517f08c379a0000000000000000000000000000000000000000000000000000000008152600401610ef190611ccd565b60405180910390fd5b606660009054906101000a900473ffffffffffffffffffffffffffffffffffffffff1673ffffffffffffffffffffffffffffffffffffffff166323b872dd87868b6040518463ffffffff1660e01b8152600401610f59939291906117af565b602060405180830381600087803b158015610f7357600080fd5b505af1158015610f87573d6000803e3d6000fd5b505050506040513d601f19601f82011682018060405250810190610fab9190611812565b508060656000828254610fbe919061191c565b925050819055508573ffffffffffffffffffffffffffffffffffffffff167fa6c1f0ae41baee92e44f92b19e91b4f8d1b25145c530a7069867b117f401b8b58a848b60405161100f93929190611ced565b60405180910390a26001965050505050505092915050565b6000611031611260565b600073ffffffffffffffffffffffffffffffffffffffff168273ffffffffffffffffffffffffffffffffffffffff1614156110a1576040517f08c379a000000000000000000000000000000000000000000000000000000000815260040161109890611d96565b60405180910390fd5b81606760006101000a81548173ffffffffffffffffffffffffffffffffffffffff021916908373ffffffffffffffffffffffffffffffffffffffff16021790555060019050919050565b6000606760009054906101000a900473ffffffffffffffffffffffffffffffffffffffff16905090565b61111d611260565b600073ffffffffffffffffffffffffffffffffffffffff168173ffffffffffffffffffffffffffffffffffffffff16141561118d576040517f08c379a000000000000000000000000000000000000000000000000000000000815260040161118490611e28565b60405180910390fd5b611196816112de565b50565b60006111a3611260565b81606860008581526020019081526020016000205414156111f9576040517f08c379a00000000000000000000000000000000000000000000000000000000081526004016111f090611e94565b60405180910390fd5b8160686000858152602001908152602001600020819055506001905092915050565b6000611225611260565b8160658190555060019050919050565b600033905090565b6000808273ffffffffffffffffffffffffffffffffffffffff163b119050919050565b611268611235565b73ffffffffffffffffffffffffffffffffffffffff16611286610679565b73ffffffffffffffffffffffffffffffffffffffff16146112dc576040517f08c379a00000000000000000000000000000000000000000000000000000000081526004016112d390611f00565b60405180910390fd5b565b6000603360009054906101000a900473ffffffffffffffffffffffffffffffffffffffff16905081603360006101000a81548173ffffffffffffffffffffffffffffffffffffffff021916908373ffffffffffffffffffffffffffffffffffffffff1602179055508173ffffffffffffffffffffffffffffffffffffffff168173ffffffffffffffffffffffffffffffffffffffff167f8be0079c531659141344cd1fd0a4f28419497f9722a3daafe3b4186f6b6457e060405160405180910390a35050565b600060019054906101000a900460ff166113f3576040517f08c379a00000000000000000000000000000000000000000000000000000000081526004016113ea90611f92565b60405180910390fd5b6113fb6113fd565b565b600060019054906101000a900460ff1661144c576040517f08c379a000000000000000000000000000000000000000000000000000000000815260040161144390611f92565b60405180910390fd5b61145c611457611235565b6112de565b565b600080fd5b6000819050919050565b61147681611463565b811461148157600080fd5b50565b6000813590506114938161146d565b92915050565b6000602082840312156114af576114ae61145e565b5b60006114bd84828501611484565b91505092915050565b6114cf81611463565b82525050565b60006020820190506114ea60008301846114c6565b92915050565b60008115159050919050565b611505816114f0565b82525050565b600060208201905061152060008301846114fc565b92915050565b600073ffffffffffffffffffffffffffffffffffffffff82169050919050565b600061155182611526565b9050919050565b61156181611546565b811461156c57600080fd5b50565b60008135905061157e81611558565b92915050565b60006020828403121561159a5761159961145e565b5b60006115a88482850161156f565b91505092915050565b60006115bc82611546565b9050919050565b6115cc816115b1565b81146115d757600080fd5b50565b6000813590506115e9816115c3565b92915050565b6000602082840312156116055761160461145e565b5b6000611613848285016115da565b91505092915050565b61162581611546565b82525050565b6000602082019050611640600083018461161c565b92915050565b6000806040838503121561165d5761165c61145e565b5b600061166b8582860161156f565b925050602061167c85828601611484565b9150509250929050565b6000806040838503121561169d5761169c61145e565b5b60006116ab85828601611484565b92505060206116bc85828601611484565b9150509250929050565b600082825260208201905092915050565b7f63616e206e6f74207472616e736665722066726f6d2073656c66000000000000600082015250565b600061170d601a836116c6565b9150611718826116d7565b602082019050919050565b6000602082019050818103600083015261173c81611700565b9050919050565b7f746f6b656e20436f6e7472616374206e6f742073657400000000000000000000600082015250565b60006117796016836116c6565b915061178482611743565b602082019050919050565b600060208201905081810360008301526117a88161176c565b9050919050565b60006060820190506117c4600083018661161c565b6117d1602083018561161c565b6117de60408301846114c6565b949350505050565b6117ef816114f0565b81146117fa57600080fd5b50565b60008151905061180c816117e6565b92915050565b6000602082840312156118285761182761145e565b5b6000611836848285016117fd565b91505092915050565b60008151905061184e8161146d565b92915050565b60006020828403121561186a5761186961145e565b5b60006118788482850161183f565b91505092915050565b7f6e6f7420656e6f75676820746f6b656e2062616c616e63650000000000000000600082015250565b60006118b76018836116c6565b91506118c282611881565b602082019050919050565b600060208201905081810360008301526118e6816118aa565b9050919050565b7f4e487b7100000000000000000000000000000000000000000000000000000000600052601160045260246000fd5b600061192782611463565b915061193283611463565b9250827fffffffffffffffffffffffffffffffffffffffffffffffffffffffffffffffff03821115611967576119666118ed565b5b828201905092915050565b7f6a61636b706f742074616b656f7574206f6620667265657a6542616c616e636560008201527f2e20000000000000000000000000000000000000000000000000000000000000602082015250565b60006119ce6022836116c6565b91506119d982611972565b604082019050919050565b600060208201905081810360008301526119fd816119c1565b9050919050565b6000604082019050611a19600083018561161c565b611a2660208301846114c6565b9392505050565b7f496e697469616c697a61626c653a20636f6e747261637420697320616c72656160008201527f647920696e697469616c697a6564000000000000000000000000000000000000602082015250565b6000611a89602e836116c6565b9150611a9482611a2d565b604082019050919050565b60006020820190508181036000830152611ab881611a7c565b9050919050565b7f4e487b7100000000000000000000000000000000000000000000000000000000600052602160045260246000fd5b6000819050919050565b600060ff82169050919050565b6000819050919050565b6000611b2a611b25611b2084611aee565b611b05565b611af8565b9050919050565b611b3a81611b0f565b82525050565b6000602082019050611b556000830184611b31565b92915050565b7f6265745261746520706172616d206572726f7200000000000000000000000000600082015250565b6000611b916013836116c6565b9150611b9c82611b5b565b602082019050919050565b60006020820190508181036000830152611bc081611b84565b9050919050565b6000611bd282611463565b9150611bdd83611463565b9250817fffffffffffffffffffffffffffffffffffffffffffffffffffffffffffffffff0483118215151615611c1657611c156118ed565b5b828202905092915050565b7f4e487b7100000000000000000000000000000000000000000000000000000000600052601260045260246000fd5b6000611c5b82611463565b9150611c6683611463565b925082611c7657611c75611c21565b5b828204905092915050565b7f6a61636b706f74206e6f7420656e6f7567682062616c616e63652e2000000000600082015250565b6000611cb7601c836116c6565b9150611cc282611c81565b602082019050919050565b60006020820190508181036000830152611ce681611caa565b9050919050565b6000606082019050611d0260008301866114c6565b611d0f60208301856114c6565b611d1c60408301846114c6565b949350505050565b7f7365744a61636b706f74506f6f6c20746f20746865207a65726f20616464726560008201527f7373000000000000000000000000000000000000000000000000000000000000602082015250565b6000611d806022836116c6565b9150611d8b82611d24565b604082019050919050565b60006020820190508181036000830152611daf81611d73565b9050919050565b7f4f776e61626c653a206e6577206f776e657220697320746865207a65726f206160008201527f6464726573730000000000000000000000000000000000000000000000000000602082015250565b6000611e126026836116c6565b9150611e1d82611db6565b604082019050919050565b60006020820190508181036000830152611e4181611e05565b9050919050565b7f73657447616d6542657452617465206661696c65642e20000000000000000000600082015250565b6000611e7e6017836116c6565b9150611e8982611e48565b602082019050919050565b60006020820190508181036000830152611ead81611e71565b9050919050565b7f4f776e61626c653a2063616c6c6572206973206e6f7420746865206f776e6572600082015250565b6000611eea6020836116c6565b9150611ef582611eb4565b602082019050919050565b60006020820190508181036000830152611f1981611edd565b9050919050565b7f496e697469616c697a61626c653a20636f6e7472616374206973206e6f74206960008201527f6e697469616c697a696e67000000000000000000000000000000000000000000602082015250565b6000611f7c602b836116c6565b9150611f8782611f20565b604082019050919050565b60006020820190508181036000830152611fab81611f6f565b905091905056fea264697066735822122051212ab17f755938c50cc20b0f7aaf65aa8c168d192f1ca9c85862146a4cbe2a64736f6c63430008090033",
  "linkReferences": {},
  "deployedLinkReferences": {}
}