{
  "_format": "hh-sol-artifact-1",
  "contractName": "GenesisRobot",
  "sourceName": "contracts/GenesisRobot.sol",
  "abi": [
    {
      "inputs": [],
      "name": "AddressNotContract",
      "type": "error"
    },
    {
      "inputs": [],
      "name": "MintReachingTimeLimit",
      "type": "error"
    },
    {
      "inputs": [],
      "name": "NotEnoughBalance",
      "type": "error"
    },
    {
      "inputs": [],
      "name": "SecurityCheckCodeFailed",
      "type": "error"
    },
    {
      "inputs": [],
      "name": "SecurityCheckFailed",
      "type": "error"
    },
    {
      "inputs": [],
      "name": "SecurityTransferFailed",
      "type": "error"
    },
    {
      "inputs": [],
      "name": "TransferToSelf",
      "type": "error"
    },
    {
      "inputs": [],
      "name": "Unauthorized",
      "type": "error"
    },
    {
      "inputs": [],
      "name": "UseZeroAddress",
      "type": "error"
    },
    {
      "inputs": [],
      "name": "WaitForPublic",
      "type": "error"
    },
    {
      "anonymous": false,
      "inputs": [
        {
          "indexed": false,
          "internalType": "address",
          "name": "_user",
          "type": "address"
        }
      ],
      "name": "AddedBlackList",
      "type": "event"
    },
    {
      "anonymous": false,
      "inputs": [
        {
          "indexed": false,
          "internalType": "address",
          "name": "_user",
          "type": "address"
        }
      ],
      "name": "AddedMintWhiteList",
      "type": "event"
    },
    {
      "anonymous": false,
      "inputs": [
        {
          "indexed": true,
          "internalType": "address",
          "name": "owner",
          "type": "address"
        },
        {
          "indexed": true,
          "internalType": "address",
          "name": "approved",
          "type": "address"
        },
        {
          "indexed": true,
          "internalType": "uint256",
          "name": "tokenId",
          "type": "uint256"
        }
      ],
      "name": "Approval",
      "type": "event"
    },
    {
      "anonymous": false,
      "inputs": [
        {
          "indexed": true,
          "internalType": "address",
          "name": "owner",
          "type": "address"
        },
        {
          "indexed": true,
          "internalType": "address",
          "name": "operator",
          "type": "address"
        },
        {
          "indexed": false,
          "internalType": "bool",
          "name": "approved",
          "type": "bool"
        }
      ],
      "name": "ApprovalForAll",
      "type": "event"
    },
    {
      "anonymous": false,
      "inputs": [
        {
          "indexed": false,
          "internalType": "uint8",
          "name": "version",
          "type": "uint8"
        }
      ],
      "name": "Initialized",
      "type": "event"
    },
    {
      "anonymous": false,
      "inputs": [
        {
          "indexed": true,
          "internalType": "address",
          "name": "previousOwner",
          "type": "address"
        },
        {
          "indexed": true,
          "internalType": "address",
          "name": "newOwner",
          "type": "address"
        }
      ],
      "name": "OwnershipTransferred",
      "type": "event"
    },
    {
      "anonymous": false,
      "inputs": [
        {
          "indexed": false,
          "internalType": "address",
          "name": "_user",
          "type": "address"
        }
      ],
      "name": "RemovedBlackList",
      "type": "event"
    },
    {
      "anonymous": false,
      "inputs": [
        {
          "indexed": false,
          "internalType": "address",
          "name": "_user",
          "type": "address"
        }
      ],
      "name": "RemovedMintWhiteList",
      "type": "event"
    },
    {
      "anonymous": false,
      "inputs": [
        {
          "indexed": true,
          "internalType": "address",
          "name": "from",
          "type": "address"
        },
        {
          "indexed": true,
          "internalType": "address",
          "name": "to",
          "type": "address"
        },
        {
          "indexed": true,
          "internalType": "uint256",
          "name": "tokenId",
          "type": "uint256"
        }
      ],
      "name": "Transfer",
      "type": "event"
    },
    {
      "inputs": [
        {
          "internalType": "address",
          "name": "_evilUser",
          "type": "address"
        }
      ],
      "name": "addBlackList",
      "outputs": [],
      "stateMutability": "nonpayable",
      "type": "function"
    },
    {
      "inputs": [
        {
          "internalType": "address",
          "name": "_mintUser",
          "type": "address"
        }
      ],
      "name": "addMintWhiteList",
      "outputs": [],
      "stateMutability": "nonpayable",
      "type": "function"
    },
    {
      "inputs": [
        {
          "internalType": "address",
          "name": "to",
          "type": "address"
        },
        {
          "internalType": "uint256",
          "name": "tokenId",
          "type": "uint256"
        }
      ],
      "name": "approve",
      "outputs": [],
      "stateMutability": "nonpayable",
      "type": "function"
    },
    {
      "inputs": [
        {
          "internalType": "address",
          "name": "owner",
          "type": "address"
        }
      ],
      "name": "balanceOf",
      "outputs": [
        {
          "internalType": "uint256",
          "name": "",
          "type": "uint256"
        }
      ],
      "stateMutability": "view",
      "type": "function"
    },
    {
      "inputs": [
        {
          "internalType": "string",
          "name": "a",
          "type": "string"
        },
        {
          "internalType": "string",
          "name": "b",
          "type": "string"
        }
      ],
      "name": "compareStrings",
      "outputs": [
        {
          "internalType": "bool",
          "name": "",
          "type": "bool"
        }
      ],
      "stateMutability": "pure",
      "type": "function"
    },
    {
      "inputs": [],
      "name": "contractURI",
      "outputs": [
        {
          "internalType": "string",
          "name": "",
          "type": "string"
        }
      ],
      "stateMutability": "view",
      "type": "function"
    },
    {
      "inputs": [],
      "name": "dumpSecurityCode",
      "outputs": [
        {
          "internalType": "uint256",
          "name": "",
          "type": "uint256"
        }
      ],
      "stateMutability": "view",
      "type": "function"
    },
    {
      "inputs": [
        {
          "internalType": "uint256",
          "name": "tokenId",
          "type": "uint256"
        }
      ],
      "name": "getApproved",
      "outputs": [
        {
          "internalType": "address",
          "name": "",
          "type": "address"
        }
      ],
      "stateMutability": "view",
      "type": "function"
    },
    {
      "inputs": [
        {
          "internalType": "uint256",
          "name": "lockIndex",
          "type": "uint256"
        }
      ],
      "name": "getBaseLockTime",
      "outputs": [
        {
          "internalType": "bool",
          "name": "",
          "type": "bool"
        },
        {
          "internalType": "uint256",
          "name": "",
          "type": "uint256"
        }
      ],
      "stateMutability": "view",
      "type": "function"
    },
    {
      "inputs": [],
      "name": "getMintFeeBalance",
      "outputs": [
        {
          "internalType": "uint256",
          "name": "",
          "type": "uint256"
        }
      ],
      "stateMutability": "view",
      "type": "function"
    },
    {
      "inputs": [
        {
          "internalType": "address",
          "name": "_maker",
          "type": "address"
        }
      ],
      "name": "getMintWhiteListInfo",
      "outputs": [
        {
          "components": [
            {
              "internalType": "uint16",
              "name": "freeMintCount",
              "type": "uint16"
            },
            {
              "internalType": "uint16",
              "name": "discountMintCount",
              "type": "uint16"
            },
            {
              "internalType": "bool",
              "name": "isInMintWhite",
              "type": "bool"
            },
            {
              "internalType": "bool",
              "name": "isInBlack",
              "type": "bool"
            }
          ],
          "internalType": "struct WhiteList.tagMintInfo",
          "name": "",
          "type": "tuple"
        }
      ],
      "stateMutability": "view",
      "type": "function"
    },
    {
      "inputs": [
        {
          "internalType": "string",
          "name": "strCode",
          "type": "string"
        }
      ],
      "name": "getSecurityCode",
      "outputs": [
        {
          "internalType": "uint256",
          "name": "",
          "type": "uint256"
        }
      ],
      "stateMutability": "view",
      "type": "function"
    },
    {
      "inputs": [],
      "name": "getStage",
      "outputs": [
        {
          "internalType": "uint16",
          "name": "",
          "type": "uint16"
        }
      ],
      "stateMutability": "view",
      "type": "function"
    },
    {
      "inputs": [],
      "name": "getStageThreeMintFee",
      "outputs": [
        {
          "internalType": "uint256",
          "name": "",
          "type": "uint256"
        }
      ],
      "stateMutability": "view",
      "type": "function"
    },
    {
      "inputs": [],
      "name": "getStageTime",
      "outputs": [
        {
          "internalType": "uint32",
          "name": "",
          "type": "uint32"
        }
      ],
      "stateMutability": "view",
      "type": "function"
    },
    {
      "inputs": [],
      "name": "getStageTwoMintFee",
      "outputs": [
        {
          "internalType": "uint256",
          "name": "",
          "type": "uint256"
        }
      ],
      "stateMutability": "view",
      "type": "function"
    },
    {
      "inputs": [],
      "name": "getVersion",
      "outputs": [
        {
          "internalType": "uint32",
          "name": "",
          "type": "uint32"
        }
      ],
      "stateMutability": "view",
      "type": "function"
    },
    {
      "inputs": [],
      "name": "initialize",
      "outputs": [],
      "stateMutability": "nonpayable",
      "type": "function"
    },
    {
      "inputs": [
        {
          "internalType": "address",
          "name": "owner",
          "type": "address"
        },
        {
          "internalType": "address",
          "name": "operator",
          "type": "address"
        }
      ],
      "name": "isApprovedForAll",
      "outputs": [
        {
          "internalType": "bool",
          "name": "",
          "type": "bool"
        }
      ],
      "stateMutability": "view",
      "type": "function"
    },
    {
      "inputs": [
        {
          "internalType": "uint256",
          "name": "tokenId",
          "type": "uint256"
        }
      ],
      "name": "mintNFT",
      "outputs": [
        {
          "internalType": "uint256",
          "name": "",
          "type": "uint256"
        }
      ],
      "stateMutability": "payable",
      "type": "function"
    },
    {
      "inputs": [],
      "name": "name",
      "outputs": [
        {
          "internalType": "string",
          "name": "",
          "type": "string"
        }
      ],
      "stateMutability": "view",
      "type": "function"
    },
    {
      "inputs": [
        {
          "internalType": "address",
          "name": "",
          "type": "address"
        },
        {
          "internalType": "address",
          "name": "",
          "type": "address"
        },
        {
          "internalType": "uint256",
          "name": "",
          "type": "uint256"
        },
        {
          "internalType": "bytes",
          "name": "",
          "type": "bytes"
        }
      ],
      "name": "onERC721Received",
      "outputs": [
        {
          "internalType": "bytes4",
          "name": "",
          "type": "bytes4"
        }
      ],
      "stateMutability": "nonpayable",
      "type": "function"
    },
    {
      "inputs": [],
      "name": "owner",
      "outputs": [
        {
          "internalType": "address",
          "name": "",
          "type": "address"
        }
      ],
      "stateMutability": "view",
      "type": "function"
    },
    {
      "inputs": [
        {
          "internalType": "uint256",
          "name": "tokenId",
          "type": "uint256"
        }
      ],
      "name": "ownerOf",
      "outputs": [
        {
          "internalType": "address",
          "name": "",
          "type": "address"
        }
      ],
      "stateMutability": "view",
      "type": "function"
    },
    {
      "inputs": [
        {
          "internalType": "uint256",
          "name": "lockIndex",
          "type": "uint256"
        }
      ],
      "name": "removeBaseLockTime",
      "outputs": [
        {
          "internalType": "bool",
          "name": "",
          "type": "bool"
        }
      ],
      "stateMutability": "nonpayable",
      "type": "function"
    },
    {
      "inputs": [
        {
          "internalType": "address",
          "name": "_clearedUser",
          "type": "address"
        }
      ],
      "name": "removeBlackList",
      "outputs": [],
      "stateMutability": "nonpayable",
      "type": "function"
    },
    {
      "inputs": [
        {
          "internalType": "address",
          "name": "_clearedUser",
          "type": "address"
        }
      ],
      "name": "removeMintWhiteList",
      "outputs": [],
      "stateMutability": "nonpayable",
      "type": "function"
    },
    {
      "inputs": [],
      "name": "renounceOwnership",
      "outputs": [],
      "stateMutability": "nonpayable",
      "type": "function"
    },
    {
      "inputs": [
        {
          "internalType": "uint256",
          "name": "_tokenId",
          "type": "uint256"
        },
        {
          "internalType": "uint256",
          "name": "_salePrice",
          "type": "uint256"
        }
      ],
      "name": "royaltyInfo",
      "outputs": [
        {
          "internalType": "address",
          "name": "",
          "type": "address"
        },
        {
          "internalType": "uint256",
          "name": "",
          "type": "uint256"
        }
      ],
      "stateMutability": "view",
      "type": "function"
    },
    {
      "inputs": [
        {
          "internalType": "address",
          "name": "from",
          "type": "address"
        },
        {
          "internalType": "address",
          "name": "to",
          "type": "address"
        },
        {
          "internalType": "uint256",
          "name": "tokenId",
          "type": "uint256"
        }
      ],
      "name": "safeTransferFrom",
      "outputs": [],
      "stateMutability": "nonpayable",
      "type": "function"
    },
    {
      "inputs": [
        {
          "internalType": "address",
          "name": "from",
          "type": "address"
        },
        {
          "internalType": "address",
          "name": "to",
          "type": "address"
        },
        {
          "internalType": "uint256",
          "name": "tokenId",
          "type": "uint256"
        },
        {
          "internalType": "bytes",
          "name": "data",
          "type": "bytes"
        }
      ],
      "name": "safeTransferFrom",
      "outputs": [],
      "stateMutability": "nonpayable",
      "type": "function"
    },
    {
      "inputs": [
        {
          "internalType": "address",
          "name": "newOwner",
          "type": "address"
        },
        {
          "internalType": "string",
          "name": "strCode",
          "type": "string"
        }
      ],
      "name": "securityTransferOwnership",
      "outputs": [
        {
          "internalType": "bool",
          "name": "",
          "type": "bool"
        }
      ],
      "stateMutability": "nonpayable",
      "type": "function"
    },
    {
      "inputs": [
        {
          "internalType": "address",
          "name": "newAdmin",
          "type": "address"
        }
      ],
      "name": "setAdmin",
      "outputs": [],
      "stateMutability": "nonpayable",
      "type": "function"
    },
    {
      "inputs": [
        {
          "internalType": "address",
          "name": "operator",
          "type": "address"
        },
        {
          "internalType": "bool",
          "name": "approved",
          "type": "bool"
        }
      ],
      "name": "setApprovalForAll",
      "outputs": [],
      "stateMutability": "nonpayable",
      "type": "function"
    },
    {
      "inputs": [
        {
          "internalType": "uint256",
          "name": "lockIndex",
          "type": "uint256"
        },
        {
          "internalType": "uint256",
          "name": "lockValue",
          "type": "uint256"
        }
      ],
      "name": "setBaseLockTime",
      "outputs": [
        {
          "internalType": "bool",
          "name": "",
          "type": "bool"
        }
      ],
      "stateMutability": "nonpayable",
      "type": "function"
    },
    {
      "inputs": [
        {
          "internalType": "string",
          "name": "strURI",
          "type": "string"
        }
      ],
      "name": "setContractURI",
      "outputs": [],
      "stateMutability": "nonpayable",
      "type": "function"
    },
    {
      "inputs": [
        {
          "internalType": "string",
          "name": "strOldCode",
          "type": "string"
        },
        {
          "internalType": "string",
          "name": "strNewCode",
          "type": "string"
        }
      ],
      "name": "setSecurityCode",
      "outputs": [
        {
          "internalType": "bool",
          "name": "",
          "type": "bool"
        }
      ],
      "stateMutability": "nonpayable",
      "type": "function"
    },
    {
      "inputs": [
        {
          "internalType": "uint256",
          "name": "tokenId",
          "type": "uint256"
        },
        {
          "internalType": "string",
          "name": "_tokenURI",
          "type": "string"
        }
      ],
      "name": "setTokenURI",
      "outputs": [],
      "stateMutability": "nonpayable",
      "type": "function"
    },
    {
      "inputs": [
        {
          "internalType": "bytes4",
          "name": "interfaceId",
          "type": "bytes4"
        }
      ],
      "name": "supportsInterface",
      "outputs": [
        {
          "internalType": "bool",
          "name": "",
          "type": "bool"
        }
      ],
      "stateMutability": "view",
      "type": "function"
    },
    {
      "inputs": [],
      "name": "symbol",
      "outputs": [
        {
          "internalType": "string",
          "name": "",
          "type": "string"
        }
      ],
      "stateMutability": "view",
      "type": "function"
    },
    {
      "inputs": [
        {
          "internalType": "uint256",
          "name": "tokenId",
          "type": "uint256"
        }
      ],
      "name": "tokenURI",
      "outputs": [
        {
          "internalType": "string",
          "name": "",
          "type": "string"
        }
      ],
      "stateMutability": "view",
      "type": "function"
    },
    {
      "inputs": [],
      "name": "totalSupply",
      "outputs": [
        {
          "internalType": "uint256",
          "name": "",
          "type": "uint256"
        }
      ],
      "stateMutability": "view",
      "type": "function"
    },
    {
      "inputs": [
        {
          "internalType": "address",
          "name": "from",
          "type": "address"
        },
        {
          "internalType": "address",
          "name": "to",
          "type": "address"
        },
        {
          "internalType": "uint256",
          "name": "tokenId",
          "type": "uint256"
        }
      ],
      "name": "transferFrom",
      "outputs": [],
      "stateMutability": "nonpayable",
      "type": "function"
    },
    {
      "inputs": [
        {
          "internalType": "contract IERC721Upgradeable",
          "name": "sourceToken",
          "type": "address"
        },
        {
          "internalType": "address payable",
          "name": "receiver",
          "type": "address"
        },
        {
          "internalType": "uint256",
          "name": "tokenId",
          "type": "uint256"
        }
      ],
      "name": "transferNFTOut",
      "outputs": [
        {
          "internalType": "bool",
          "name": "",
          "type": "bool"
        }
      ],
      "stateMutability": "nonpayable",
      "type": "function"
    },
    {
      "inputs": [
        {
          "internalType": "contract IERC20Upgradeable",
          "name": "sourceToken",
          "type": "address"
        },
        {
          "internalType": "address payable",
          "name": "receiver",
          "type": "address"
        },
        {
          "internalType": "uint256",
          "name": "amount",
          "type": "uint256"
        }
      ],
      "name": "transferOut",
      "outputs": [
        {
          "internalType": "bool",
          "name": "",
          "type": "bool"
        }
      ],
      "stateMutability": "nonpayable",
      "type": "function"
    },
    {
      "inputs": [
        {
          "internalType": "address",
          "name": "newOwner",
          "type": "address"
        }
      ],
      "name": "transferOwnership",
      "outputs": [],
      "stateMutability": "nonpayable",
      "type": "function"
    },
    {
      "inputs": [
        {
          "internalType": "address",
          "name": "receiveAddress",
          "type": "address"
        }
      ],
      "name": "updateReceiveAddress",
      "outputs": [
        {
          "internalType": "bool",
          "name": "",
          "type": "bool"
        }
      ],
      "stateMutability": "nonpayable",
      "type": "function"
    },
    {
      "inputs": [
        {
          "internalType": "uint16",
          "name": "iStage",
          "type": "uint16"
        }
      ],
      "name": "updateStage",
      "outputs": [
        {
          "internalType": "bool",
          "name": "",
          "type": "bool"
        }
      ],
      "stateMutability": "nonpayable",
      "type": "function"
    },
    {
      "inputs": [
        {
          "internalType": "uint16",
          "name": "iMintFee",
          "type": "uint16"
        }
      ],
      "name": "updateStageThreeMintFee",
      "outputs": [
        {
          "internalType": "bool",
          "name": "",
          "type": "bool"
        }
      ],
      "stateMutability": "nonpayable",
      "type": "function"
    },
    {
      "inputs": [
        {
          "internalType": "uint32",
          "name": "iStageTime",
          "type": "uint32"
        }
      ],
      "name": "updateStageTime",
      "outputs": [
        {
          "internalType": "bool",
          "name": "",
          "type": "bool"
        }
      ],
      "stateMutability": "nonpayable",
      "type": "function"
    },
    {
      "inputs": [
        {
          "internalType": "uint16",
          "name": "iMintFee",
          "type": "uint16"
        }
      ],
      "name": "updateStageTwoMintFee",
      "outputs": [
        {
          "internalType": "bool",
          "name": "",
          "type": "bool"
        }
      ],
      "stateMutability": "nonpayable",
      "type": "function"
    },
    {
      "inputs": [
        {
          "internalType": "uint32",
          "name": "iVersion",
          "type": "uint32"
        }
      ],
      "name": "updateVersion",
      "outputs": [
        {
          "internalType": "bool",
          "name": "",
          "type": "bool"
        }
      ],
      "stateMutability": "nonpayable",
      "type": "function"
    }
  ],
  "bytecode": "0x608060405234801561001057600080fd5b50615fc180620000216000396000f3fe6080604052600436106102ff5760003560e01c806370a0823111610190578063b317f31b116100dc578063d575d61611610095578063e985e9c51161006f578063e985e9c514610c67578063f2fde38b14610ca4578063fcaa766414610ccd578063ffa2f79d14610cf8576102ff565b8063d575d61614610bd6578063e4997dc514610c13578063e8a3d48514610c3c576102ff565b8063b317f31b14610a8e578063b88d4fde14610ab9578063bed34bba14610ae2578063c353468514610b1f578063c7bb3c8f14610b5c578063c87b56dd14610b99576102ff565b806388f793cf11610149578063926427441161012357806392642744146109e1578063938e3d7b14610a1157806395d89b4114610a3a578063a22cb46514610a65576102ff565b806388f793cf1461094e5780638da5cb5b1461098b5780638f55937e146109b6576102ff565b806370a082311461082c578063715018a61461086957806371e56a58146108805780637b60c87c146108bd5780638129fc1c146108fa5780638657d26714610911576102ff565b80632a55205a1161024f5780634edf4d0e1161020857806364852ba3116101e257806364852ba314610770578063658120261461079b5780636a793ef7146107c6578063704b6c0214610803576102ff565b80634edf4d0e146106cb578063552e5b4f146107085780636352211e14610733576102ff565b80632a55205a14610583578063387ddbeb146105c15780633df03193146105fe57806342842e0e1461063c57806344f41dc0146106655780634900f8fb1461068e576102ff565b80630ecb93c0116102bc57806316073f731161029657806316073f73146104c9578063162094c41461050657806318160ddd1461052f57806323b872dd1461055a576102ff565b80630ecb93c01461043a57806312c2743e14610463578063150b7a021461048c576102ff565b806301ffc9a71461030457806306fdde0314610341578063078d3b791461036c578063081812fc146103a9578063095ea7b3146103e65780630d8e6e2c1461040f575b600080fd5b34801561031057600080fd5b5061032b6004803603810190610326919061447a565b610d35565b60405161033891906144c2565b60405180910390f35b34801561034d57600080fd5b50610356610d47565b604051610363919061456d565b60405180910390f35b34801561037857600080fd5b50610393600480360381019061038e9190614673565b610dd9565b6040516103a091906144c2565b60405180910390f35b3480156103b557600080fd5b506103d060048036038101906103cb91906146c6565b611063565b6040516103dd9190614702565b60405180910390f35b3480156103f257600080fd5b5061040d60048036038101906104089190614749565b6110a9565b005b34801561041b57600080fd5b506104246111c0565b60405161043191906147a8565b60405180910390f35b34801561044657600080fd5b50610461600480360381019061045c91906147c3565b6111da565b005b34801561046f57600080fd5b5061048a600480360381019061048591906147c3565b611277565b005b34801561049857600080fd5b506104b360048036038101906104ae9190614925565b611314565b6040516104c091906149b7565b60405180910390f35b3480156104d557600080fd5b506104f060048036038101906104eb9190614a73565b611328565b6040516104fd91906144c2565b60405180910390f35b34801561051257600080fd5b5061052d60048036038101906105289190614acf565b611473565b005b34801561053b57600080fd5b50610544611489565b6040516105519190614b3a565b60405180910390f35b34801561056657600080fd5b50610581600480360381019061057c9190614b55565b6114a6565b005b34801561058f57600080fd5b506105aa60048036038101906105a59190614ba8565b611506565b6040516105b8929190614be8565b60405180910390f35b3480156105cd57600080fd5b506105e860048036038101906105e39190614c4b565b6116f0565b6040516105f591906144c2565b60405180910390f35b34801561060a57600080fd5b50610625600480360381019061062091906146c6565b611721565b604051610633929190614c78565b60405180910390f35b34801561064857600080fd5b50610663600480360381019061065e9190614b55565b611741565b005b34801561067157600080fd5b5061068c600480360381019061068791906147c3565b611761565b005b34801561069a57600080fd5b506106b560048036038101906106b09190614ca1565b6117fe565b6040516106c291906144c2565b60405180910390f35b3480156106d757600080fd5b506106f260048036038101906106ed9190614d19565b61188a565b6040516106ff9190614b3a565b60405180910390f35b34801561071457600080fd5b5061071d6118c5565b60405161072a9190614b3a565b60405180910390f35b34801561073f57600080fd5b5061075a600480360381019061075591906146c6565b6118f4565b6040516107679190614702565b60405180910390f35b34801561077c57600080fd5b5061078561197a565b6040516107929190614b3a565b60405180910390f35b3480156107a757600080fd5b506107b0611982565b6040516107bd91906147a8565b60405180910390f35b3480156107d257600080fd5b506107ed60048036038101906107e891906147c3565b61199d565b6040516107fa91906144c2565b60405180910390f35b34801561080f57600080fd5b5061082a600480360381019061082591906147c3565b6119f2565b005b34801561083857600080fd5b50610853600480360381019061084e91906147c3565b611aa4565b6040516108609190614b3a565b60405180910390f35b34801561087557600080fd5b5061087e611b5b565b005b34801561088c57600080fd5b506108a760048036038101906108a29190614da0565b611b6f565b6040516108b491906144c2565b60405180910390f35b3480156108c957600080fd5b506108e460048036038101906108df9190614c4b565b611d03565b6040516108f191906144c2565b60405180910390f35b34801561090657600080fd5b5061090f611d34565b005b34801561091d57600080fd5b50610938600480360381019061093391906146c6565b611eee565b60405161094591906144c2565b60405180910390f35b34801561095a57600080fd5b5061097560048036038101906109709190614c4b565b611f13565b60405161098291906144c2565b60405180910390f35b34801561099757600080fd5b506109a0611f44565b6040516109ad9190614702565b60405180910390f35b3480156109c257600080fd5b506109cb611f6e565b6040516109d89190614b3a565b60405180910390f35b6109fb60048036038101906109f691906146c6565b611f80565b604051610a089190614b3a565b60405180910390f35b348015610a1d57600080fd5b50610a386004803603810190610a339190614d19565b61247c565b005b348015610a4657600080fd5b50610a4f612498565b604051610a5c919061456d565b60405180910390f35b348015610a7157600080fd5b50610a8c6004803603810190610a879190614e1f565b61252a565b005b348015610a9a57600080fd5b50610aa3612540565b604051610ab09190614b3a565b60405180910390f35b348015610ac557600080fd5b50610ae06004803603810190610adb9190614925565b61256f565b005b348015610aee57600080fd5b50610b096004803603810190610b049190614ca1565b6125d1565b604051610b1691906144c2565b60405180910390f35b348015610b2b57600080fd5b50610b466004803603810190610b419190614e8b565b61262a565b604051610b5391906144c2565b60405180910390f35b348015610b6857600080fd5b50610b836004803603810190610b7e9190614ba8565b61265e565b604051610b9091906144c2565b60405180910390f35b348015610ba557600080fd5b50610bc06004803603810190610bbb91906146c6565b612686565b604051610bcd919061456d565b60405180910390f35b348015610be257600080fd5b50610bfd6004803603810190610bf89190614e8b565b612798565b604051610c0a91906144c2565b60405180910390f35b348015610c1f57600080fd5b50610c3a6004803603810190610c3591906147c3565b6127cd565b005b348015610c4857600080fd5b50610c5161286a565b604051610c5e919061456d565b60405180910390f35b348015610c7357600080fd5b50610c8e6004803603810190610c899190614eb8565b6128fd565b604051610c9b91906144c2565b60405180910390f35b348015610cb057600080fd5b50610ccb6004803603810190610cc691906147c3565b612991565b005b348015610cd957600080fd5b50610ce26129e6565b604051610cef9190614f07565b60405180910390f35b348015610d0457600080fd5b50610d1f6004803603810190610d1a91906147c3565b6129ff565b604051610d2c9190614f95565b60405180910390f35b6000610d4082612ace565b9050919050565b606060a08054610d5690614fdf565b80601f0160208091040260200160405190810160405280929190818152602001828054610d8290614fdf565b8015610dcf5780601f10610da457610100808354040283529160200191610dcf565b820191906000526020600020905b815481529060010190602001808311610db257829003601f168201915b5050505050905090565b6000610de3612bb0565b60003090508073ffffffffffffffffffffffffffffffffffffffff168473ffffffffffffffffffffffffffffffffffffffff1603610e4d576040517fbf2f44f500000000000000000000000000000000000000000000000000000000815260040160405180910390fd5b600073ffffffffffffffffffffffffffffffffffffffff168573ffffffffffffffffffffffffffffffffffffffff1603610f1e57828173ffffffffffffffffffffffffffffffffffffffff16311015610ed2576040517fad3a8b9e00000000000000000000000000000000000000000000000000000000815260040160405180910390fd5b8373ffffffffffffffffffffffffffffffffffffffff166108fc849081150290604051600060405180830381858888f19350505050158015610f18573d6000803e3d6000fd5b50611057565b60008573ffffffffffffffffffffffffffffffffffffffff166370a08231836040518263ffffffff1660e01b8152600401610f599190614702565b602060405180830381865afa158015610f76573d6000803e3d6000fd5b505050506040513d601f19601f82011682018060405250810190610f9a9190615025565b905083811015610fd6576040517fad3a8b9e00000000000000000000000000000000000000000000000000000000815260040160405180910390fd5b8573ffffffffffffffffffffffffffffffffffffffff1663a9059cbb86866040518363ffffffff1660e01b81526004016110119291906150b1565b6020604051808303816000875af1158015611030573d6000803e3d6000fd5b505050506040513d601f19601f8201168201806040525081019061105491906150ef565b50505b60019150509392505050565b600061106e82612c2e565b60a4600083815260200190815260200160002060009054906101000a900473ffffffffffffffffffffffffffffffffffffffff169050919050565b60006110b4826118f4565b90508073ffffffffffffffffffffffffffffffffffffffff168373ffffffffffffffffffffffffffffffffffffffff1603611124576040517f08c379a000000000000000000000000000000000000000000000000000000000815260040161111b9061518e565b60405180910390fd5b8073ffffffffffffffffffffffffffffffffffffffff16611143612c79565b73ffffffffffffffffffffffffffffffffffffffff16148061117257506111718161116c612c79565b6128fd565b5b6111b1576040517f08c379a00000000000000000000000000000000000000000000000000000000081526004016111a890615220565b60405180910390fd5b6111bb8383612c81565b505050565b6000606760009054906101000a900463ffffffff16905090565b6111e2612d3a565b6001606d60008373ffffffffffffffffffffffffffffffffffffffff1673ffffffffffffffffffffffffffffffffffffffff16815260200190815260200160002060000160056101000a81548160ff0219169083151502179055507f42e160154868087d6bfdc0ca23d96a1c1cfa32f1b72ba9ba27b69b98a0d819dc8160405161126c9190614702565b60405180910390a150565b61127f612d3a565b6000606d60008373ffffffffffffffffffffffffffffffffffffffff1673ffffffffffffffffffffffffffffffffffffffff16815260200190815260200160002060000160046101000a81548160ff0219169083151502179055507f8f596ead1f75a56e9d2bc6cff7184c7c7af1fd2266f0bdc6c3fbdfcdcc2a21f3816040516113099190614702565b60405180910390a150565b600063150b7a0260e01b9050949350505050565b6000611332612bb0565b600061133d8361188a565b905060006068541480611351575080606854145b1561143b57600073ffffffffffffffffffffffffffffffffffffffff168473ffffffffffffffffffffffffffffffffffffffff16036113bc576040517f952d804b00000000000000000000000000000000000000000000000000000000815260040160405180910390fd5b8373ffffffffffffffffffffffffffffffffffffffff166113db611f44565b73ffffffffffffffffffffffffffffffffffffffff1614611409576113ff84612dca565b600191505061146d565b6040517f36aef01900000000000000000000000000000000000000000000000000000000815260040160405180910390fd5b6040517f3a7089ab00000000000000000000000000000000000000000000000000000000815260040160405180910390fd5b92915050565b61147b612d3a565b6114858282612e90565b5050565b600061010460029054906101000a900461ffff1661ffff16905090565b6114b76114b1612c79565b82612efd565b6114f6576040517f08c379a00000000000000000000000000000000000000000000000000000000081526004016114ed906152b2565b60405180910390fd5b611501838383612f92565b505050565b6000806000603460008681526020019081526020016000206040518060400160405290816000820160009054906101000a900473ffffffffffffffffffffffffffffffffffffffff1673ffffffffffffffffffffffffffffffffffffffff1673ffffffffffffffffffffffffffffffffffffffff1681526020016000820160149054906101000a90046bffffffffffffffffffffffff166bffffffffffffffffffffffff166bffffffffffffffffffffffff16815250509050600073ffffffffffffffffffffffffffffffffffffffff16816000015173ffffffffffffffffffffffffffffffffffffffff160361169b5760336040518060400160405290816000820160009054906101000a900473ffffffffffffffffffffffffffffffffffffffff1673ffffffffffffffffffffffffffffffffffffffff1673ffffffffffffffffffffffffffffffffffffffff1681526020016000820160149054906101000a90046bffffffffffffffffffffffff166bffffffffffffffffffffffff166bffffffffffffffffffffffff168152505090505b60006116a561328b565b6bffffffffffffffffffffffff1682602001516bffffffffffffffffffffffff16866116d19190615301565b6116db9190615372565b90508160000151819350935050509250929050565b60006116fa612d3a565b8161010460086101000a81548161ffff021916908361ffff16021790555060019050919050565b60008061173883606a61329590919063ffffffff16565b91509150915091565b61175c8383836040518060200160405280600081525061256f565b505050565b611769612d3a565b6001606d60008373ffffffffffffffffffffffffffffffffffffffff1673ffffffffffffffffffffffffffffffffffffffff16815260200190815260200160002060000160046101000a81548160ff0219169083151502179055507f0d6979961c0730b3a80ecddbae8a8cbaf660147d709c326e002944b6a2242d6a816040516117f39190614702565b60405180910390a150565b6000611808612bb0565b60006118138461188a565b905060006068541480611827575080606854145b15611852576118358361188a565b9050806068541461185157806068819055506001915050611884565b5b6040517f3a7089ab00000000000000000000000000000000000000000000000000000000815260040160405180910390fd5b92915050565b6000611894612bb0565b816040516020016118a59190615405565b6040516020818303038152906040528051906020012060001c9050919050565b600066038d7ea4c6800061010460089054906101000a900461ffff1661ffff166118ef9190615301565b905090565b600080611900836132c1565b9050600073ffffffffffffffffffffffffffffffffffffffff168173ffffffffffffffffffffffffffffffffffffffff1603611971576040517f08c379a000000000000000000000000000000000000000000000000000000000815260040161196890615477565b60405180910390fd5b80915050919050565b600047905090565b6000610104600a9054906101000a900463ffffffff16905090565b60006119a7612d3a565b8161010560006101000a81548173ffffffffffffffffffffffffffffffffffffffff021916908373ffffffffffffffffffffffffffffffffffffffff16021790555060019050919050565b6119fa612bb0565b600073ffffffffffffffffffffffffffffffffffffffff168173ffffffffffffffffffffffffffffffffffffffff1603611a60576040517f952d804b00000000000000000000000000000000000000000000000000000000815260040160405180910390fd5b80606960006101000a81548173ffffffffffffffffffffffffffffffffffffffff021916908373ffffffffffffffffffffffffffffffffffffffff16021790555050565b60008073ffffffffffffffffffffffffffffffffffffffff168273ffffffffffffffffffffffffffffffffffffffff1603611b14576040517f08c379a0000000000000000000000000000000000000000000000000000000008152600401611b0b90615509565b60405180910390fd5b60a360008373ffffffffffffffffffffffffffffffffffffffff1673ffffffffffffffffffffffffffffffffffffffff168152602001908152602001600020549050919050565b611b63612bb0565b611b6d6000612dca565b565b6000611b79612bb0565b60003090508073ffffffffffffffffffffffffffffffffffffffff168473ffffffffffffffffffffffffffffffffffffffff1603611be3576040517fbf2f44f500000000000000000000000000000000000000000000000000000000815260040160405180910390fd5b611bec856132fe565b611c22576040517fa483111000000000000000000000000000000000000000000000000000000000815260040160405180910390fd5b600073ffffffffffffffffffffffffffffffffffffffff168573ffffffffffffffffffffffffffffffffffffffff1603611c88576040517f952d804b00000000000000000000000000000000000000000000000000000000815260040160405180910390fd5b8473ffffffffffffffffffffffffffffffffffffffff166323b872dd8286866040518463ffffffff1660e01b8152600401611cc593929190615529565b600060405180830381600087803b158015611cdf57600080fd5b505af1158015611cf3573d6000803e3d6000fd5b5050505060019150509392505050565b6000611d0d612d3a565b8161010460066101000a81548161ffff021916908361ffff16021790555060019050919050565b60008060019054906101000a900460ff16159050808015611d655750600160008054906101000a900460ff1660ff16105b80611d925750611d74306132fe565b158015611d915750600160008054906101000a900460ff1660ff16145b5b611dd1576040517f08c379a0000000000000000000000000000000000000000000000000000000008152600401611dc8906155d2565b60405180910390fd5b60016000806101000a81548160ff021916908360ff1602179055508015611e0e576001600060016101000a81548160ff0219169083151502179055505b611e16613321565b611e8a6040518060400160405280601581526020017f4265696e6746692047656e6573697320526f626f7400000000000000000000008152506040518060400160405280600481526020017f424647520000000000000000000000000000000000000000000000000000000081525061337a565b611e926133ed565b8015611eeb5760008060016101000a81548160ff0219169083151502179055507f7f26b83ff96e1f2b6a682f133852f6798a09c465da95921460cefb38474024986001604051611ee2919061563a565b60405180910390a15b50565b6000611ef8612bb0565b611f0c82606a61354a90919063ffffffff16565b9050919050565b6000611f1d612d3a565b8161010460046101000a81548161ffff021916908361ffff16021790555060019050919050565b6000603560009054906101000a900473ffffffffffffffffffffffffffffffffffffffff16905090565b6000611f78612bb0565b606854905090565b60008061ffff1661010460049054906101000a900461ffff1661ffff1603611fd4576040517f1f57cf7400000000000000000000000000000000000000000000000000000000815260040160405180910390fd5b6000611fde612c79565b905060008061200161010460049054906101000a900461ffff1661ffff16611721565b915091508115806120125750600081145b8061201c57504281115b8061204a575042610104600a9054906101000a900463ffffffff1663ffffffff16826120489190615655565b105b15612081576040517f1f57cf7400000000000000000000000000000000000000000000000000000000815260040160405180910390fd5b600061208c846129ff565b90506000600361ffff1661010460049054906101000a900461ffff1661ffff1610156122ee576001151582604001511515146120f4576040517f1f57cf7400000000000000000000000000000000000000000000000000000000815260040160405180910390fd5b600161ffff1661010460049054906101000a900461ffff1661ffff16036121db57600261ffff16826000015161ffff161061215b576040517f192c2ed800000000000000000000000000000000000000000000000000000000815260040160405180910390fd5b606d60008673ffffffffffffffffffffffffffffffffffffffff1673ffffffffffffffffffffffffffffffffffffffff168152602001908152602001600020600001600081819054906101000a900461ffff16809291906121bb90615689565b91906101000a81548161ffff021916908361ffff160217905550506122e9565b600261ffff1661010460049054906101000a900461ffff1661ffff16036122e857600361ffff16826020015161ffff1610612242576040517f192c2ed800000000000000000000000000000000000000000000000000000000815260040160405180910390fd5b606d60008673ffffffffffffffffffffffffffffffffffffffff1673ffffffffffffffffffffffffffffffffffffffff168152602001908152602001600020600001600281819054906101000a900461ffff16809291906122a290615689565b91906101000a81548161ffff021916908361ffff1602179055505061010460069054906101000a900461ffff1661ffff1666038d7ea4c680006122e59190615301565b90505b5b612319565b61010460089054906101000a900461ffff1661ffff1666038d7ea4c680006123169190615301565b90505b600081111561235d578034101561235c576040517fad3a8b9e00000000000000000000000000000000000000000000000000000000815260040160405180910390fd5b5b816060015115612399576040517f192c2ed800000000000000000000000000000000000000000000000000000000815260040160405180910390fd5b61010460009054906101000a900461ffff1661ffff1661010460029054906101000a900461ffff1661ffff16106123fc576040517f192c2ed800000000000000000000000000000000000000000000000000000000815260040160405180910390fd5b61010460029054906101000a900461ffff1661ffff1696506124338561010460029054906101000a900461ffff1661ffff16613564565b610104600281819054906101000a900461ffff168092919061245490615689565b91906101000a81548161ffff021916908361ffff160217905550508695505050505050919050565b612484612d3a565b8061010690816124949190615855565b5050565b606060a180546124a790614fdf565b80601f01602080910402602001604051908101604052809291908181526020018280546124d390614fdf565b80156125205780601f106124f557610100808354040283529160200191612520565b820191906000526020600020905b81548152906001019060200180831161250357829003601f168201915b5050505050905090565b61253c612535612c79565b8383613582565b5050565b600066038d7ea4c6800061010460069054906101000a900461ffff1661ffff1661256a9190615301565b905090565b61258061257a612c79565b83612efd565b6125bf576040517f08c379a00000000000000000000000000000000000000000000000000000000081526004016125b6906152b2565b60405180910390fd5b6125cb848484846136ee565b50505050565b6000816040516020016125e49190615927565b604051602081830303815290604052805190602001208360405160200161260b9190615927565b6040516020818303038152906040528051906020012014905092915050565b6000612634612bb0565b81606760006101000a81548163ffffffff021916908363ffffffff16021790555060019050919050565b6000612668612bb0565b61267e8383606a61374a9092919063ffffffff16565b905092915050565b606061269182612c2e565b600060d2600084815260200190815260200160002080546126b190614fdf565b80601f01602080910402602001604051908101604052809291908181526020018280546126dd90614fdf565b801561272a5780601f106126ff5761010080835404028352916020019161272a565b820191906000526020600020905b81548152906001019060200180831161270d57829003601f168201915b50505050509050600061273b613769565b90506000815103612750578192505050612793565b60008251111561278557808260405160200161276d92919061593e565b60405160208183030381529060405292505050612793565b61278e84613780565b925050505b919050565b60006127a2612d3a565b81610104600a6101000a81548163ffffffff021916908363ffffffff16021790555060019050919050565b6127d5612d3a565b6000606d60008373ffffffffffffffffffffffffffffffffffffffff1673ffffffffffffffffffffffffffffffffffffffff16815260200190815260200160002060000160056101000a81548160ff0219169083151502179055507fd7e9ec6e6ecd65492dce6bf513cd6867560d49544421d0783ddf06e76c24470c8160405161285f9190614702565b60405180910390a150565b6060610106805461287a90614fdf565b80601f01602080910402602001604051908101604052809291908181526020018280546128a690614fdf565b80156128f35780601f106128c8576101008083540402835291602001916128f3565b820191906000526020600020905b8154815290600101906020018083116128d657829003601f168201915b5050505050905090565b600060a560008473ffffffffffffffffffffffffffffffffffffffff1673ffffffffffffffffffffffffffffffffffffffff16815260200190815260200160002060008373ffffffffffffffffffffffffffffffffffffffff1673ffffffffffffffffffffffffffffffffffffffff16815260200190815260200160002060009054906101000a900460ff16905092915050565b612999612bb0565b6000606854036129b1576129ac81612dca565b6129e3565b6040517f5974bf7400000000000000000000000000000000000000000000000000000000815260040160405180910390fd5b50565b600061010460049054906101000a900461ffff16905090565b612a076143da565b606d60008373ffffffffffffffffffffffffffffffffffffffff1673ffffffffffffffffffffffffffffffffffffffff1681526020019081526020016000206040518060800160405290816000820160009054906101000a900461ffff1661ffff1661ffff1681526020016000820160029054906101000a900461ffff1661ffff1661ffff1681526020016000820160049054906101000a900460ff161515151581526020016000820160059054906101000a900460ff1615151515815250509050919050565b60007f80ac58cd000000000000000000000000000000000000000000000000000000007bffffffffffffffffffffffffffffffffffffffffffffffffffffffff1916827bffffffffffffffffffffffffffffffffffffffffffffffffffffffff19161480612b9957507f5b5e139f000000000000000000000000000000000000000000000000000000007bffffffffffffffffffffffffffffffffffffffffffffffffffffffff1916827bffffffffffffffffffffffffffffffffffffffffffffffffffffffff1916145b80612ba95750612ba8826137e8565b5b9050919050565b612bb8612c79565b73ffffffffffffffffffffffffffffffffffffffff16612bd6611f44565b73ffffffffffffffffffffffffffffffffffffffff1614612c2c576040517f08c379a0000000000000000000000000000000000000000000000000000000008152600401612c23906159ae565b60405180910390fd5b565b612c3781613852565b612c76576040517f08c379a0000000000000000000000000000000000000000000000000000000008152600401612c6d90615477565b60405180910390fd5b50565b600033905090565b8160a4600083815260200190815260200160002060006101000a81548173ffffffffffffffffffffffffffffffffffffffff021916908373ffffffffffffffffffffffffffffffffffffffff160217905550808273ffffffffffffffffffffffffffffffffffffffff16612cf4836118f4565b73ffffffffffffffffffffffffffffffffffffffff167f8c5be1e5ebec7d5bd14f71427d1e84f3dd0314c0f7b2291e5b200ac8c7c3b92560405160405180910390a45050565b612d42612c79565b73ffffffffffffffffffffffffffffffffffffffff16606960009054906101000a900473ffffffffffffffffffffffffffffffffffffffff1673ffffffffffffffffffffffffffffffffffffffff1614612dc8576040517f82b4290000000000000000000000000000000000000000000000000000000000815260040160405180910390fd5b565b6000603560009054906101000a900473ffffffffffffffffffffffffffffffffffffffff16905081603560006101000a81548173ffffffffffffffffffffffffffffffffffffffff021916908373ffffffffffffffffffffffffffffffffffffffff1602179055508173ffffffffffffffffffffffffffffffffffffffff168173ffffffffffffffffffffffffffffffffffffffff167f8be0079c531659141344cd1fd0a4f28419497f9722a3daafe3b4186f6b6457e060405160405180910390a35050565b612e9982613852565b612ed8576040517f08c379a0000000000000000000000000000000000000000000000000000000008152600401612ecf90615a40565b60405180910390fd5b8060d260008481526020019081526020016000209081612ef89190615855565b505050565b600080612f09836118f4565b90508073ffffffffffffffffffffffffffffffffffffffff168473ffffffffffffffffffffffffffffffffffffffff161480612f4b5750612f4a81856128fd565b5b80612f8957508373ffffffffffffffffffffffffffffffffffffffff16612f7184611063565b73ffffffffffffffffffffffffffffffffffffffff16145b91505092915050565b8273ffffffffffffffffffffffffffffffffffffffff16612fb2826118f4565b73ffffffffffffffffffffffffffffffffffffffff1614613008576040517f08c379a0000000000000000000000000000000000000000000000000000000008152600401612fff90615ad2565b60405180910390fd5b600073ffffffffffffffffffffffffffffffffffffffff168273ffffffffffffffffffffffffffffffffffffffff1603613077576040517f08c379a000000000000000000000000000000000000000000000000000000000815260040161306e90615b64565b60405180910390fd5b6130848383836001613893565b8273ffffffffffffffffffffffffffffffffffffffff166130a4826118f4565b73ffffffffffffffffffffffffffffffffffffffff16146130fa576040517f08c379a00000000000000000000000000000000000000000000000000000000081526004016130f190615ad2565b60405180910390fd5b60a4600082815260200190815260200160002060006101000a81549073ffffffffffffffffffffffffffffffffffffffff0219169055600160a360008573ffffffffffffffffffffffffffffffffffffffff1673ffffffffffffffffffffffffffffffffffffffff16815260200190815260200160002060008282540392505081905550600160a360008473ffffffffffffffffffffffffffffffffffffffff1673ffffffffffffffffffffffffffffffffffffffff168152602001908152602001600020600082825401925050819055508160a2600083815260200190815260200160002060006101000a81548173ffffffffffffffffffffffffffffffffffffffff021916908373ffffffffffffffffffffffffffffffffffffffff160217905550808273ffffffffffffffffffffffffffffffffffffffff168473ffffffffffffffffffffffffffffffffffffffff167fddf252ad1be2c89b69c2b068fc378daa952ba7f163c4a11628f55a4df523b3ef60405160405180910390a46132868383836001613899565b505050565b6000612710905090565b6000806000806132ab866000018660001b61389f565b91509150818160001c9350935050509250929050565b600060a2600083815260200190815260200160002060009054906101000a900473ffffffffffffffffffffffffffffffffffffffff169050919050565b6000808273ffffffffffffffffffffffffffffffffffffffff163b119050919050565b600060019054906101000a900460ff16613370576040517f08c379a000000000000000000000000000000000000000000000000000000000815260040161336790615bf6565b60405180910390fd5b6133786138ee565b565b600060019054906101000a900460ff166133c9576040517f08c379a00000000000000000000000000000000000000000000000000000000081526004016133c090615bf6565b60405180910390fd5b8160a090816133d89190615855565b508060a190816133e89190615855565b505050565b600060019054906101000a900460ff1661343c576040517f08c379a000000000000000000000000000000000000000000000000000000000815260040161343390615bf6565b60405180910390fd5b613448306101f461394f565b600061010560006101000a81548173ffffffffffffffffffffffffffffffffffffffff021916908373ffffffffffffffffffffffffffffffffffffffff16021790555061080061010460006101000a81548161ffff021916908361ffff160217905550600061010460046101000a81548161ffff021916908361ffff160217905550617080610104600a6101000a81548163ffffffff021916908363ffffffff160217905550602761010460066101000a81548161ffff021916908361ffff160217905550603b61010460086101000a81548161ffff021916908361ffff16021790555061353c613537612c79565b6119f2565b61354761271061262a565b50565b600061355c836000018360001b613b3a565b905092915050565b61357e828260405180602001604052806000815250613b73565b5050565b8173ffffffffffffffffffffffffffffffffffffffff168373ffffffffffffffffffffffffffffffffffffffff16036135f0576040517f08c379a00000000000000000000000000000000000000000000000000000000081526004016135e790615c62565b60405180910390fd5b8060a560008573ffffffffffffffffffffffffffffffffffffffff1673ffffffffffffffffffffffffffffffffffffffff16815260200190815260200160002060008473ffffffffffffffffffffffffffffffffffffffff1673ffffffffffffffffffffffffffffffffffffffff16815260200190815260200160002060006101000a81548160ff0219169083151502179055508173ffffffffffffffffffffffffffffffffffffffff168373ffffffffffffffffffffffffffffffffffffffff167f17307eab39ab6107e8899845ad3d59bd9653f200f220920489ca2b5937696c31836040516136e191906144c2565b60405180910390a3505050565b6136f9848484612f92565b61370584848484613bce565b613744576040517f08c379a000000000000000000000000000000000000000000000000000000000815260040161373b90615cf4565b60405180910390fd5b50505050565b6000613760846000018460001b8460001b613d55565b90509392505050565b606060405180602001604052806000815250905090565b606061378b82612c2e565b6000613795613769565b905060008151116137b557604051806020016040528060008152506137e0565b806137bf84613d90565b6040516020016137d092919061593e565b6040516020818303038152906040525b915050919050565b60007f01ffc9a7000000000000000000000000000000000000000000000000000000007bffffffffffffffffffffffffffffffffffffffffffffffffffffffff1916827bffffffffffffffffffffffffffffffffffffffffffffffffffffffff1916149050919050565b60008073ffffffffffffffffffffffffffffffffffffffff16613874836132c1565b73ffffffffffffffffffffffffffffffffffffffff1614159050919050565b50505050565b50505050565b60008060008460020160008581526020019081526020016000205490506000801b81036138de576138d08585613e5e565b6000801b92509250506138e7565b60018192509250505b9250929050565b600060019054906101000a900460ff1661393d576040517f08c379a000000000000000000000000000000000000000000000000000000000815260040161393490615bf6565b60405180910390fd5b61394d613948612c79565b612dca565b565b61395761328b565b6bffffffffffffffffffffffff16816bffffffffffffffffffffffff1611156040518060600160405280602a8152602001615f62602a9139906139d0576040517f08c379a00000000000000000000000000000000000000000000000000000000081526004016139c7919061456d565b60405180910390fd5b50600073ffffffffffffffffffffffffffffffffffffffff168273ffffffffffffffffffffffffffffffffffffffff1614156040518060400160405280601981526020017f455243323938313a20696e76616c69642072656365697665720000000000000081525090613a79576040517f08c379a0000000000000000000000000000000000000000000000000000000008152600401613a70919061456d565b60405180910390fd5b5060405180604001604052808373ffffffffffffffffffffffffffffffffffffffff168152602001826bffffffffffffffffffffffff16815250603360008201518160000160006101000a81548173ffffffffffffffffffffffffffffffffffffffff021916908373ffffffffffffffffffffffffffffffffffffffff16021790555060208201518160000160146101000a8154816bffffffffffffffffffffffff02191690836bffffffffffffffffffffffff1602179055509050505050565b600082600201600083815260200190815260200160002060009055613b6b8284600001613e7e90919063ffffffff16565b905092915050565b613b7d8383613e95565b613b8a6000848484613bce565b613bc9576040517f08c379a0000000000000000000000000000000000000000000000000000000008152600401613bc090615cf4565b60405180910390fd5b505050565b6000613bef8473ffffffffffffffffffffffffffffffffffffffff166132fe565b15613d48578373ffffffffffffffffffffffffffffffffffffffff1663150b7a02613c18612c79565b8786866040518563ffffffff1660e01b8152600401613c3a9493929190615d69565b6020604051808303816000875af1925050508015613c7657506040513d601f19601f82011682018060405250810190613c739190615dca565b60015b613cf8573d8060008114613ca6576040519150601f19603f3d011682016040523d82523d6000602084013e613cab565b606091505b506000815103613cf0576040517f08c379a0000000000000000000000000000000000000000000000000000000008152600401613ce790615cf4565b60405180910390fd5b805181602001fd5b63150b7a0260e01b7bffffffffffffffffffffffffffffffffffffffffffffffffffffffff1916817bffffffffffffffffffffffffffffffffffffffffffffffffffffffff191614915050613d4d565b600190505b949350505050565b60008184600201600085815260200190815260200160002081905550613d8783856000016140b290919063ffffffff16565b90509392505050565b606060006001613d9f846140c9565b01905060008167ffffffffffffffff811115613dbe57613dbd6147fa565b5b6040519080825280601f01601f191660200182016040528015613df05781602001600182028036833780820191505090505b509050600082602001820190505b600115613e53578080600190039150507f3031323334353637383961626364656600000000000000000000000000000000600a86061a8153600a8581613e4757613e46615343565b5b04945060008503613dfe575b819350505050919050565b6000613e76828460000161421c90919063ffffffff16565b905092915050565b6000613e8d8360000183614233565b905092915050565b600073ffffffffffffffffffffffffffffffffffffffff168273ffffffffffffffffffffffffffffffffffffffff1603613f04576040517f08c379a0000000000000000000000000000000000000000000000000000000008152600401613efb90615e43565b60405180910390fd5b613f0d81613852565b15613f4d576040517f08c379a0000000000000000000000000000000000000000000000000000000008152600401613f4490615eaf565b60405180910390fd5b613f5b600083836001613893565b613f6481613852565b15613fa4576040517f08c379a0000000000000000000000000000000000000000000000000000000008152600401613f9b90615eaf565b60405180910390fd5b600160a360008473ffffffffffffffffffffffffffffffffffffffff1673ffffffffffffffffffffffffffffffffffffffff168152602001908152602001600020600082825401925050819055508160a2600083815260200190815260200160002060006101000a81548173ffffffffffffffffffffffffffffffffffffffff021916908373ffffffffffffffffffffffffffffffffffffffff160217905550808273ffffffffffffffffffffffffffffffffffffffff16600073ffffffffffffffffffffffffffffffffffffffff167fddf252ad1be2c89b69c2b068fc378daa952ba7f163c4a11628f55a4df523b3ef60405160405180910390a46140ae600083836001613899565b5050565b60006140c18360000183614347565b905092915050565b600080600090507a184f03e93ff9f4daa797ed6e38ed64bf6a1f0100000000000000008310614127577a184f03e93ff9f4daa797ed6e38ed64bf6a1f010000000000000000838161411d5761411c615343565b5b0492506040810190505b6d04ee2d6d415b85acef81000000008310614164576d04ee2d6d415b85acef8100000000838161415a57614159615343565b5b0492506020810190505b662386f26fc10000831061419357662386f26fc10000838161418957614188615343565b5b0492506010810190505b6305f5e10083106141bc576305f5e10083816141b2576141b1615343565b5b0492506008810190505b61271083106141e15761271083816141d7576141d6615343565b5b0492506004810190505b6064831061420457606483816141fa576141f9615343565b5b0492506002810190505b600a8310614213576001810190505b80915050919050565b600061422b83600001836143b7565b905092915050565b6000808360010160008481526020019081526020016000205490506000811461433b5760006001826142659190615ecf565b905060006001866000018054905061427d9190615ecf565b90508181146142ec57600086600001828154811061429e5761429d615f03565b5b90600052602060002001549050808760000184815481106142c2576142c1615f03565b5b90600052602060002001819055508387600101600083815260200190815260200160002081905550505b85600001805480614300576142ff615f32565b5b600190038181906000526020600020016000905590558560010160008681526020019081526020016000206000905560019350505050614341565b60009150505b92915050565b600061435383836143b7565b6143ac5782600001829080600181540180825580915050600190039060005260206000200160009091909190915055826000018054905083600101600084815260200190815260200160002081905550600190506143b1565b600090505b92915050565b600080836001016000848152602001908152602001600020541415905092915050565b6040518060800160405280600061ffff168152602001600061ffff1681526020016000151581526020016000151581525090565b6000604051905090565b600080fd5b600080fd5b60007fffffffff0000000000000000000000000000000000000000000000000000000082169050919050565b61445781614422565b811461446257600080fd5b50565b6000813590506144748161444e565b92915050565b6000602082840312156144905761448f614418565b5b600061449e84828501614465565b91505092915050565b60008115159050919050565b6144bc816144a7565b82525050565b60006020820190506144d760008301846144b3565b92915050565b600081519050919050565b600082825260208201905092915050565b60005b838110156145175780820151818401526020810190506144fc565b60008484015250505050565b6000601f19601f8301169050919050565b600061453f826144dd565b61454981856144e8565b93506145598185602086016144f9565b61456281614523565b840191505092915050565b600060208201905081810360008301526145878184614534565b905092915050565b600073ffffffffffffffffffffffffffffffffffffffff82169050919050565b60006145ba8261458f565b9050919050565b60006145cc826145af565b9050919050565b6145dc816145c1565b81146145e757600080fd5b50565b6000813590506145f9816145d3565b92915050565b600061460a8261458f565b9050919050565b61461a816145ff565b811461462557600080fd5b50565b60008135905061463781614611565b92915050565b6000819050919050565b6146508161463d565b811461465b57600080fd5b50565b60008135905061466d81614647565b92915050565b60008060006060848603121561468c5761468b614418565b5b600061469a868287016145ea565b93505060206146ab86828701614628565b92505060406146bc8682870161465e565b9150509250925092565b6000602082840312156146dc576146db614418565b5b60006146ea8482850161465e565b91505092915050565b6146fc816145af565b82525050565b600060208201905061471760008301846146f3565b92915050565b614726816145af565b811461473157600080fd5b50565b6000813590506147438161471d565b92915050565b600080604083850312156147605761475f614418565b5b600061476e85828601614734565b925050602061477f8582860161465e565b9150509250929050565b600063ffffffff82169050919050565b6147a281614789565b82525050565b60006020820190506147bd6000830184614799565b92915050565b6000602082840312156147d9576147d8614418565b5b60006147e784828501614734565b91505092915050565b600080fd5b600080fd5b7f4e487b7100000000000000000000000000000000000000000000000000000000600052604160045260246000fd5b61483282614523565b810181811067ffffffffffffffff82111715614851576148506147fa565b5b80604052505050565b600061486461440e565b90506148708282614829565b919050565b600067ffffffffffffffff8211156148905761488f6147fa565b5b61489982614523565b9050602081019050919050565b82818337600083830152505050565b60006148c86148c384614875565b61485a565b9050828152602081018484840111156148e4576148e36147f5565b5b6148ef8482856148a6565b509392505050565b600082601f83011261490c5761490b6147f0565b5b813561491c8482602086016148b5565b91505092915050565b6000806000806080858703121561493f5761493e614418565b5b600061494d87828801614734565b945050602061495e87828801614734565b935050604061496f8782880161465e565b925050606085013567ffffffffffffffff8111156149905761498f61441d565b5b61499c878288016148f7565b91505092959194509250565b6149b181614422565b82525050565b60006020820190506149cc60008301846149a8565b92915050565b600067ffffffffffffffff8211156149ed576149ec6147fa565b5b6149f682614523565b9050602081019050919050565b6000614a16614a11846149d2565b61485a565b905082815260208101848484011115614a3257614a316147f5565b5b614a3d8482856148a6565b509392505050565b600082601f830112614a5a57614a596147f0565b5b8135614a6a848260208601614a03565b91505092915050565b60008060408385031215614a8a57614a89614418565b5b6000614a9885828601614734565b925050602083013567ffffffffffffffff811115614ab957614ab861441d565b5b614ac585828601614a45565b9150509250929050565b60008060408385031215614ae657614ae5614418565b5b6000614af48582860161465e565b925050602083013567ffffffffffffffff811115614b1557614b1461441d565b5b614b2185828601614a45565b9150509250929050565b614b348161463d565b82525050565b6000602082019050614b4f6000830184614b2b565b92915050565b600080600060608486031215614b6e57614b6d614418565b5b6000614b7c86828701614734565b9350506020614b8d86828701614734565b9250506040614b9e8682870161465e565b9150509250925092565b60008060408385031215614bbf57614bbe614418565b5b6000614bcd8582860161465e565b9250506020614bde8582860161465e565b9150509250929050565b6000604082019050614bfd60008301856146f3565b614c0a6020830184614b2b565b9392505050565b600061ffff82169050919050565b614c2881614c11565b8114614c3357600080fd5b50565b600081359050614c4581614c1f565b92915050565b600060208284031215614c6157614c60614418565b5b6000614c6f84828501614c36565b91505092915050565b6000604082019050614c8d60008301856144b3565b614c9a6020830184614b2b565b9392505050565b60008060408385031215614cb857614cb7614418565b5b600083013567ffffffffffffffff811115614cd657614cd561441d565b5b614ce285828601614a45565b925050602083013567ffffffffffffffff811115614d0357614d0261441d565b5b614d0f85828601614a45565b9150509250929050565b600060208284031215614d2f57614d2e614418565b5b600082013567ffffffffffffffff811115614d4d57614d4c61441d565b5b614d5984828501614a45565b91505092915050565b6000614d6d826145af565b9050919050565b614d7d81614d62565b8114614d8857600080fd5b50565b600081359050614d9a81614d74565b92915050565b600080600060608486031215614db957614db8614418565b5b6000614dc786828701614d8b565b9350506020614dd886828701614628565b9250506040614de98682870161465e565b9150509250925092565b614dfc816144a7565b8114614e0757600080fd5b50565b600081359050614e1981614df3565b92915050565b60008060408385031215614e3657614e35614418565b5b6000614e4485828601614734565b9250506020614e5585828601614e0a565b9150509250929050565b614e6881614789565b8114614e7357600080fd5b50565b600081359050614e8581614e5f565b92915050565b600060208284031215614ea157614ea0614418565b5b6000614eaf84828501614e76565b91505092915050565b60008060408385031215614ecf57614ece614418565b5b6000614edd85828601614734565b9250506020614eee85828601614734565b9150509250929050565b614f0181614c11565b82525050565b6000602082019050614f1c6000830184614ef8565b92915050565b614f2b81614c11565b82525050565b614f3a816144a7565b82525050565b608082016000820151614f566000850182614f22565b506020820151614f696020850182614f22565b506040820151614f7c6040850182614f31565b506060820151614f8f6060850182614f31565b50505050565b6000608082019050614faa6000830184614f40565b92915050565b7f4e487b7100000000000000000000000000000000000000000000000000000000600052602260045260246000fd5b60006002820490506001821680614ff757607f821691505b60208210810361500a57615009614fb0565b5b50919050565b60008151905061501f81614647565b92915050565b60006020828403121561503b5761503a614418565b5b600061504984828501615010565b91505092915050565b6000819050919050565b600061507761507261506d8461458f565b615052565b61458f565b9050919050565b60006150898261505c565b9050919050565b600061509b8261507e565b9050919050565b6150ab81615090565b82525050565b60006040820190506150c660008301856150a2565b6150d36020830184614b2b565b9392505050565b6000815190506150e981614df3565b92915050565b60006020828403121561510557615104614418565b5b6000615113848285016150da565b91505092915050565b7f4552433732313a20617070726f76616c20746f2063757272656e74206f776e6560008201527f7200000000000000000000000000000000000000000000000000000000000000602082015250565b60006151786021836144e8565b91506151838261511c565b604082019050919050565b600060208201905081810360008301526151a78161516b565b9050919050565b7f4552433732313a20617070726f76652063616c6c6572206973206e6f7420746f60008201527f6b656e206f776e6572206f7220617070726f76656420666f7220616c6c000000602082015250565b600061520a603d836144e8565b9150615215826151ae565b604082019050919050565b60006020820190508181036000830152615239816151fd565b9050919050565b7f4552433732313a2063616c6c6572206973206e6f7420746f6b656e206f776e6560008201527f72206f7220617070726f76656400000000000000000000000000000000000000602082015250565b600061529c602d836144e8565b91506152a782615240565b604082019050919050565b600060208201905081810360008301526152cb8161528f565b9050919050565b7f4e487b7100000000000000000000000000000000000000000000000000000000600052601160045260246000fd5b600061530c8261463d565b91506153178361463d565b92508282026153258161463d565b9150828204841483151761533c5761533b6152d2565b5b5092915050565b7f4e487b7100000000000000000000000000000000000000000000000000000000600052601260045260246000fd5b600061537d8261463d565b91506153888361463d565b92508261539857615397615343565b5b828204905092915050565b600081905092915050565b60006153b9826144dd565b6153c381856153a3565b93506153d38185602086016144f9565b80840191505092915050565b7f40424754546f6b656e0000000000000000000000000000000000000000000000815250565b600061541182846153ae565b915061541c826153df565b60098201915081905092915050565b7f4552433732313a20696e76616c696420746f6b656e2049440000000000000000600082015250565b60006154616018836144e8565b915061546c8261542b565b602082019050919050565b6000602082019050818103600083015261549081615454565b9050919050565b7f4552433732313a2061646472657373207a65726f206973206e6f74206120766160008201527f6c6964206f776e65720000000000000000000000000000000000000000000000602082015250565b60006154f36029836144e8565b91506154fe82615497565b604082019050919050565b60006020820190508181036000830152615522816154e6565b9050919050565b600060608201905061553e60008301866146f3565b61554b60208301856150a2565b6155586040830184614b2b565b949350505050565b7f496e697469616c697a61626c653a20636f6e747261637420697320616c72656160008201527f647920696e697469616c697a6564000000000000000000000000000000000000602082015250565b60006155bc602e836144e8565b91506155c782615560565b604082019050919050565b600060208201905081810360008301526155eb816155af565b9050919050565b6000819050919050565b600060ff82169050919050565b600061562461561f61561a846155f2565b615052565b6155fc565b9050919050565b61563481615609565b82525050565b600060208201905061564f600083018461562b565b92915050565b60006156608261463d565b915061566b8361463d565b9250828201905080821115615683576156826152d2565b5b92915050565b600061569482614c11565b915061ffff82036156a8576156a76152d2565b5b600182019050919050565b60008190508160005260206000209050919050565b60006020601f8301049050919050565b600082821b905092915050565b6000600883026157157fffffffffffffffffffffffffffffffffffffffffffffffffffffffffffffffff826156d8565b61571f86836156d8565b95508019841693508086168417925050509392505050565b600061575261574d6157488461463d565b615052565b61463d565b9050919050565b6000819050919050565b61576c83615737565b61578061577882615759565b8484546156e5565b825550505050565b600090565b615795615788565b6157a0818484615763565b505050565b5b818110156157c4576157b960008261578d565b6001810190506157a6565b5050565b601f821115615809576157da816156b3565b6157e3846156c8565b810160208510156157f2578190505b6158066157fe856156c8565b8301826157a5565b50505b505050565b600082821c905092915050565b600061582c6000198460080261580e565b1980831691505092915050565b6000615845838361581b565b9150826002028217905092915050565b61585e826144dd565b67ffffffffffffffff811115615877576158766147fa565b5b6158818254614fdf565b61588c8282856157c8565b600060209050601f8311600181146158bf57600084156158ad578287015190505b6158b78582615839565b86555061591f565b601f1984166158cd866156b3565b60005b828110156158f5578489015182556001820191506020850194506020810190506158d0565b86831015615912578489015161590e601f89168261581b565b8355505b6001600288020188555050505b505050505050565b600061593382846153ae565b915081905092915050565b600061594a82856153ae565b915061595682846153ae565b91508190509392505050565b7f4f776e61626c653a2063616c6c6572206973206e6f7420746865206f776e6572600082015250565b60006159986020836144e8565b91506159a382615962565b602082019050919050565b600060208201905081810360008301526159c78161598b565b9050919050565b7f45524337323155524953746f726167653a2055524920736574206f66206e6f6e60008201527f6578697374656e7420746f6b656e000000000000000000000000000000000000602082015250565b6000615a2a602e836144e8565b9150615a35826159ce565b604082019050919050565b60006020820190508181036000830152615a5981615a1d565b9050919050565b7f4552433732313a207472616e736665722066726f6d20696e636f72726563742060008201527f6f776e6572000000000000000000000000000000000000000000000000000000602082015250565b6000615abc6025836144e8565b9150615ac782615a60565b604082019050919050565b60006020820190508181036000830152615aeb81615aaf565b9050919050565b7f4552433732313a207472616e7366657220746f20746865207a65726f2061646460008201527f7265737300000000000000000000000000000000000000000000000000000000602082015250565b6000615b4e6024836144e8565b9150615b5982615af2565b604082019050919050565b60006020820190508181036000830152615b7d81615b41565b9050919050565b7f496e697469616c697a61626c653a20636f6e7472616374206973206e6f74206960008201527f6e697469616c697a696e67000000000000000000000000000000000000000000602082015250565b6000615be0602b836144e8565b9150615beb82615b84565b604082019050919050565b60006020820190508181036000830152615c0f81615bd3565b9050919050565b7f4552433732313a20617070726f766520746f2063616c6c657200000000000000600082015250565b6000615c4c6019836144e8565b9150615c5782615c16565b602082019050919050565b60006020820190508181036000830152615c7b81615c3f565b9050919050565b7f4552433732313a207472616e7366657220746f206e6f6e20455243373231526560008201527f63656976657220696d706c656d656e7465720000000000000000000000000000602082015250565b6000615cde6032836144e8565b9150615ce982615c82565b604082019050919050565b60006020820190508181036000830152615d0d81615cd1565b9050919050565b600081519050919050565b600082825260208201905092915050565b6000615d3b82615d14565b615d458185615d1f565b9350615d558185602086016144f9565b615d5e81614523565b840191505092915050565b6000608082019050615d7e60008301876146f3565b615d8b60208301866146f3565b615d986040830185614b2b565b8181036060830152615daa8184615d30565b905095945050505050565b600081519050615dc48161444e565b92915050565b600060208284031215615de057615ddf614418565b5b6000615dee84828501615db5565b91505092915050565b7f4552433732313a206d696e7420746f20746865207a65726f2061646472657373600082015250565b6000615e2d6020836144e8565b9150615e3882615df7565b602082019050919050565b60006020820190508181036000830152615e5c81615e20565b9050919050565b7f4552433732313a20746f6b656e20616c7265616479206d696e74656400000000600082015250565b6000615e99601c836144e8565b9150615ea482615e63565b602082019050919050565b60006020820190508181036000830152615ec881615e8c565b9050919050565b6000615eda8261463d565b9150615ee58361463d565b9250828203905081811115615efd57615efc6152d2565b5b92915050565b7f4e487b7100000000000000000000000000000000000000000000000000000000600052603260045260246000fd5b7f4e487b7100000000000000000000000000000000000000000000000000000000600052603160045260246000fdfe455243323938313a20726f79616c7479206665652077696c6c206578636565642073616c655072696365a26469706673582212202db03536d31672cc95f58be04e324c2cf4204425db8c639e05a414cb59457dd964736f6c63430008120033",
  "linkReferences": {},
  "deployedLinkReferences": {}
}