{
  "_format": "hh-sol-artifact-1",
  "contractName": "PoolForToken",
  "sourceName": "contracts/PoolForToken.sol",
  "abi": [
    {
      "anonymous": false,
      "inputs": [
        {
          "indexed": false,
          "internalType": "uint8",
          "name": "version",
          "type": "uint8"
        }
      ],
      "name": "Initialized",
      "type": "event"
    },
    {
      "anonymous": false,
      "inputs": [
        {
          "indexed": false,
          "internalType": "string",
          "name": "strName",
          "type": "string"
        },
        {
          "indexed": false,
          "internalType": "uint256",
          "name": "amount",
          "type": "uint256"
        },
        {
          "indexed": false,
          "internalType": "uint256",
          "name": "lockTime",
          "type": "uint256"
        }
      ],
      "name": "OnPoolToken",
      "type": "event"
    },
    {
      "anonymous": false,
      "inputs": [
        {
          "indexed": false,
          "internalType": "string",
          "name": "strName",
          "type": "string"
        },
        {
          "indexed": false,
          "internalType": "uint256",
          "name": "lockTime",
          "type": "uint256"
        },
        {
          "indexed": false,
          "internalType": "contract IERC20Upgradeable",
          "name": "sourceToken",
          "type": "address"
        },
        {
          "indexed": false,
          "internalType": "contract IERC20Upgradeable",
          "name": "targetToken",
          "type": "address"
        },
        {
          "indexed": false,
          "internalType": "address",
          "name": "targetAddress",
          "type": "address"
        },
        {
          "indexed": false,
          "internalType": "address",
          "name": "saveTo",
          "type": "address"
        },
        {
          "indexed": false,
          "internalType": "uint256",
          "name": "earlyTakeout",
          "type": "uint256"
        },
        {
          "indexed": false,
          "internalType": "uint256",
          "name": "annualAward",
          "type": "uint256"
        },
        {
          "indexed": false,
          "internalType": "uint256",
          "name": "firstKeep",
          "type": "uint256"
        }
      ],
      "name": "OnSetPoolConfig",
      "type": "event"
    },
    {
      "anonymous": false,
      "inputs": [
        {
          "indexed": false,
          "internalType": "string",
          "name": "strName",
          "type": "string"
        },
        {
          "indexed": false,
          "internalType": "uint256",
          "name": "earlyTakeout",
          "type": "uint256"
        },
        {
          "indexed": false,
          "internalType": "uint256",
          "name": "annualAward",
          "type": "uint256"
        }
      ],
      "name": "OnUpdatePoolConfig",
      "type": "event"
    },
    {
      "anonymous": false,
      "inputs": [
        {
          "indexed": false,
          "internalType": "string",
          "name": "strName",
          "type": "string"
        },
        {
          "indexed": false,
          "internalType": "uint256",
          "name": "changeValue",
          "type": "uint256"
        },
        {
          "indexed": false,
          "internalType": "uint256",
          "name": "resultValue",
          "type": "uint256"
        }
      ],
      "name": "OnUpdatePoolLockTime",
      "type": "event"
    },
    {
      "anonymous": false,
      "inputs": [
        {
          "indexed": true,
          "internalType": "address",
          "name": "previousOwner",
          "type": "address"
        },
        {
          "indexed": true,
          "internalType": "address",
          "name": "newOwner",
          "type": "address"
        }
      ],
      "name": "OwnershipTransferred",
      "type": "event"
    },
    {
      "inputs": [
        {
          "internalType": "string",
          "name": "strName",
          "type": "string"
        },
        {
          "internalType": "uint256",
          "name": "amount",
          "type": "uint256"
        }
      ],
      "name": "PoolToken",
      "outputs": [
        {
          "internalType": "bool",
          "name": "",
          "type": "bool"
        }
      ],
      "stateMutability": "nonpayable",
      "type": "function"
    },
    {
      "inputs": [],
      "name": "dumpSecurityCode",
      "outputs": [
        {
          "internalType": "uint256",
          "name": "",
          "type": "uint256"
        }
      ],
      "stateMutability": "view",
      "type": "function"
    },
    {
      "inputs": [
        {
          "internalType": "string",
          "name": "strName",
          "type": "string"
        }
      ],
      "name": "getPoolConfig",
      "outputs": [
        {
          "components": [
            {
              "internalType": "uint256",
              "name": "lockTime",
              "type": "uint256"
            },
            {
              "internalType": "contract IERC20Upgradeable",
              "name": "sourceToken",
              "type": "address"
            },
            {
              "internalType": "contract IERC20Upgradeable",
              "name": "targetToken",
              "type": "address"
            },
            {
              "internalType": "address",
              "name": "targetAddress",
              "type": "address"
            },
            {
              "internalType": "address",
              "name": "saveTo",
              "type": "address"
            },
            {
              "internalType": "uint256",
              "name": "earlyTakeout",
              "type": "uint256"
            },
            {
              "internalType": "uint256",
              "name": "annualAward",
              "type": "uint256"
            },
            {
              "internalType": "uint256",
              "name": "firstKeep",
              "type": "uint256"
            }
          ],
          "internalType": "struct PoolForToken.tagPoolConfig",
          "name": "",
          "type": "tuple"
        }
      ],
      "stateMutability": "view",
      "type": "function"
    },
    {
      "inputs": [
        {
          "internalType": "string",
          "name": "strCode",
          "type": "string"
        }
      ],
      "name": "getSecurityCode",
      "outputs": [
        {
          "internalType": "uint256",
          "name": "",
          "type": "uint256"
        }
      ],
      "stateMutability": "view",
      "type": "function"
    },
    {
      "inputs": [],
      "name": "getVersion",
      "outputs": [
        {
          "internalType": "uint256",
          "name": "",
          "type": "uint256"
        }
      ],
      "stateMutability": "view",
      "type": "function"
    },
    {
      "inputs": [],
      "name": "initialize",
      "outputs": [],
      "stateMutability": "nonpayable",
      "type": "function"
    },
    {
      "inputs": [],
      "name": "owner",
      "outputs": [
        {
          "internalType": "address",
          "name": "",
          "type": "address"
        }
      ],
      "stateMutability": "view",
      "type": "function"
    },
    {
      "inputs": [
        {
          "internalType": "string",
          "name": "strName",
          "type": "string"
        }
      ],
      "name": "removePoolConfig",
      "outputs": [
        {
          "internalType": "bool",
          "name": "",
          "type": "bool"
        }
      ],
      "stateMutability": "nonpayable",
      "type": "function"
    },
    {
      "inputs": [],
      "name": "renounceOwnership",
      "outputs": [],
      "stateMutability": "nonpayable",
      "type": "function"
    },
    {
      "inputs": [
        {
          "internalType": "address",
          "name": "newOwner",
          "type": "address"
        },
        {
          "internalType": "string",
          "name": "strCode",
          "type": "string"
        }
      ],
      "name": "securityTransferOwnership",
      "outputs": [
        {
          "internalType": "bool",
          "name": "",
          "type": "bool"
        }
      ],
      "stateMutability": "nonpayable",
      "type": "function"
    },
    {
      "inputs": [
        {
          "internalType": "string",
          "name": "strName",
          "type": "string"
        },
        {
          "internalType": "uint256",
          "name": "lockTime",
          "type": "uint256"
        },
        {
          "internalType": "contract IERC20Upgradeable",
          "name": "sourceToken",
          "type": "address"
        },
        {
          "internalType": "contract IERC20Upgradeable",
          "name": "targetToken",
          "type": "address"
        },
        {
          "internalType": "address",
          "name": "targetAddress",
          "type": "address"
        },
        {
          "internalType": "address",
          "name": "saveTo",
          "type": "address"
        },
        {
          "internalType": "uint256",
          "name": "earlyTakeout",
          "type": "uint256"
        },
        {
          "internalType": "uint256",
          "name": "annualAward",
          "type": "uint256"
        },
        {
          "internalType": "uint256",
          "name": "firstKeep",
          "type": "uint256"
        }
      ],
      "name": "setPoolConfig",
      "outputs": [
        {
          "internalType": "bool",
          "name": "",
          "type": "bool"
        }
      ],
      "stateMutability": "nonpayable",
      "type": "function"
    },
    {
      "inputs": [
        {
          "internalType": "string",
          "name": "strOldCode",
          "type": "string"
        },
        {
          "internalType": "string",
          "name": "strNewCode",
          "type": "string"
        }
      ],
      "name": "setSecurityCode",
      "outputs": [
        {
          "internalType": "bool",
          "name": "",
          "type": "bool"
        }
      ],
      "stateMutability": "nonpayable",
      "type": "function"
    },
    {
      "inputs": [
        {
          "internalType": "contract IERC721Upgradeable",
          "name": "sourceToken",
          "type": "address"
        },
        {
          "internalType": "address payable",
          "name": "receiver",
          "type": "address"
        },
        {
          "internalType": "uint256",
          "name": "tokenId",
          "type": "uint256"
        }
      ],
      "name": "transferNFTOut",
      "outputs": [
        {
          "internalType": "bool",
          "name": "",
          "type": "bool"
        }
      ],
      "stateMutability": "nonpayable",
      "type": "function"
    },
    {
      "inputs": [
        {
          "internalType": "contract IERC20Upgradeable",
          "name": "sourceToken",
          "type": "address"
        },
        {
          "internalType": "address payable",
          "name": "receiver",
          "type": "address"
        },
        {
          "internalType": "uint256",
          "name": "amount",
          "type": "uint256"
        }
      ],
      "name": "transferOut",
      "outputs": [
        {
          "internalType": "bool",
          "name": "",
          "type": "bool"
        }
      ],
      "stateMutability": "nonpayable",
      "type": "function"
    },
    {
      "inputs": [
        {
          "internalType": "address",
          "name": "newOwner",
          "type": "address"
        }
      ],
      "name": "transferOwnership",
      "outputs": [],
      "stateMutability": "nonpayable",
      "type": "function"
    },
    {
      "inputs": [
        {
          "internalType": "string",
          "name": "strName",
          "type": "string"
        },
        {
          "internalType": "uint256",
          "name": "earlyTakeout",
          "type": "uint256"
        },
        {
          "internalType": "uint256",
          "name": "annualAward",
          "type": "uint256"
        }
      ],
      "name": "updatePoolConfig",
      "outputs": [
        {
          "internalType": "bool",
          "name": "",
          "type": "bool"
        }
      ],
      "stateMutability": "nonpayable",
      "type": "function"
    },
    {
      "inputs": [
        {
          "internalType": "string",
          "name": "strName",
          "type": "string"
        },
        {
          "internalType": "uint256",
          "name": "lockValue",
          "type": "uint256"
        }
      ],
      "name": "updatePoolLockTime",
      "outputs": [
        {
          "internalType": "bool",
          "name": "",
          "type": "bool"
        }
      ],
      "stateMutability": "nonpayable",
      "type": "function"
    },
    {
      "inputs": [
        {
          "internalType": "uint256",
          "name": "iVersion",
          "type": "uint256"
        }
      ],
      "name": "updateVersion",
      "outputs": [
        {
          "internalType": "bool",
          "name": "",
          "type": "bool"
        }
      ],
      "stateMutability": "nonpayable",
      "type": "function"
    }
  ],
  "bytecode": "0x608060405234801561001057600080fd5b506137a8806100206000396000f3fe608060405234801561001057600080fd5b50600436106101165760003560e01c80638da5cb5b116100a2578063b5a3b10a11610071578063b5a3b10a14610309578063d6fff8fd14610339578063e19d1f4014610369578063f2fde38b14610399578063fd3be201146103b557610116565b80638da5cb5b1461026d5780638f55937e1461028b57806395e5442f146102a9578063a87f884e146102d957610116565b80634edf4d0e116100e95780634edf4d0e146101c9578063715018a6146101f957806371e56a58146102035780638129fc1c1461023357806382bcaef41461023d57610116565b8063078d3b791461011b5780630d8e6e2c1461014b57806316073f73146101695780634900f8fb14610199575b600080fd5b610135600480360381019061013091906123e3565b6103e5565b6040516101429190612451565b60405180910390f35b6101536106aa565b604051610160919061247b565b60405180910390f35b610183600480360381019061017e9190612608565b6106b4565b6040516101909190612451565b60405180910390f35b6101b360048036038101906101ae9190612664565b61081b565b6040516101c09190612451565b60405180910390f35b6101e360048036038101906101de91906126dc565b6108b0565b6040516101f0919061247b565b60405180910390f35b610201610922565b005b61021d60048036038101906102189190612763565b610936565b60405161022a9190612451565b60405180910390f35b61023b610ae7565b005b610257600480360381019061025291906127b6565b610c25565b6040516102649190612451565b60405180910390f35b610275610f12565b6040516102829190612821565b60405180910390f35b610293610f3c565b6040516102a0919061247b565b60405180910390f35b6102c360048036038101906102be91906126dc565b610f4e565b6040516102d09190612451565b60405180910390f35b6102f360048036038101906102ee919061283c565b611259565b6040516103009190612451565b60405180910390f35b610323600480360381019061031e9190612869565b611273565b6040516103309190612451565b60405180910390f35b610353600480360381019061034e91906126dc565b61151f565b60405161036091906129f7565b60405180910390f35b610383600480360381019061037e9190612a13565b6116d5565b6040516103909190612451565b60405180910390f35b6103b360048036038101906103ae9190612af9565b611a3d565b005b6103cf60048036038101906103ca91906127b6565b611a9c565b6040516103dc9190612451565b60405180910390f35b60006103ef611f79565b60003090508073ffffffffffffffffffffffffffffffffffffffff168473ffffffffffffffffffffffffffffffffffffffff161415610463576040517f08c379a000000000000000000000000000000000000000000000000000000000815260040161045a90612b83565b60405180910390fd5b600073ffffffffffffffffffffffffffffffffffffffff168573ffffffffffffffffffffffffffffffffffffffff16141561053e57828173ffffffffffffffffffffffffffffffffffffffff163110156104f2576040517f08c379a00000000000000000000000000000000000000000000000000000000081526004016104e990612bef565b60405180910390fd5b8373ffffffffffffffffffffffffffffffffffffffff166108fc849081150290604051600060405180830381858888f19350505050158015610538573d6000803e3d6000fd5b5061069e565b60008573ffffffffffffffffffffffffffffffffffffffff166370a08231836040518263ffffffff1660e01b81526004016105799190612821565b60206040518083038186803b15801561059157600080fd5b505afa1580156105a5573d6000803e3d6000fd5b505050506040513d601f19601f820116820180604052508101906105c99190612c24565b90508381101561060e576040517f08c379a000000000000000000000000000000000000000000000000000000000815260040161060590612bef565b60405180910390fd5b8573ffffffffffffffffffffffffffffffffffffffff1663a9059cbb86866040518363ffffffff1660e01b8152600401610649929190612c72565b602060405180830381600087803b15801561066357600080fd5b505af1158015610677573d6000803e3d6000fd5b505050506040513d601f19601f8201168201806040525081019061069b9190612cc7565b50505b60019150509392505050565b6000606554905090565b60006106be611f79565b60006106c9836108b0565b9050600060665414806106dd575080606654145b156107da57600073ffffffffffffffffffffffffffffffffffffffff168473ffffffffffffffffffffffffffffffffffffffff161415610752576040517f08c379a000000000000000000000000000000000000000000000000000000000815260040161074990612d66565b60405180910390fd5b8373ffffffffffffffffffffffffffffffffffffffff16610771610f12565b73ffffffffffffffffffffffffffffffffffffffff161461079f5761079584611ff7565b6001915050610815565b6040517f08c379a00000000000000000000000000000000000000000000000000000000081526004016107d190612df8565b60405180910390fd5b6040517f08c379a000000000000000000000000000000000000000000000000000000000815260040161080c90612e64565b60405180910390fd5b92915050565b6000610825611f79565b6000610830846108b0565b905060006066541480610844575080606654145b1561086f57610852836108b0565b9050806066541461086e578060668190555060019150506108aa565b5b6040517f08c379a00000000000000000000000000000000000000000000000000000000081526004016108a190612ed0565b60405180910390fd5b92915050565b60006108ba611f79565b816040518060400160405280600981526020017f40424754546f6b656e0000000000000000000000000000000000000000000000815250604051602001610902929190612f6a565b6040516020818303038152906040528051906020012060001c9050919050565b61092a611f79565b6109346000611ff7565b565b6000610940611f79565b60003090508073ffffffffffffffffffffffffffffffffffffffff168473ffffffffffffffffffffffffffffffffffffffff1614156109b4576040517f08c379a00000000000000000000000000000000000000000000000000000000081526004016109ab90612b83565b60405180910390fd5b6109bd856120bd565b6109fc576040517f08c379a00000000000000000000000000000000000000000000000000000000081526004016109f390612fda565b60405180910390fd5b600073ffffffffffffffffffffffffffffffffffffffff168573ffffffffffffffffffffffffffffffffffffffff161415610a6c576040517f08c379a0000000000000000000000000000000000000000000000000000000008152600401610a6390613046565b60405180910390fd5b8473ffffffffffffffffffffffffffffffffffffffff166323b872dd8286866040518463ffffffff1660e01b8152600401610aa993929190613066565b600060405180830381600087803b158015610ac357600080fd5b505af1158015610ad7573d6000803e3d6000fd5b5050505060019150509392505050565b60008060019054906101000a900460ff16159050808015610b185750600160008054906101000a900460ff1660ff16105b80610b455750610b27306120bd565b158015610b445750600160008054906101000a900460ff1660ff16145b5b610b84576040517f08c379a0000000000000000000000000000000000000000000000000000000008152600401610b7b9061310f565b60405180910390fd5b60016000806101000a81548160ff021916908360ff1602179055508015610bc1576001600060016101000a81548160ff0219169083151502179055505b610bc96120e0565b8015610c225760008060016101000a81548160ff0219169083151502179055507f7f26b83ff96e1f2b6a682f133852f6798a09c465da95921460cefb38474024986001604051610c199190613177565b60405180910390a15b50565b6000610c2f611f79565b6000610c3a846120f4565b905060006067600083815260200190815260200160002060405180610100016040529081600082015481526020016001820160009054906101000a900473ffffffffffffffffffffffffffffffffffffffff1673ffffffffffffffffffffffffffffffffffffffff1673ffffffffffffffffffffffffffffffffffffffff1681526020016002820160009054906101000a900473ffffffffffffffffffffffffffffffffffffffff1673ffffffffffffffffffffffffffffffffffffffff1673ffffffffffffffffffffffffffffffffffffffff1681526020016003820160009054906101000a900473ffffffffffffffffffffffffffffffffffffffff1673ffffffffffffffffffffffffffffffffffffffff1673ffffffffffffffffffffffffffffffffffffffff1681526020016004820160009054906101000a900473ffffffffffffffffffffffffffffffffffffffff1673ffffffffffffffffffffffffffffffffffffffff1673ffffffffffffffffffffffffffffffffffffffff16815260200160058201548152602001600682015481526020016007820154815250509050600073ffffffffffffffffffffffffffffffffffffffff16816020015173ffffffffffffffffffffffffffffffffffffffff161415610e53576040517f08c379a0000000000000000000000000000000000000000000000000000000008152600401610e4a906131de565b60405180910390fd5b8381600001511415610e9a576040517f08c379a0000000000000000000000000000000000000000000000000000000008152600401610e919061324a565b60405180910390fd5b8360676000848152602001908152602001600020600001819055507fb9bdd38fa5e8bd94f2dd1f30ef5526baab36501c2c02989cdf47155ca3e0537185856067600086815260200190815260200160002060000154604051610efe939291906132ae565b60405180910390a160019250505092915050565b6000603360009054906101000a900473ffffffffffffffffffffffffffffffffffffffff16905090565b6000610f46611f79565b606654905090565b6000610f58611f79565b6000610f63836120f4565b905060006067600083815260200190815260200160002060405180610100016040529081600082015481526020016001820160009054906101000a900473ffffffffffffffffffffffffffffffffffffffff1673ffffffffffffffffffffffffffffffffffffffff1673ffffffffffffffffffffffffffffffffffffffff1681526020016002820160009054906101000a900473ffffffffffffffffffffffffffffffffffffffff1673ffffffffffffffffffffffffffffffffffffffff1673ffffffffffffffffffffffffffffffffffffffff1681526020016003820160009054906101000a900473ffffffffffffffffffffffffffffffffffffffff1673ffffffffffffffffffffffffffffffffffffffff1673ffffffffffffffffffffffffffffffffffffffff1681526020016004820160009054906101000a900473ffffffffffffffffffffffffffffffffffffffff1673ffffffffffffffffffffffffffffffffffffffff1673ffffffffffffffffffffffffffffffffffffffff16815260200160058201548152602001600682015481526020016007820154815250509050600073ffffffffffffffffffffffffffffffffffffffff16816020015173ffffffffffffffffffffffffffffffffffffffff16141561117c576040517f08c379a0000000000000000000000000000000000000000000000000000000008152600401611173906131de565b60405180910390fd5b606760008381526020019081526020016000206000808201600090556001820160006101000a81549073ffffffffffffffffffffffffffffffffffffffff02191690556002820160006101000a81549073ffffffffffffffffffffffffffffffffffffffff02191690556003820160006101000a81549073ffffffffffffffffffffffffffffffffffffffff02191690556004820160006101000a81549073ffffffffffffffffffffffffffffffffffffffff02191690556005820160009055600682016000905560078201600090555050600192505050919050565b6000611263611f79565b8160658190555060019050919050565b600061127d611f79565b6000611288856120f4565b905060006067600083815260200190815260200160002060405180610100016040529081600082015481526020016001820160009054906101000a900473ffffffffffffffffffffffffffffffffffffffff1673ffffffffffffffffffffffffffffffffffffffff1673ffffffffffffffffffffffffffffffffffffffff1681526020016002820160009054906101000a900473ffffffffffffffffffffffffffffffffffffffff1673ffffffffffffffffffffffffffffffffffffffff1673ffffffffffffffffffffffffffffffffffffffff1681526020016003820160009054906101000a900473ffffffffffffffffffffffffffffffffffffffff1673ffffffffffffffffffffffffffffffffffffffff1673ffffffffffffffffffffffffffffffffffffffff1681526020016004820160009054906101000a900473ffffffffffffffffffffffffffffffffffffffff1673ffffffffffffffffffffffffffffffffffffffff1673ffffffffffffffffffffffffffffffffffffffff16815260200160058201548152602001600682015481526020016007820154815250509050600073ffffffffffffffffffffffffffffffffffffffff16816020015173ffffffffffffffffffffffffffffffffffffffff1614156114a1576040517f08c379a0000000000000000000000000000000000000000000000000000000008152600401611498906131de565b60405180910390fd5b8460676000848152602001908152602001600020600501819055508360676000848152602001908152602001600020600601819055507f5e41aef20331b74e6d8c4cd342be2f4fec2c1d710d4310de370a56e45e0f204f86868660405161150a939291906132ae565b60405180910390a16001925050509392505050565b61152761224e565b60676000611534846120f4565b815260200190815260200160002060405180610100016040529081600082015481526020016001820160009054906101000a900473ffffffffffffffffffffffffffffffffffffffff1673ffffffffffffffffffffffffffffffffffffffff1673ffffffffffffffffffffffffffffffffffffffff1681526020016002820160009054906101000a900473ffffffffffffffffffffffffffffffffffffffff1673ffffffffffffffffffffffffffffffffffffffff1673ffffffffffffffffffffffffffffffffffffffff1681526020016003820160009054906101000a900473ffffffffffffffffffffffffffffffffffffffff1673ffffffffffffffffffffffffffffffffffffffff1673ffffffffffffffffffffffffffffffffffffffff1681526020016004820160009054906101000a900473ffffffffffffffffffffffffffffffffffffffff1673ffffffffffffffffffffffffffffffffffffffff1673ffffffffffffffffffffffffffffffffffffffff16815260200160058201548152602001600682015481526020016007820154815250509050919050565b60006116df611f79565b600073ffffffffffffffffffffffffffffffffffffffff168673ffffffffffffffffffffffffffffffffffffffff161415611718573095505b600073ffffffffffffffffffffffffffffffffffffffff168573ffffffffffffffffffffffffffffffffffffffff161415611751573094505b61175a886120bd565b611799576040517f08c379a000000000000000000000000000000000000000000000000000000000815260040161179090613338565b60405180910390fd5b6117a2876120bd565b6117e1576040517f08c379a00000000000000000000000000000000000000000000000000000000081526004016117d8906133a4565b60405180910390fd5b60006117ec8b6120f4565b905060006040518061010001604052808c81526020018b73ffffffffffffffffffffffffffffffffffffffff1681526020018a73ffffffffffffffffffffffffffffffffffffffff1681526020018973ffffffffffffffffffffffffffffffffffffffff1681526020018873ffffffffffffffffffffffffffffffffffffffff16815260200187815260200186815260200185815250905080606760008481526020019081526020016000206000820151816000015560208201518160010160006101000a81548173ffffffffffffffffffffffffffffffffffffffff021916908373ffffffffffffffffffffffffffffffffffffffff16021790555060408201518160020160006101000a81548173ffffffffffffffffffffffffffffffffffffffff021916908373ffffffffffffffffffffffffffffffffffffffff16021790555060608201518160030160006101000a81548173ffffffffffffffffffffffffffffffffffffffff021916908373ffffffffffffffffffffffffffffffffffffffff16021790555060808201518160040160006101000a81548173ffffffffffffffffffffffffffffffffffffffff021916908373ffffffffffffffffffffffffffffffffffffffff16021790555060a0820151816005015560c0820151816006015560e082015181600701559050507f02ad60ab96de044449e93ce5248690d260fa80edbf7d04a8aecea786d9de2b078c82600001518c8c8c8c8c8c8c604051611a22999897969594939291906133d3565b60405180910390a16001925050509998505050505050505050565b611a45611f79565b60006066541415611a5e57611a5981612108565b611a99565b6040517f08c379a0000000000000000000000000000000000000000000000000000000008152600401611a90906134d9565b60405180910390fd5b50565b600080611aa8846120f4565b905060006067600083815260200190815260200160002060405180610100016040529081600082015481526020016001820160009054906101000a900473ffffffffffffffffffffffffffffffffffffffff1673ffffffffffffffffffffffffffffffffffffffff1673ffffffffffffffffffffffffffffffffffffffff1681526020016002820160009054906101000a900473ffffffffffffffffffffffffffffffffffffffff1673ffffffffffffffffffffffffffffffffffffffff1673ffffffffffffffffffffffffffffffffffffffff1681526020016003820160009054906101000a900473ffffffffffffffffffffffffffffffffffffffff1673ffffffffffffffffffffffffffffffffffffffff1673ffffffffffffffffffffffffffffffffffffffff1681526020016004820160009054906101000a900473ffffffffffffffffffffffffffffffffffffffff1673ffffffffffffffffffffffffffffffffffffffff1673ffffffffffffffffffffffffffffffffffffffff16815260200160058201548152602001600682015481526020016007820154815250509050600073ffffffffffffffffffffffffffffffffffffffff16816020015173ffffffffffffffffffffffffffffffffffffffff161415611cc1576040517f08c379a0000000000000000000000000000000000000000000000000000000008152600401611cb8906131de565b60405180910390fd5b6000841415611d05576040517f08c379a0000000000000000000000000000000000000000000000000000000008152600401611cfc90613545565b60405180910390fd5b6000611d0f61218c565b90506000826020015173ffffffffffffffffffffffffffffffffffffffff166370a08231836040518263ffffffff1660e01b8152600401611d509190612821565b60206040518083038186803b158015611d6857600080fd5b505afa158015611d7c573d6000803e3d6000fd5b505050506040513d601f19601f82011682018060405250810190611da09190612c24565b905085811015611de5576040517f08c379a0000000000000000000000000000000000000000000000000000000008152600401611ddc906135b1565b60405180910390fd5b826080015173ffffffffffffffffffffffffffffffffffffffff168273ffffffffffffffffffffffffffffffffffffffff1614158015611e5557508173ffffffffffffffffffffffffffffffffffffffff16836060015173ffffffffffffffffffffffffffffffffffffffff1614155b611e94576040517f08c379a0000000000000000000000000000000000000000000000000000000008152600401611e8b9061361d565b60405180910390fd5b826020015173ffffffffffffffffffffffffffffffffffffffff166323b872dd838560800151896040518463ffffffff1660e01b8152600401611ed99392919061363d565b602060405180830381600087803b158015611ef357600080fd5b505af1158015611f07573d6000803e3d6000fd5b505050506040513d601f19601f82011682018060405250810190611f2b9190612cc7565b5050507f8f82f57fa6a429e89344264fadadf3f3a07e100001a3ba02a20cd57f5a27cf4f85858360000151604051611f65939291906132ae565b60405180910390a160019250505092915050565b611f8161218c565b73ffffffffffffffffffffffffffffffffffffffff16611f9f610f12565b73ffffffffffffffffffffffffffffffffffffffff1614611ff5576040517f08c379a0000000000000000000000000000000000000000000000000000000008152600401611fec906136c0565b60405180910390fd5b565b6000603360009054906101000a900473ffffffffffffffffffffffffffffffffffffffff16905081603360006101000a81548173ffffffffffffffffffffffffffffffffffffffff021916908373ffffffffffffffffffffffffffffffffffffffff1602179055508173ffffffffffffffffffffffffffffffffffffffff168173ffffffffffffffffffffffffffffffffffffffff167f8be0079c531659141344cd1fd0a4f28419497f9722a3daafe3b4186f6b6457e060405160405180910390a35050565b6000808273ffffffffffffffffffffffffffffffffffffffff163b119050919050565b6120e8612194565b620186a0606581905550565b6000818051906020012060001c9050919050565b612110611f79565b600073ffffffffffffffffffffffffffffffffffffffff168173ffffffffffffffffffffffffffffffffffffffff161415612180576040517f08c379a000000000000000000000000000000000000000000000000000000000815260040161217790612d66565b60405180910390fd5b61218981611ff7565b50565b600033905090565b600060019054906101000a900460ff166121e3576040517f08c379a00000000000000000000000000000000000000000000000000000000081526004016121da90613752565b60405180910390fd5b6121eb6121ed565b565b600060019054906101000a900460ff1661223c576040517f08c379a000000000000000000000000000000000000000000000000000000000815260040161223390613752565b60405180910390fd5b61224c61224761218c565b611ff7565b565b60405180610100016040528060008152602001600073ffffffffffffffffffffffffffffffffffffffff168152602001600073ffffffffffffffffffffffffffffffffffffffff168152602001600073ffffffffffffffffffffffffffffffffffffffff168152602001600073ffffffffffffffffffffffffffffffffffffffff1681526020016000815260200160008152602001600081525090565b6000604051905090565b600080fd5b600080fd5b600073ffffffffffffffffffffffffffffffffffffffff82169050919050565b600061232a826122ff565b9050919050565b600061233c8261231f565b9050919050565b61234c81612331565b811461235757600080fd5b50565b60008135905061236981612343565b92915050565b600061237a826122ff565b9050919050565b61238a8161236f565b811461239557600080fd5b50565b6000813590506123a781612381565b92915050565b6000819050919050565b6123c0816123ad565b81146123cb57600080fd5b50565b6000813590506123dd816123b7565b92915050565b6000806000606084860312156123fc576123fb6122f5565b5b600061240a8682870161235a565b935050602061241b86828701612398565b925050604061242c868287016123ce565b9150509250925092565b60008115159050919050565b61244b81612436565b82525050565b60006020820190506124666000830184612442565b92915050565b612475816123ad565b82525050565b6000602082019050612490600083018461246c565b92915050565b61249f8161231f565b81146124aa57600080fd5b50565b6000813590506124bc81612496565b92915050565b600080fd5b600080fd5b6000601f19601f8301169050919050565b7f4e487b7100000000000000000000000000000000000000000000000000000000600052604160045260246000fd5b612515826124cc565b810181811067ffffffffffffffff82111715612534576125336124dd565b5b80604052505050565b60006125476122eb565b9050612553828261250c565b919050565b600067ffffffffffffffff821115612573576125726124dd565b5b61257c826124cc565b9050602081019050919050565b82818337600083830152505050565b60006125ab6125a684612558565b61253d565b9050828152602081018484840111156125c7576125c66124c7565b5b6125d2848285612589565b509392505050565b600082601f8301126125ef576125ee6124c2565b5b81356125ff848260208601612598565b91505092915050565b6000806040838503121561261f5761261e6122f5565b5b600061262d858286016124ad565b925050602083013567ffffffffffffffff81111561264e5761264d6122fa565b5b61265a858286016125da565b9150509250929050565b6000806040838503121561267b5761267a6122f5565b5b600083013567ffffffffffffffff811115612699576126986122fa565b5b6126a5858286016125da565b925050602083013567ffffffffffffffff8111156126c6576126c56122fa565b5b6126d2858286016125da565b9150509250929050565b6000602082840312156126f2576126f16122f5565b5b600082013567ffffffffffffffff8111156127105761270f6122fa565b5b61271c848285016125da565b91505092915050565b60006127308261231f565b9050919050565b61274081612725565b811461274b57600080fd5b50565b60008135905061275d81612737565b92915050565b60008060006060848603121561277c5761277b6122f5565b5b600061278a8682870161274e565b935050602061279b86828701612398565b92505060406127ac868287016123ce565b9150509250925092565b600080604083850312156127cd576127cc6122f5565b5b600083013567ffffffffffffffff8111156127eb576127ea6122fa565b5b6127f7858286016125da565b9250506020612808858286016123ce565b9150509250929050565b61281b8161231f565b82525050565b60006020820190506128366000830184612812565b92915050565b600060208284031215612852576128516122f5565b5b6000612860848285016123ce565b91505092915050565b600080600060608486031215612882576128816122f5565b5b600084013567ffffffffffffffff8111156128a05761289f6122fa565b5b6128ac868287016125da565b93505060206128bd868287016123ce565b92505060406128ce868287016123ce565b9150509250925092565b6128e1816123ad565b82525050565b6000819050919050565b600061290c612907612902846122ff565b6128e7565b6122ff565b9050919050565b600061291e826128f1565b9050919050565b600061293082612913565b9050919050565b61294081612925565b82525050565b61294f8161231f565b82525050565b6101008201600082015161296c60008501826128d8565b50602082015161297f6020850182612937565b5060408201516129926040850182612937565b5060608201516129a56060850182612946565b5060808201516129b86080850182612946565b5060a08201516129cb60a08501826128d8565b5060c08201516129de60c08501826128d8565b5060e08201516129f160e08501826128d8565b50505050565b600061010082019050612a0d6000830184612955565b92915050565b60008060008060008060008060006101208a8c031215612a3657612a356122f5565b5b60008a013567ffffffffffffffff811115612a5457612a536122fa565b5b612a608c828d016125da565b9950506020612a718c828d016123ce565b9850506040612a828c828d0161235a565b9750506060612a938c828d0161235a565b9650506080612aa48c828d016124ad565b95505060a0612ab58c828d016124ad565b94505060c0612ac68c828d016123ce565b93505060e0612ad78c828d016123ce565b925050610100612ae98c828d016123ce565b9150509295985092959850929598565b600060208284031215612b0f57612b0e6122f5565b5b6000612b1d848285016124ad565b91505092915050565b600082825260208201905092915050565b7f63616e206e6f74207472616e7366657220746f2073656c660000000000000000600082015250565b6000612b6d601883612b26565b9150612b7882612b37565b602082019050919050565b60006020820190508181036000830152612b9c81612b60565b9050919050565b7f6e6f7420656e6f75676820746f6b656e2062616c616e63650000000000000000600082015250565b6000612bd9601883612b26565b9150612be482612ba3565b602082019050919050565b60006020820190508181036000830152612c0881612bcc565b9050919050565b600081519050612c1e816123b7565b92915050565b600060208284031215612c3a57612c396122f5565b5b6000612c4884828501612c0f565b91505092915050565b6000612c5c82612913565b9050919050565b612c6c81612c51565b82525050565b6000604082019050612c876000830185612c63565b612c94602083018461246c565b9392505050565b612ca481612436565b8114612caf57600080fd5b50565b600081519050612cc181612c9b565b92915050565b600060208284031215612cdd57612cdc6122f5565b5b6000612ceb84828501612cb2565b91505092915050565b7f4f776e61626c653a206e6577206f776e657220697320746865207a65726f206160008201527f6464726573730000000000000000000000000000000000000000000000000000602082015250565b6000612d50602683612b26565b9150612d5b82612cf4565b604082019050919050565b60006020820190508181036000830152612d7f81612d43565b9050919050565b7f73656375726974795472616e736665724f776e657273686970206661696c656460008201527f2e20000000000000000000000000000000000000000000000000000000000000602082015250565b6000612de2602283612b26565b9150612ded82612d86565b604082019050919050565b60006020820190508181036000830152612e1181612dd5565b9050919050565b7f536563757269747920636865636b20636f6465206661696c65642e2000000000600082015250565b6000612e4e601c83612b26565b9150612e5982612e18565b602082019050919050565b60006020820190508181036000830152612e7d81612e41565b9050919050565b7f7365745365637572697479436f6465206661696c65642e200000000000000000600082015250565b6000612eba601883612b26565b9150612ec582612e84565b602082019050919050565b60006020820190508181036000830152612ee981612ead565b9050919050565b600081519050919050565b600081905092915050565b60005b83811015612f24578082015181840152602081019050612f09565b83811115612f33576000848401525b50505050565b6000612f4482612ef0565b612f4e8185612efb565b9350612f5e818560208601612f06565b80840191505092915050565b6000612f768285612f39565b9150612f828284612f39565b91508190509392505050565b7f736f7572636520546f6b656e206d75737420436f6e7472616374000000000000600082015250565b6000612fc4601a83612b26565b9150612fcf82612f8e565b602082019050919050565b60006020820190508181036000830152612ff381612fb7565b9050919050565b7f736f75726365546f6b656e20697320696e76616c696400000000000000000000600082015250565b6000613030601683612b26565b915061303b82612ffa565b602082019050919050565b6000602082019050818103600083015261305f81613023565b9050919050565b600060608201905061307b6000830186612812565b6130886020830185612c63565b613095604083018461246c565b949350505050565b7f496e697469616c697a61626c653a20636f6e747261637420697320616c72656160008201527f647920696e697469616c697a6564000000000000000000000000000000000000602082015250565b60006130f9602e83612b26565b91506131048261309d565b604082019050919050565b60006020820190508181036000830152613128816130ec565b9050919050565b6000819050919050565b600060ff82169050919050565b600061316161315c6131578461312f565b6128e7565b613139565b9050919050565b61317181613146565b82525050565b600060208201905061318c6000830184613168565b92915050565b7f436f6e666967206e6f7420657869737400000000000000000000000000000000600082015250565b60006131c8601083612b26565b91506131d382613192565b602082019050919050565b600060208201905081810360008301526131f7816131bb565b9050919050565b7f76616c7565206e6f74206368616e676500000000000000000000000000000000600082015250565b6000613234601083612b26565b915061323f826131fe565b602082019050919050565b6000602082019050818103600083015261326381613227565b9050919050565b600081519050919050565b60006132808261326a565b61328a8185612b26565b935061329a818560208601612f06565b6132a3816124cc565b840191505092915050565b600060608201905081810360008301526132c88186613275565b90506132d7602083018561246c565b6132e4604083018461246c565b949350505050565b7f736f7572636520546f6b656e20436f6e7472616374206e6f7420736574000000600082015250565b6000613322601d83612b26565b915061332d826132ec565b602082019050919050565b6000602082019050818103600083015261335181613315565b9050919050565b7f74617267657420546f6b656e20436f6e7472616374206e6f7420736574000000600082015250565b600061338e601d83612b26565b915061339982613358565b602082019050919050565b600060208201905081810360008301526133bd81613381565b9050919050565b6133cd81612925565b82525050565b60006101208201905081810360008301526133ee818c613275565b90506133fd602083018b61246c565b61340a604083018a6133c4565b61341760608301896133c4565b6134246080830188612812565b61343160a0830187612812565b61343e60c083018661246c565b61344b60e083018561246c565b61345961010083018461246c565b9a9950505050505050505050565b7f536563757269747920636865636b206661696c65642e204e656564205365637560008201527f7269747920436f64650000000000000000000000000000000000000000000000602082015250565b60006134c3602983612b26565b91506134ce82613467565b604082019050919050565b600060208201905081810360008301526134f2816134b6565b9050919050565b7f616d6f756e7420697320696e76616c6964000000000000000000000000000000600082015250565b600061352f601183612b26565b915061353a826134f9565b602082019050919050565b6000602082019050818103600083015261355e81613522565b9050919050565b7f6e6f7420656e6f75676820736f7572636520746f6b656e2062616c616e636500600082015250565b600061359b601f83612b26565b91506135a682613565565b602082019050919050565b600060208201905081810360008301526135ca8161358e565b9050919050565b7f63616e206e6f7420506f6f6c2066726f6d2073656c6600000000000000000000600082015250565b6000613607601683612b26565b9150613612826135d1565b602082019050919050565b60006020820190508181036000830152613636816135fa565b9050919050565b60006060820190506136526000830186612812565b61365f6020830185612812565b61366c604083018461246c565b949350505050565b7f4f776e61626c653a2063616c6c6572206973206e6f7420746865206f776e6572600082015250565b60006136aa602083612b26565b91506136b582613674565b602082019050919050565b600060208201905081810360008301526136d98161369d565b9050919050565b7f496e697469616c697a61626c653a20636f6e7472616374206973206e6f74206960008201527f6e697469616c697a696e67000000000000000000000000000000000000000000602082015250565b600061373c602b83612b26565b9150613747826136e0565b604082019050919050565b6000602082019050818103600083015261376b8161372f565b905091905056fea26469706673582212202a10a56d140674c45772211c188a7f5f7645a0de9b3cdae6a755dbd6080783f964736f6c63430008090033",
  "linkReferences": {},
  "deployedLinkReferences": {}
}