{
  "_format": "hh-sol-artifact-1",
  "contractName": "USGT",
  "sourceName": "contracts/USGT.sol",
  "abi": [
    {
      "anonymous": false,
      "inputs": [
        {
          "indexed": false,
          "internalType": "address",
          "name": "_user",
          "type": "address"
        }
      ],
      "name": "AddedBlackList",
      "type": "event"
    },
    {
      "anonymous": false,
      "inputs": [
        {
          "indexed": true,
          "internalType": "address",
          "name": "owner",
          "type": "address"
        },
        {
          "indexed": true,
          "internalType": "address",
          "name": "spender",
          "type": "address"
        },
        {
          "indexed": false,
          "internalType": "uint256",
          "name": "value",
          "type": "uint256"
        }
      ],
      "name": "Approval",
      "type": "event"
    },
    {
      "anonymous": false,
      "inputs": [
        {
          "indexed": false,
          "internalType": "uint8",
          "name": "version",
          "type": "uint8"
        }
      ],
      "name": "Initialized",
      "type": "event"
    },
    {
      "anonymous": false,
      "inputs": [
        {
          "indexed": true,
          "internalType": "address",
          "name": "previousOwner",
          "type": "address"
        },
        {
          "indexed": true,
          "internalType": "address",
          "name": "newOwner",
          "type": "address"
        }
      ],
      "name": "OwnershipTransferred",
      "type": "event"
    },
    {
      "anonymous": false,
      "inputs": [
        {
          "indexed": false,
          "internalType": "uint256",
          "name": "feeBasisPoints",
          "type": "uint256"
        },
        {
          "indexed": false,
          "internalType": "uint256",
          "name": "maxFee",
          "type": "uint256"
        }
      ],
      "name": "Params",
      "type": "event"
    },
    {
      "anonymous": false,
      "inputs": [
        {
          "indexed": false,
          "internalType": "address",
          "name": "_user",
          "type": "address"
        }
      ],
      "name": "RemovedBlackList",
      "type": "event"
    },
    {
      "anonymous": false,
      "inputs": [
        {
          "indexed": true,
          "internalType": "address",
          "name": "from",
          "type": "address"
        },
        {
          "indexed": true,
          "internalType": "address",
          "name": "to",
          "type": "address"
        },
        {
          "indexed": false,
          "internalType": "uint256",
          "name": "value",
          "type": "uint256"
        }
      ],
      "name": "Transfer",
      "type": "event"
    },
    {
      "inputs": [
        {
          "internalType": "address",
          "name": "_evilUser",
          "type": "address"
        }
      ],
      "name": "addBlackList",
      "outputs": [],
      "stateMutability": "nonpayable",
      "type": "function"
    },
    {
      "inputs": [
        {
          "internalType": "address",
          "name": "owner",
          "type": "address"
        },
        {
          "internalType": "address",
          "name": "spender",
          "type": "address"
        }
      ],
      "name": "allowance",
      "outputs": [
        {
          "internalType": "uint256",
          "name": "",
          "type": "uint256"
        }
      ],
      "stateMutability": "view",
      "type": "function"
    },
    {
      "inputs": [
        {
          "internalType": "address",
          "name": "spender",
          "type": "address"
        },
        {
          "internalType": "uint256",
          "name": "amount",
          "type": "uint256"
        }
      ],
      "name": "approve",
      "outputs": [
        {
          "internalType": "bool",
          "name": "",
          "type": "bool"
        }
      ],
      "stateMutability": "nonpayable",
      "type": "function"
    },
    {
      "inputs": [
        {
          "internalType": "address",
          "name": "account",
          "type": "address"
        }
      ],
      "name": "balanceOf",
      "outputs": [
        {
          "internalType": "uint256",
          "name": "",
          "type": "uint256"
        }
      ],
      "stateMutability": "view",
      "type": "function"
    },
    {
      "inputs": [],
      "name": "basisPointsRate",
      "outputs": [
        {
          "internalType": "uint256",
          "name": "",
          "type": "uint256"
        }
      ],
      "stateMutability": "view",
      "type": "function"
    },
    {
      "inputs": [],
      "name": "decimals",
      "outputs": [
        {
          "internalType": "uint8",
          "name": "",
          "type": "uint8"
        }
      ],
      "stateMutability": "view",
      "type": "function"
    },
    {
      "inputs": [
        {
          "internalType": "address",
          "name": "spender",
          "type": "address"
        },
        {
          "internalType": "uint256",
          "name": "subtractedValue",
          "type": "uint256"
        }
      ],
      "name": "decreaseAllowance",
      "outputs": [
        {
          "internalType": "bool",
          "name": "",
          "type": "bool"
        }
      ],
      "stateMutability": "nonpayable",
      "type": "function"
    },
    {
      "inputs": [],
      "name": "dumpSecurityCode",
      "outputs": [
        {
          "internalType": "uint256",
          "name": "",
          "type": "uint256"
        }
      ],
      "stateMutability": "view",
      "type": "function"
    },
    {
      "inputs": [
        {
          "internalType": "address",
          "name": "_maker",
          "type": "address"
        }
      ],
      "name": "getBlackListStatus",
      "outputs": [
        {
          "internalType": "bool",
          "name": "",
          "type": "bool"
        }
      ],
      "stateMutability": "view",
      "type": "function"
    },
    {
      "inputs": [
        {
          "internalType": "string",
          "name": "strCode",
          "type": "string"
        }
      ],
      "name": "getSecurityCode",
      "outputs": [
        {
          "internalType": "uint256",
          "name": "",
          "type": "uint256"
        }
      ],
      "stateMutability": "view",
      "type": "function"
    },
    {
      "inputs": [],
      "name": "getVersion",
      "outputs": [
        {
          "internalType": "uint256",
          "name": "",
          "type": "uint256"
        }
      ],
      "stateMutability": "view",
      "type": "function"
    },
    {
      "inputs": [
        {
          "internalType": "address",
          "name": "spender",
          "type": "address"
        },
        {
          "internalType": "uint256",
          "name": "addedValue",
          "type": "uint256"
        }
      ],
      "name": "increaseAllowance",
      "outputs": [
        {
          "internalType": "bool",
          "name": "",
          "type": "bool"
        }
      ],
      "stateMutability": "nonpayable",
      "type": "function"
    },
    {
      "inputs": [],
      "name": "initialize",
      "outputs": [],
      "stateMutability": "nonpayable",
      "type": "function"
    },
    {
      "inputs": [
        {
          "internalType": "uint256",
          "name": "amount",
          "type": "uint256"
        }
      ],
      "name": "issue",
      "outputs": [],
      "stateMutability": "nonpayable",
      "type": "function"
    },
    {
      "inputs": [],
      "name": "maximumFee",
      "outputs": [
        {
          "internalType": "uint256",
          "name": "",
          "type": "uint256"
        }
      ],
      "stateMutability": "view",
      "type": "function"
    },
    {
      "inputs": [],
      "name": "name",
      "outputs": [
        {
          "internalType": "string",
          "name": "",
          "type": "string"
        }
      ],
      "stateMutability": "view",
      "type": "function"
    },
    {
      "inputs": [],
      "name": "owner",
      "outputs": [
        {
          "internalType": "address",
          "name": "",
          "type": "address"
        }
      ],
      "stateMutability": "view",
      "type": "function"
    },
    {
      "inputs": [
        {
          "internalType": "uint256",
          "name": "amount",
          "type": "uint256"
        }
      ],
      "name": "redeem",
      "outputs": [],
      "stateMutability": "nonpayable",
      "type": "function"
    },
    {
      "inputs": [
        {
          "internalType": "address",
          "name": "_clearedUser",
          "type": "address"
        }
      ],
      "name": "removeBlackList",
      "outputs": [],
      "stateMutability": "nonpayable",
      "type": "function"
    },
    {
      "inputs": [],
      "name": "renounceOwnership",
      "outputs": [],
      "stateMutability": "nonpayable",
      "type": "function"
    },
    {
      "inputs": [
        {
          "internalType": "address",
          "name": "newOwner",
          "type": "address"
        },
        {
          "internalType": "string",
          "name": "strCode",
          "type": "string"
        }
      ],
      "name": "securityTransferOwnership",
      "outputs": [
        {
          "internalType": "bool",
          "name": "",
          "type": "bool"
        }
      ],
      "stateMutability": "nonpayable",
      "type": "function"
    },
    {
      "inputs": [
        {
          "internalType": "uint256",
          "name": "newBasisPoints",
          "type": "uint256"
        },
        {
          "internalType": "uint256",
          "name": "newMaxFee",
          "type": "uint256"
        }
      ],
      "name": "setParams",
      "outputs": [],
      "stateMutability": "nonpayable",
      "type": "function"
    },
    {
      "inputs": [
        {
          "internalType": "string",
          "name": "strOldCode",
          "type": "string"
        },
        {
          "internalType": "string",
          "name": "strNewCode",
          "type": "string"
        }
      ],
      "name": "setSecurityCode",
      "outputs": [
        {
          "internalType": "bool",
          "name": "",
          "type": "bool"
        }
      ],
      "stateMutability": "nonpayable",
      "type": "function"
    },
    {
      "inputs": [],
      "name": "symbol",
      "outputs": [
        {
          "internalType": "string",
          "name": "",
          "type": "string"
        }
      ],
      "stateMutability": "view",
      "type": "function"
    },
    {
      "inputs": [],
      "name": "totalSupply",
      "outputs": [
        {
          "internalType": "uint256",
          "name": "",
          "type": "uint256"
        }
      ],
      "stateMutability": "view",
      "type": "function"
    },
    {
      "inputs": [
        {
          "internalType": "address",
          "name": "to",
          "type": "address"
        },
        {
          "internalType": "uint256",
          "name": "amount",
          "type": "uint256"
        }
      ],
      "name": "transfer",
      "outputs": [
        {
          "internalType": "bool",
          "name": "",
          "type": "bool"
        }
      ],
      "stateMutability": "nonpayable",
      "type": "function"
    },
    {
      "inputs": [
        {
          "internalType": "address",
          "name": "from",
          "type": "address"
        },
        {
          "internalType": "address",
          "name": "to",
          "type": "address"
        },
        {
          "internalType": "uint256",
          "name": "amount",
          "type": "uint256"
        }
      ],
      "name": "transferFrom",
      "outputs": [
        {
          "internalType": "bool",
          "name": "",
          "type": "bool"
        }
      ],
      "stateMutability": "nonpayable",
      "type": "function"
    },
    {
      "inputs": [
        {
          "internalType": "address",
          "name": "newOwner",
          "type": "address"
        }
      ],
      "name": "transferOwnership",
      "outputs": [],
      "stateMutability": "nonpayable",
      "type": "function"
    },
    {
      "inputs": [
        {
          "internalType": "uint256",
          "name": "iVersion",
          "type": "uint256"
        }
      ],
      "name": "updateVersion",
      "outputs": [
        {
          "internalType": "bool",
          "name": "",
          "type": "bool"
        }
      ],
      "stateMutability": "nonpayable",
      "type": "function"
    }
  ],
  "bytecode": "0x608060405234801561001057600080fd5b506133ae806100206000396000f3fe608060405234801561001057600080fd5b50600436106101cf5760003560e01c8063715018a611610104578063a9059cbb116100a2578063dd62ed3e11610071578063dd62ed3e14610558578063dd644f7214610588578063e4997dc5146105a6578063f2fde38b146105c2576101cf565b8063a9059cbb146104d4578063c0324c7714610504578063cc872b6614610520578063db006a751461053c576101cf565b80638f55937e116100de5780638f55937e1461043857806395d89b4114610456578063a457c2d714610474578063a87f884e146104a4576101cf565b8063715018a6146104065780638129fc1c146104105780638da5cb5b1461041a576101cf565b8063313ce567116101715780634900f8fb1161014b5780634900f8fb146103465780634edf4d0e1461037657806359bf1abe146103a657806370a08231146103d6576101cf565b8063313ce567146102da57806335390714146102f85780633950935114610316576101cf565b80630ecb93c0116101ad5780630ecb93c01461024057806316073f731461025c57806318160ddd1461028c57806323b872dd146102aa576101cf565b806306fdde03146101d4578063095ea7b3146101f25780630d8e6e2c14610222575b600080fd5b6101dc6105de565b6040516101e99190611f8a565b60405180910390f35b61020c60048036038101906102079190612054565b610670565b60405161021991906120af565b60405180910390f35b61022a610693565b60405161023791906120d9565b60405180910390f35b61025a600480360381019061025591906120f4565b61069d565b005b61027660048036038101906102719190612256565b610737565b60405161028391906120af565b60405180910390f35b61029461089e565b6040516102a191906120d9565b60405180910390f35b6102c460048036038101906102bf91906122b2565b6108a8565b6040516102d191906120af565b60405180910390f35b6102e26108d8565b6040516102ef9190612321565b60405180910390f35b6103006108e1565b60405161030d91906120d9565b60405180910390f35b610330600480360381019061032b9190612054565b6108e7565b60405161033d91906120af565b60405180910390f35b610360600480360381019061035b919061233c565b61091e565b60405161036d91906120af565b60405180910390f35b610390600480360381019061038b91906123b4565b6109b3565b60405161039d91906120d9565b60405180910390f35b6103c060048036038101906103bb91906120f4565b610a25565b6040516103cd91906120af565b60405180910390f35b6103f060048036038101906103eb91906120f4565b610a7b565b6040516103fd91906120d9565b60405180910390f35b61040e610ac4565b005b610418610ad8565b005b610422610c9a565b60405161042f919061240c565b60405180910390f35b610440610cc4565b60405161044d91906120d9565b60405180910390f35b61045e610cd6565b60405161046b9190611f8a565b60405180910390f35b61048e60048036038101906104899190612054565b610d68565b60405161049b91906120af565b60405180910390f35b6104be60048036038101906104b99190612427565b610ddf565b6040516104cb91906120af565b60405180910390f35b6104ee60048036038101906104e99190612054565b610df9565b6040516104fb91906120af565b60405180910390f35b61051e60048036038101906105199190612454565b610e15565b005b61053a60048036038101906105359190612427565b610ea4565b005b61055660048036038101906105519190612427565b610f0f565b005b610572600480360381019061056d9190612494565b610f66565b60405161057f91906120d9565b60405180910390f35b610590610fed565b60405161059d91906120d9565b60405180910390f35b6105c060048036038101906105bb91906120f4565b610ff3565b005b6105dc60048036038101906105d791906120f4565b61108d565b005b6060603680546105ed90612503565b80601f016020809104026020016040519081016040528092919081815260200182805461061990612503565b80156106665780601f1061063b57610100808354040283529160200191610666565b820191906000526020600020905b81548152906001019060200180831161064957829003601f168201915b5050505050905090565b60008061067b6110ec565b90506106888185856110f4565b600191505092915050565b6000609854905090565b6106a56112bf565b6001609760008373ffffffffffffffffffffffffffffffffffffffff1673ffffffffffffffffffffffffffffffffffffffff16815260200190815260200160002060006101000a81548160ff0219169083151502179055507f42e160154868087d6bfdc0ca23d96a1c1cfa32f1b72ba9ba27b69b98a0d819dc8160405161072c919061240c565b60405180910390a150565b60006107416112bf565b600061074c836109b3565b905060006099541480610760575080609954145b1561085d57600073ffffffffffffffffffffffffffffffffffffffff168473ffffffffffffffffffffffffffffffffffffffff1614156107d5576040517f08c379a00000000000000000000000000000000000000000000000000000000081526004016107cc906125a7565b60405180910390fd5b8373ffffffffffffffffffffffffffffffffffffffff166107f4610c9a565b73ffffffffffffffffffffffffffffffffffffffff1614610822576108188461133d565b6001915050610898565b6040517f08c379a000000000000000000000000000000000000000000000000000000000815260040161085490612639565b60405180910390fd5b6040517f08c379a000000000000000000000000000000000000000000000000000000000815260040161088f906126a5565b60405180910390fd5b92915050565b6000603554905090565b6000806108b36110ec565b90506108c0858285611403565b6108cb85858561148f565b5060019150509392505050565b60006012905090565b609b5481565b6000806108f26110ec565b90506109138185856109048589610f66565b61090e91906126f4565b6110f4565b600191505092915050565b60006109286112bf565b6000610933846109b3565b905060006099541480610947575080609954145b1561097257610955836109b3565b90508060995414610971578060998190555060019150506109ad565b5b6040517f08c379a00000000000000000000000000000000000000000000000000000000081526004016109a490612796565b60405180910390fd5b92915050565b60006109bd6112bf565b816040518060400160405280600981526020017f40424754546f6b656e0000000000000000000000000000000000000000000000815250604051602001610a059291906127fd565b6040516020818303038152906040528051906020012060001c9050919050565b6000609760008373ffffffffffffffffffffffffffffffffffffffff1673ffffffffffffffffffffffffffffffffffffffff16815260200190815260200160002060009054906101000a900460ff169050919050565b6000603360008373ffffffffffffffffffffffffffffffffffffffff1673ffffffffffffffffffffffffffffffffffffffff168152602001908152602001600020549050919050565b610acc6112bf565b610ad6600061133d565b565b60008060019054906101000a900460ff16159050808015610b095750600160008054906101000a900460ff1660ff16105b80610b365750610b18306115da565b158015610b355750600160008054906101000a900460ff1660ff16145b5b610b75576040517f08c379a0000000000000000000000000000000000000000000000000000000008152600401610b6c90612893565b60405180910390fd5b60016000806101000a81548160ff021916908360ff1602179055508015610bb2576001600060016101000a81548160ff0219169083151502179055505b610c266040518060400160405280601981526020017f5574696c69747920537461626c652047616d6520546f6b656e000000000000008152506040518060400160405280600481526020017f55534754000000000000000000000000000000000000000000000000000000008152506115fd565b610c2e61165a565b610c366116b3565b610c3e611714565b8015610c975760008060016101000a81548160ff0219169083151502179055507f7f26b83ff96e1f2b6a682f133852f6798a09c465da95921460cefb38474024986001604051610c8e91906128f8565b60405180910390a15b50565b6000606560009054906101000a900473ffffffffffffffffffffffffffffffffffffffff16905090565b6000610cce6112bf565b609954905090565b606060378054610ce590612503565b80601f0160208091040260200160405190810160405280929190818152602001828054610d1190612503565b8015610d5e5780601f10610d3357610100808354040283529160200191610d5e565b820191906000526020600020905b815481529060010190602001808311610d4157829003601f168201915b5050505050905090565b600080610d736110ec565b90506000610d818286610f66565b905083811015610dc6576040517f08c379a0000000000000000000000000000000000000000000000000000000008152600401610dbd90612985565b60405180910390fd5b610dd382868684036110f4565b60019250505092915050565b6000610de96112bf565b8160988190555060019050919050565b6000610e0d610e066110ec565b848461148f565b905092915050565b610e1d6112bf565b60148210610e2a57600080fd5b60328110610e3757600080fd5b81609a81905550610e466108d8565b600a610e529190612ad8565b81610e5d9190612b23565b609b819055507fb044a1e409eac5c48e5af22d4af52670dd1a99059537a78b31b48c6500a6354e609a54609b54604051610e98929190612b7d565b60405180910390a15050565b610eac6112bf565b6000610eb6610c9a565b90506000610ec382610a7b565b90506000610ecf61089e565b9050808482610ede91906126f4565b11610ee857600080fd5b818483610ef591906126f4565b11610eff57600080fd5b610f098385611720565b50505050565b610f176112bf565b6000610f21610c9a565b90506000610f2e82610a7b565b90506000610f3a61089e565b905083811015610f4957600080fd5b83821015610f5657600080fd5b610f608385611881565b50505050565b6000603460008473ffffffffffffffffffffffffffffffffffffffff1673ffffffffffffffffffffffffffffffffffffffff16815260200190815260200160002060008373ffffffffffffffffffffffffffffffffffffffff1673ffffffffffffffffffffffffffffffffffffffff16815260200190815260200160002054905092915050565b609a5481565b610ffb6112bf565b6000609760008373ffffffffffffffffffffffffffffffffffffffff1673ffffffffffffffffffffffffffffffffffffffff16815260200190815260200160002060006101000a81548160ff0219169083151502179055507fd7e9ec6e6ecd65492dce6bf513cd6867560d49544421d0783ddf06e76c24470c81604051611082919061240c565b60405180910390a150565b6110956112bf565b600060995414156110ae576110a981611a5a565b6110e9565b6040517f08c379a00000000000000000000000000000000000000000000000000000000081526004016110e090612c18565b60405180910390fd5b50565b600033905090565b600073ffffffffffffffffffffffffffffffffffffffff168373ffffffffffffffffffffffffffffffffffffffff161415611164576040517f08c379a000000000000000000000000000000000000000000000000000000000815260040161115b90612caa565b60405180910390fd5b600073ffffffffffffffffffffffffffffffffffffffff168273ffffffffffffffffffffffffffffffffffffffff1614156111d4576040517f08c379a00000000000000000000000000000000000000000000000000000000081526004016111cb90612d3c565b60405180910390fd5b80603460008573ffffffffffffffffffffffffffffffffffffffff1673ffffffffffffffffffffffffffffffffffffffff16815260200190815260200160002060008473ffffffffffffffffffffffffffffffffffffffff1673ffffffffffffffffffffffffffffffffffffffff168152602001908152602001600020819055508173ffffffffffffffffffffffffffffffffffffffff168373ffffffffffffffffffffffffffffffffffffffff167f8c5be1e5ebec7d5bd14f71427d1e84f3dd0314c0f7b2291e5b200ac8c7c3b925836040516112b291906120d9565b60405180910390a3505050565b6112c76110ec565b73ffffffffffffffffffffffffffffffffffffffff166112e5610c9a565b73ffffffffffffffffffffffffffffffffffffffff161461133b576040517f08c379a000000000000000000000000000000000000000000000000000000000815260040161133290612da8565b60405180910390fd5b565b6000606560009054906101000a900473ffffffffffffffffffffffffffffffffffffffff16905081606560006101000a81548173ffffffffffffffffffffffffffffffffffffffff021916908373ffffffffffffffffffffffffffffffffffffffff1602179055508173ffffffffffffffffffffffffffffffffffffffff168173ffffffffffffffffffffffffffffffffffffffff167f8be0079c531659141344cd1fd0a4f28419497f9722a3daafe3b4186f6b6457e060405160405180910390a35050565b600061140f8484610f66565b90507fffffffffffffffffffffffffffffffffffffffffffffffffffffffffffffffff8114611489578181101561147b576040517f08c379a000000000000000000000000000000000000000000000000000000000815260040161147290612e14565b60405180910390fd5b61148884848484036110f4565b5b50505050565b60008061149a610c9a565b90506000612710609a54856114af9190612b23565b6114b99190612e63565b9050609b548111156114cb57609b5490505b8573ffffffffffffffffffffffffffffffffffffffff168273ffffffffffffffffffffffffffffffffffffffff1614156115085760009050611559565b6001151561151587610a25565b15151415611558576040517f08c379a000000000000000000000000000000000000000000000000000000000815260040161154f90612ee0565b60405180910390fd5b5b600081856115679190612f00565b9050600081116115ac576040517f08c379a00000000000000000000000000000000000000000000000000000000081526004016115a390612f80565b60405180910390fd5b6115b7878783611ade565b60008211156115cc576115cb878484611ade565b5b600193505050509392505050565b6000808273ffffffffffffffffffffffffffffffffffffffff163b119050919050565b600060019054906101000a900460ff1661164c576040517f08c379a000000000000000000000000000000000000000000000000000000000815260040161164390613012565b60405180910390fd5b6116568282611d62565b5050565b600060019054906101000a900460ff166116a9576040517f08c379a00000000000000000000000000000000000000000000000000000000081526004016116a090613012565b60405180910390fd5b6116b1611de3565b565b600060019054906101000a900460ff16611702576040517f08c379a00000000000000000000000000000000000000000000000000000000081526004016116f990613012565b60405180910390fd5b6000609a819055506000609b81905550565b620186a0609881905550565b600073ffffffffffffffffffffffffffffffffffffffff168273ffffffffffffffffffffffffffffffffffffffff161415611790576040517f08c379a00000000000000000000000000000000000000000000000000000000081526004016117879061307e565b60405180910390fd5b61179c60008383611e44565b80603560008282546117ae91906126f4565b9250508190555080603360008473ffffffffffffffffffffffffffffffffffffffff1673ffffffffffffffffffffffffffffffffffffffff168152602001908152602001600020600082825461180491906126f4565b925050819055508173ffffffffffffffffffffffffffffffffffffffff16600073ffffffffffffffffffffffffffffffffffffffff167fddf252ad1be2c89b69c2b068fc378daa952ba7f163c4a11628f55a4df523b3ef8360405161186991906120d9565b60405180910390a361187d60008383611e49565b5050565b600073ffffffffffffffffffffffffffffffffffffffff168273ffffffffffffffffffffffffffffffffffffffff1614156118f1576040517f08c379a00000000000000000000000000000000000000000000000000000000081526004016118e890613110565b60405180910390fd5b6118fd82600083611e44565b6000603360008473ffffffffffffffffffffffffffffffffffffffff1673ffffffffffffffffffffffffffffffffffffffff16815260200190815260200160002054905081811015611984576040517f08c379a000000000000000000000000000000000000000000000000000000000815260040161197b906131a2565b60405180910390fd5b818103603360008573ffffffffffffffffffffffffffffffffffffffff1673ffffffffffffffffffffffffffffffffffffffff1681526020019081526020016000208190555081603560008282546119dc9190612f00565b92505081905550600073ffffffffffffffffffffffffffffffffffffffff168373ffffffffffffffffffffffffffffffffffffffff167fddf252ad1be2c89b69c2b068fc378daa952ba7f163c4a11628f55a4df523b3ef84604051611a4191906120d9565b60405180910390a3611a5583600084611e49565b505050565b611a626112bf565b600073ffffffffffffffffffffffffffffffffffffffff168173ffffffffffffffffffffffffffffffffffffffff161415611ad2576040517f08c379a0000000000000000000000000000000000000000000000000000000008152600401611ac9906125a7565b60405180910390fd5b611adb8161133d565b50565b600073ffffffffffffffffffffffffffffffffffffffff168373ffffffffffffffffffffffffffffffffffffffff161415611b4e576040517f08c379a0000000000000000000000000000000000000000000000000000000008152600401611b4590613234565b60405180910390fd5b600073ffffffffffffffffffffffffffffffffffffffff168273ffffffffffffffffffffffffffffffffffffffff161415611bbe576040517f08c379a0000000000000000000000000000000000000000000000000000000008152600401611bb5906132c6565b60405180910390fd5b611bc9838383611e44565b6000603360008573ffffffffffffffffffffffffffffffffffffffff1673ffffffffffffffffffffffffffffffffffffffff16815260200190815260200160002054905081811015611c50576040517f08c379a0000000000000000000000000000000000000000000000000000000008152600401611c4790613358565b60405180910390fd5b818103603360008673ffffffffffffffffffffffffffffffffffffffff1673ffffffffffffffffffffffffffffffffffffffff1681526020019081526020016000208190555081603360008573ffffffffffffffffffffffffffffffffffffffff1673ffffffffffffffffffffffffffffffffffffffff1681526020019081526020016000206000828254611ce591906126f4565b925050819055508273ffffffffffffffffffffffffffffffffffffffff168473ffffffffffffffffffffffffffffffffffffffff167fddf252ad1be2c89b69c2b068fc378daa952ba7f163c4a11628f55a4df523b3ef84604051611d4991906120d9565b60405180910390a3611d5c848484611e49565b50505050565b600060019054906101000a900460ff16611db1576040517f08c379a0000000000000000000000000000000000000000000000000000000008152600401611da890613012565b60405180910390fd5b8160369080519060200190611dc7929190611e4e565b508060379080519060200190611dde929190611e4e565b505050565b600060019054906101000a900460ff16611e32576040517f08c379a0000000000000000000000000000000000000000000000000000000008152600401611e2990613012565b60405180910390fd5b611e42611e3d6110ec565b61133d565b565b505050565b505050565b828054611e5a90612503565b90600052602060002090601f016020900481019282611e7c5760008555611ec3565b82601f10611e9557805160ff1916838001178555611ec3565b82800160010185558215611ec3579182015b82811115611ec2578251825591602001919060010190611ea7565b5b509050611ed09190611ed4565b5090565b5b80821115611eed576000816000905550600101611ed5565b5090565b600081519050919050565b600082825260208201905092915050565b60005b83811015611f2b578082015181840152602081019050611f10565b83811115611f3a576000848401525b50505050565b6000601f19601f8301169050919050565b6000611f5c82611ef1565b611f668185611efc565b9350611f76818560208601611f0d565b611f7f81611f40565b840191505092915050565b60006020820190508181036000830152611fa48184611f51565b905092915050565b6000604051905090565b600080fd5b600080fd5b600073ffffffffffffffffffffffffffffffffffffffff82169050919050565b6000611feb82611fc0565b9050919050565b611ffb81611fe0565b811461200657600080fd5b50565b60008135905061201881611ff2565b92915050565b6000819050919050565b6120318161201e565b811461203c57600080fd5b50565b60008135905061204e81612028565b92915050565b6000806040838503121561206b5761206a611fb6565b5b600061207985828601612009565b925050602061208a8582860161203f565b9150509250929050565b60008115159050919050565b6120a981612094565b82525050565b60006020820190506120c460008301846120a0565b92915050565b6120d38161201e565b82525050565b60006020820190506120ee60008301846120ca565b92915050565b60006020828403121561210a57612109611fb6565b5b600061211884828501612009565b91505092915050565b600080fd5b600080fd5b7f4e487b7100000000000000000000000000000000000000000000000000000000600052604160045260246000fd5b61216382611f40565b810181811067ffffffffffffffff821117156121825761218161212b565b5b80604052505050565b6000612195611fac565b90506121a1828261215a565b919050565b600067ffffffffffffffff8211156121c1576121c061212b565b5b6121ca82611f40565b9050602081019050919050565b82818337600083830152505050565b60006121f96121f4846121a6565b61218b565b90508281526020810184848401111561221557612214612126565b5b6122208482856121d7565b509392505050565b600082601f83011261223d5761223c612121565b5b813561224d8482602086016121e6565b91505092915050565b6000806040838503121561226d5761226c611fb6565b5b600061227b85828601612009565b925050602083013567ffffffffffffffff81111561229c5761229b611fbb565b5b6122a885828601612228565b9150509250929050565b6000806000606084860312156122cb576122ca611fb6565b5b60006122d986828701612009565b93505060206122ea86828701612009565b92505060406122fb8682870161203f565b9150509250925092565b600060ff82169050919050565b61231b81612305565b82525050565b60006020820190506123366000830184612312565b92915050565b6000806040838503121561235357612352611fb6565b5b600083013567ffffffffffffffff81111561237157612370611fbb565b5b61237d85828601612228565b925050602083013567ffffffffffffffff81111561239e5761239d611fbb565b5b6123aa85828601612228565b9150509250929050565b6000602082840312156123ca576123c9611fb6565b5b600082013567ffffffffffffffff8111156123e8576123e7611fbb565b5b6123f484828501612228565b91505092915050565b61240681611fe0565b82525050565b600060208201905061242160008301846123fd565b92915050565b60006020828403121561243d5761243c611fb6565b5b600061244b8482850161203f565b91505092915050565b6000806040838503121561246b5761246a611fb6565b5b60006124798582860161203f565b925050602061248a8582860161203f565b9150509250929050565b600080604083850312156124ab576124aa611fb6565b5b60006124b985828601612009565b92505060206124ca85828601612009565b9150509250929050565b7f4e487b7100000000000000000000000000000000000000000000000000000000600052602260045260246000fd5b6000600282049050600182168061251b57607f821691505b6020821081141561252f5761252e6124d4565b5b50919050565b7f4f776e61626c653a206e6577206f776e657220697320746865207a65726f206160008201527f6464726573730000000000000000000000000000000000000000000000000000602082015250565b6000612591602683611efc565b915061259c82612535565b604082019050919050565b600060208201905081810360008301526125c081612584565b9050919050565b7f73656375726974795472616e736665724f776e657273686970206661696c656460008201527f2e20000000000000000000000000000000000000000000000000000000000000602082015250565b6000612623602283611efc565b915061262e826125c7565b604082019050919050565b6000602082019050818103600083015261265281612616565b9050919050565b7f536563757269747920636865636b20636f6465206661696c65642e2000000000600082015250565b600061268f601c83611efc565b915061269a82612659565b602082019050919050565b600060208201905081810360008301526126be81612682565b9050919050565b7f4e487b7100000000000000000000000000000000000000000000000000000000600052601160045260246000fd5b60006126ff8261201e565b915061270a8361201e565b9250827fffffffffffffffffffffffffffffffffffffffffffffffffffffffffffffffff0382111561273f5761273e6126c5565b5b828201905092915050565b7f7365745365637572697479436f6465206661696c65642e200000000000000000600082015250565b6000612780601883611efc565b915061278b8261274a565b602082019050919050565b600060208201905081810360008301526127af81612773565b9050919050565b600081519050919050565b600081905092915050565b60006127d7826127b6565b6127e181856127c1565b93506127f1818560208601611f0d565b80840191505092915050565b600061280982856127cc565b915061281582846127cc565b91508190509392505050565b7f496e697469616c697a61626c653a20636f6e747261637420697320616c72656160008201527f647920696e697469616c697a6564000000000000000000000000000000000000602082015250565b600061287d602e83611efc565b915061288882612821565b604082019050919050565b600060208201905081810360008301526128ac81612870565b9050919050565b6000819050919050565b6000819050919050565b60006128e26128dd6128d8846128b3565b6128bd565b612305565b9050919050565b6128f2816128c7565b82525050565b600060208201905061290d60008301846128e9565b92915050565b7f45524332303a2064656372656173656420616c6c6f77616e63652062656c6f7760008201527f207a65726f000000000000000000000000000000000000000000000000000000602082015250565b600061296f602583611efc565b915061297a82612913565b604082019050919050565b6000602082019050818103600083015261299e81612962565b9050919050565b60008160011c9050919050565b6000808291508390505b60018511156129fc578086048111156129d8576129d76126c5565b5b60018516156129e75780820291505b80810290506129f5856129a5565b94506129bc565b94509492505050565b600082612a155760019050612ad1565b81612a235760009050612ad1565b8160018114612a395760028114612a4357612a72565b6001915050612ad1565b60ff841115612a5557612a546126c5565b5b8360020a915084821115612a6c57612a6b6126c5565b5b50612ad1565b5060208310610133831016604e8410600b8410161715612aa75782820a905083811115612aa257612aa16126c5565b5b612ad1565b612ab484848460016129b2565b92509050818404811115612acb57612aca6126c5565b5b81810290505b9392505050565b6000612ae38261201e565b9150612aee83612305565b9250612b1b7fffffffffffffffffffffffffffffffffffffffffffffffffffffffffffffffff8484612a05565b905092915050565b6000612b2e8261201e565b9150612b398361201e565b9250817fffffffffffffffffffffffffffffffffffffffffffffffffffffffffffffffff0483118215151615612b7257612b716126c5565b5b828202905092915050565b6000604082019050612b9260008301856120ca565b612b9f60208301846120ca565b9392505050565b7f536563757269747920636865636b206661696c65642e204e656564205365637560008201527f7269747920436f64650000000000000000000000000000000000000000000000602082015250565b6000612c02602983611efc565b9150612c0d82612ba6565b604082019050919050565b60006020820190508181036000830152612c3181612bf5565b9050919050565b7f45524332303a20617070726f76652066726f6d20746865207a65726f2061646460008201527f7265737300000000000000000000000000000000000000000000000000000000602082015250565b6000612c94602483611efc565b9150612c9f82612c38565b604082019050919050565b60006020820190508181036000830152612cc381612c87565b9050919050565b7f45524332303a20617070726f766520746f20746865207a65726f20616464726560008201527f7373000000000000000000000000000000000000000000000000000000000000602082015250565b6000612d26602283611efc565b9150612d3182612cca565b604082019050919050565b60006020820190508181036000830152612d5581612d19565b9050919050565b7f4f776e61626c653a2063616c6c6572206973206e6f7420746865206f776e6572600082015250565b6000612d92602083611efc565b9150612d9d82612d5c565b602082019050919050565b60006020820190508181036000830152612dc181612d85565b9050919050565b7f45524332303a20696e73756666696369656e7420616c6c6f77616e6365000000600082015250565b6000612dfe601d83611efc565b9150612e0982612dc8565b602082019050919050565b60006020820190508181036000830152612e2d81612df1565b9050919050565b7f4e487b7100000000000000000000000000000000000000000000000000000000600052601260045260246000fd5b6000612e6e8261201e565b9150612e798361201e565b925082612e8957612e88612e34565b5b828204905092915050565b7f626c61636b206c69737420757365722e20000000000000000000000000000000600082015250565b6000612eca601183611efc565b9150612ed582612e94565b602082019050919050565b60006020820190508181036000830152612ef981612ebd565b9050919050565b6000612f0b8261201e565b9150612f168361201e565b925082821015612f2957612f286126c5565b5b828203905092915050565b7f6e6f7420656e6f75676820616d6f756e742e2000000000000000000000000000600082015250565b6000612f6a601383611efc565b9150612f7582612f34565b602082019050919050565b60006020820190508181036000830152612f9981612f5d565b9050919050565b7f496e697469616c697a61626c653a20636f6e7472616374206973206e6f74206960008201527f6e697469616c697a696e67000000000000000000000000000000000000000000602082015250565b6000612ffc602b83611efc565b915061300782612fa0565b604082019050919050565b6000602082019050818103600083015261302b81612fef565b9050919050565b7f45524332303a206d696e7420746f20746865207a65726f206164647265737300600082015250565b6000613068601f83611efc565b915061307382613032565b602082019050919050565b600060208201905081810360008301526130978161305b565b9050919050565b7f45524332303a206275726e2066726f6d20746865207a65726f2061646472657360008201527f7300000000000000000000000000000000000000000000000000000000000000602082015250565b60006130fa602183611efc565b91506131058261309e565b604082019050919050565b60006020820190508181036000830152613129816130ed565b9050919050565b7f45524332303a206275726e20616d6f756e7420657863656564732062616c616e60008201527f6365000000000000000000000000000000000000000000000000000000000000602082015250565b600061318c602283611efc565b915061319782613130565b604082019050919050565b600060208201905081810360008301526131bb8161317f565b9050919050565b7f45524332303a207472616e736665722066726f6d20746865207a65726f20616460008201527f6472657373000000000000000000000000000000000000000000000000000000602082015250565b600061321e602583611efc565b9150613229826131c2565b604082019050919050565b6000602082019050818103600083015261324d81613211565b9050919050565b7f45524332303a207472616e7366657220746f20746865207a65726f206164647260008201527f6573730000000000000000000000000000000000000000000000000000000000602082015250565b60006132b0602383611efc565b91506132bb82613254565b604082019050919050565b600060208201905081810360008301526132df816132a3565b9050919050565b7f45524332303a207472616e7366657220616d6f756e742065786365656473206260008201527f616c616e63650000000000000000000000000000000000000000000000000000602082015250565b6000613342602683611efc565b915061334d826132e6565b604082019050919050565b6000602082019050818103600083015261337181613335565b905091905056fea2646970667358221220b78e98fcc8c7b36fd51e8acdaf57bedc1a69263c816e95ddd4fa33002e416e6864736f6c63430008090033",
  "linkReferences": {},
  "deployedLinkReferences": {}
}